:100000000C94BC0A0C94E90A0C94E90A0C94E90AD1
:100010000C94E90A0C94E90A0C94E90A0C94E90A94
:100020000C94E90A0C94E90A0C94E90A0C94E90A84
:100030000C94E90A0C94E90A0C94E90A0C94E90A74
:100040000C94E90A0C9485140C94E90A0C94E90ABE
:100050000C94E90A0C94E90A0C94AC6B0C94ED90A6
:100060000C94E90A0C941A1D0C94E90A0C94E90A00
:100070000C94E90A0C94E90A0C94E90A0C94E90A34
:100080000C94E90A0C94E90A0C94E90A0C94E90A24
:100090000C94E90A0C94E90A0C94E90A0C94468F32
:1000A0000C94E90A0C94E90A0C94E90A0C94E90A04
:1000B0000C94E90A0C94E90A0C94E90A0C94E90AF4
:1000C0000C94E90A0C94E90A0C94E90A0C94E90AE4
:1000D0000C94E90A0C94E90A0C94E90A0C94E90AD4
:1000E0000C94E90A084AD73B3BCE016E84BCBFFDA5
:1000F000C12F3D6C74319ABD56833DDA3D00C77FF8
:1001000011BED9E4BB4C3E916BAAAABE0000008090
:100110003F05A84CCDB2D44EB93836A9020C50B91F
:10012000918688083CA6AAAA2ABE000000803F4506
:10013000313A200045303A20005A3A2000593A20FE
:1001400000583A20004D53312C4D53322050696EE7
:10015000730A0024F404D9201BC40C5C0E9804C458
:10016000095F0265077101F405F900FB04B300485B
:10017000048700C10369005803550003034500BE0E
:10018000023A008402310053022A002902250004A9
:10019000022000E4011C00C8011900AF01170098FB
:1001A000011400840113007101100061011000515D
:1001B000010E0043010D0036010B002B010B002046
:1001C000010B00150109000C01090003010800FBE7
:1001D000000800F3000800EB000700E4000600DE62
:1001E000000600D8000600D2000600CC000500C7BB
:1001F000000500C2000500BD000400B9000400B500
:10020000000400B1000400AD000400A9000400A532
:10021000000300A20003009F0004009B000300985D
:100220000003009500020093000300900003008D7E
:100230000002008B00030088000200860002008498
:10024000000300810002007F0002007D0002007BAD
:1002500000020079000200770001007600020074BD
:1002600000020072000100710002006F0002006DC8
:100270000001006C0002006A0001006900020067D2
:1002800000010066000100650001006400020062D8
:1002900000010061000100600001005F0002005DDC
:1002A0000001005C0001005B0001005A00010059E0
:1002B00000010058000100570001005600010055E0
:1002C00000010054000100530000005300010052DF
:1002D00000010051000100500001004F0001004EDC
:1002E0000000004E0001004D0001004C0001004BD9
:1002F0000000004B0001004A0001004900010048D5
:1003000000000048000100470001004600000046D0
:1003100000010045000000450001004400010043C9
:1003200000000043000100420000004200010041C3
:1003300000000041000100400001003F0000003FBC
:100340000001003E0000003E0001003D0000003DB5
:100350000001003C0000003C0000003C0001003BAC
:100360000000003B0001003A0000003A00010039A3
:10037000000000390001003800000038000000389B
:100380000001003700000037000100360000003691
:100390000000003600010035000000350000003587
:1003A000000100340000003400000034000100337C
:1003B0000000003300000033000100320000003272
:1003C0000000003200010031000000310000003167
:1003D0000001003000000030000000300001002F5C
:1003E0000000002F0000002F0000002F0001002E51
:1003F0000000002E0000002E0001002D0000002D46
:100400000000002D0000002D0001002C0000002C39
:100410000000002C0000002C0001002B0000002B2D
:100420000000002B0000002B0001002A0000002A21
:100430000000002A0000002A000100290000002915
:100440000000002900000029000000290001002808
:1004500000000028000000280000002800000028FC
:1004600000010027000000270000002700000027EF
:1004700000000027000100260000002600000026E2
:1004800000000026000000260001002500000025D5
:1004900000000025000000250000002500000025C8
:1004A00000010024000000240000002400000024BB
:1004B00000000024000100230000002300000023AE
:1004C00000000023000000230000002300000023A0
:1004D0000001002200000022000000220000002293
:1004E0000000002200000022000100210000002185
:1004F0000000002100000021000000210000002178
:100500000000002100010020000000200000002069
:10051000000000200000002000000020000000205B
:10052000000000200001001F0000001F0000001F4D
:100530000000001F0000001F0000001F0000001F3F
:100540000001001E0000001E0000001E0000001E32
:1005500000000024F4D43050C38E20C2A240178281
:100560008B7011127A910D816CD90AA861E108C7CC
:10057000586607615143061E4B5D05C145A7041A25
:10058000411104093D9803713931034036DB02659E
:10059000339102D4305402802E1D02632CEE01757B
:1005A0002AC501B028A001102781018F2564012BE5
:1005B000244B01E0223401AC211F018D200D01806C
:1005C0001FFC00841EED00971DDF00B81CD200E662
:1005D0001BC600201BBC00641AB200B219A8000A96
:1005E00019A0006A189900D117910040178B00B527
:1005F00016840031167E00B31579003A157300C7D2
:10060000146F0058146A00EE136600881363002507
:10061000135E00C7125B006C12570015125400C124
:1006200011510070114F0021114B00D61049008D5F
:100630001047004610440002104200C00F400080E6
:100640000F3E00420F3C00060F3B00CB0E380093DC
:100650000E37005C0E3500270E3400F30D3200C15A
:100660000D3100900D3000600D2E00320D2D000573
:100670000D2C00D90C2B00AE0C2900850C29005C38
:100680000C2700350C27000E0C2600E80B2400C4B4
:100690000B2400A00B23007D0B23005A0B210039F3
:1006A0000B2100180B2000F80A1F00D90A1E00BBFE
:1006B0000A1E009D0A1D00800A1D00630A1C0047D7
:1006C0000A1B002C0A1B00110A1A00F7091A00DD88
:1006D000091900C4091900AB091900920917007B18
:1006E000091800630917004C091600360916002086
:1006F0000916000A091500F5081500E0081400CCD9
:10070000081400B8081400A4081400900813007D11
:100710000812006B08130058081200460812003433
:10072000081100230811001208110001081100F03F
:10073000071000E0071000D0071000C0071000B03D
:10074000070F00A107100091070E0083070F007428
:10075000070F0065070E0057070E0049070E003B04
:10076000070D002E070E0020070D0013070D0006D1
:10077000070D00F9060C00ED060D00E0060C00D494
:10078000060C00C8060C00BC060C00B0060C00A449
:10079000060B0099060C008D060B0082060B0077F5
:1007A000060B006C060B0061060A0057060B004C96
:1007B000060A0042060A0038060A002E060A00242D
:1007C000060A001A060A001006090007060A00FDBC
:1007D000050900F4050900EB050900E2050900D947
:1007E000050900D0050900C7050900BE050900B5C7
:1007F000050800AD050800A50509009C0508009442
:100800000508008C050800840508007C05080074B4
:100810000508006C050700650508005D0507005622
:100820000508004E05070047050700400508003889
:10083000050700310507002A050700230507001CEE
:10084000050600160507000F05070008050600024B
:10085000050700FB040600F5040700EE040600E8A7
:10086000040600E2040700DB040600D5040600CFFE
:10087000040600C9040600C3040600BD040600B750
:10088000040600B1040500AC040600A6040600A09E
:100890000405009B04060095040500900406008AE8
:1008A00004050085040500800406007A040500752F
:1008B000040500700405006B040500660405006172
:1008C0000405005C04050057040500520405004DB2
:1008D00004050048040500430405003E0404003AF2
:1008E00004050035040500300404002C040500272D
:1008F000040400230405001E0404001A0404001666
:10090000040500110404000D04040009040500049A
:1009100004040000040400FC030400F8030400F4D1
:10092000030400F0030400EC030400E8030400E403
:10093000030400E0030400DC030400D8030400D433
:10094000030400D0030400CC030400C8030300C563
:10095000030300205A3A0020593A0020583A006513
:100960006E6473746F7073206869743A2000486114
:100970007264636F6465642044656661756C74209D
:1009800053657474696E6773204C6F6164656400AD
:1009900053746F7265642073657474696E67732035
:1009A00072657472696576656400204400204900B0
:1009B0002020204D333031205000504944207365B1
:1009C0007474696E67733A00205A00205900202021
:1009D0004D323036205800486F6D65206F66667363
:1009E000657420286D6D293A00204500205A0020AA
:1009F000580020420020540020204D323035205332
:100A000000416476616E636564207661726961623B
:100A10006C65733A20533D4D696E2066656564725E
:100A200061746520286D6D2F73292C20543D4D690C
:100A30006E2074726176656C20666565647261749F
:100A40006520286D6D2F73292C20423D6D696E69DC
:100A50006D756D207365676D656E742074696D6565
:100A600020286D73292C20583D6D6178696D756D56
:100A7000205859206A65726B20286D6D2F73292CC0
:100A800020205A3D6D6178696D756D205A206A6528
:100A9000726B20286D6D2F73292C2020453D6D61D0
:100AA00078696D756D2045206A65726B20286D6DC3
:100AB0002F73290020540020204D32303420530061
:100AC000416363656C65726174696F6E3A20533D72
:100AD000616363656C65726174696F6E2C20543D4F
:100AE0007265747261637420616363656C657261C1
:100AF00074696F6E00204500205A002059002020A4
:100B00004D3230312058004D6178696D756D20414E
:100B10006363656C65726174696F6E20286D6D2FFB
:100B20007332293A00204500205A00205900202025
:100B30004D3230332058004D6178696D756D2066F7
:100B4000656564726174657320286D6D2F73293A31
:100B500000204500205A0020590020204D39322025
:100B6000580053746570732070657220756E6974D7
:100B70003A0053657474696E67732053746F7265BD
:100B800064004572726F723A006563686F3A005094
:100B900072696E7465722073746F7070656420641E
:100BA000756520746F206572726F72732E204669AE
:100BB0007820746865206572726F7220616E64209F
:100BC000757365204D39393920746F2072657374DF
:100BD0006172742E202854656D706572617475722F
:100BE000652069732072657365742E2053657420C7
:100BF00069742061667465722072657374617274C1
:100C0000696E6729005072696E7465722068616C44
:100C10007465642E206B696C6C28292063616C6C90
:100C2000656421006F6B00526573656E643A200045
:100C30002200556E6B6E6F776E20636F6D6D616E07
:100C4000643A2022005A204F6666736574203A2069
:100C5000007A5F6D61783A20007A5F6D696E3A20A4
:100C6000005A204F6666736574005A204F6666739B
:100C70006574206F6B007A5F6D61783A20007A5F4F
:100C80006D696E3A2000795F6D61783A2000795F76
:100C90006D696E3A2000785F6D61783A2000785F68
:100CA0006D696E3A2000205A3A0020593A002043DC
:100CB0006F756E7420583A200020453A00205A3A49
:100CC0000020593A00583A004649524D5741524582
:100CD0005F4E414D453A4D61726C696E2056312E22
:100CE000302E336D3B20537072696E7465722F67BE
:100CF00072626C206D617368757020666F72206718
:100D0000656E36204649524D574152455F55524C0B
:100D10003A68747470733A2F2F636F64652E616C38
:100D20006570686F626A656374732E636F6D2F649C
:100D30006966667573696F6E2F4D41524C494E2F2F
:100D40007265706F7369746F72792F466F78676C14
:100D50006F76652F2050524F544F434F4C5F56458E
:100D60005253494F4E3A312E30204D414348494E5F
:100D7000455F545950453A4C756C7A426F74204D1A
:100D8000696E692045585452554445525F434F554A
:100D90004E543A310A0020423A0020453A00543A73
:100DA0000020573A0020453A00543A002042403A89
:100DB0000020403A00202F003A00205400202F004D
:100DC00020423A00202F006F6B20543A0025692002
:100DD0006D696E2C20256920736563000A00205A16
:100DE0003A200020593A200020583A2000426564F9
:100DF0000050726F62696E6720646F6E652100201B
:100E0000643A200020623A200045716E20636F65CD
:100E10006666696369656E74733A20613A200048BA
:100E20006F6D6520582F59206265666F7265205A74
:100E300000FFFF01000025430000394300001F436D
:100E4000000000000000000000001F430000000040
:100E500000000000000000000000254300003943AE
:100E600000001F430000A0400000A0400000004020
:100E70000A00207A3A200020793A200020783A208F
:100E800000426564005072696E7465722073746FFD
:100E9000707065642064756520746F206572726F70
:100EA00072732E2046697820746865206572726FAF
:100EB0007220616E6420757365204D393939207454
:100EC0006F20726573746172742E202854656D7082
:100ED00065726174757265206973207265736574DB
:100EE0002E205365742069742061667465722072C7
:100EF000657374617274696E6729004E6F204C6966
:100F00006E65204E756D6265722077697468206326
:100F10006865636B73756D2C204C617374204C692C
:100F20006E653A20004E6F20436865636B73756D84
:100F30002077697468206C696E65206E756D6265D6
:100F4000722C204C617374204C696E653A200063EA
:100F50006865636B73756D206D69736D617463682B
:100F60002C204C617374204C696E653A20004C69EA
:100F70006E65204E756D626572206973206E6F74A8
:100F8000204C617374204C696E65204E756D6265EE
:100F9000722B312C204C617374204C696E653A20A1
:100FA000004D313130002020506C616E6E65724210
:100FB000756666657242797465733A2000204672E0
:100FC0006565204D656D6F72793A20004F6374201E
:100FD0003230203230313500436F6D70696C65649A
:100FE0003A2000286E6F6E652C2064656661756C12
:100FF0007420636F6E6669672900207C20417574D8
:10100000686F723A20004F637420323020323031E2
:10101000352031303A33363A333100204C61737425
:1010200020557064617465643A2000312E302E3290
:10103000004D61726C696E0020536F667477617247
:101040006520526573657400205761746368646F2E
:1010500067205265736574002042726F776E206F4F
:101060007574205265736574002045787465726EDE
:10107000616C20526573657400506F7765725570AE
:10108000007374617274002200656E717565696E1B
:10109000672022002200656E717565696E672022E7
:1010A0000054656D70657261747572652068656164
:1010B000746564206265642073776974636865642D
:1010C000206F66662E204D415854454D5020747255
:1010D00069676765726564202121003A204578744C
:1010E0007275646572207377697463686564206FD4
:1010F00066662E204D494E54454D502074726967E6
:1011000067657265642021003A20457874727564C1
:101110006572207377697463686564206F66662EF4
:10112000204D415854454D5020747269676765726F
:101130006564202100202D20496E76616C69642051
:101140006578747275646572206E756D6265722063
:1011500021001000C90210012C0140012201700180
:101160001801B0010E01F00104015002FA00B002B2
:10117000F0003003E600D003DC009004D2007005DC
:10118000C800A006BE000008B400B009AA00D00B39
:10119000A000600E960060118C00001582002019DE
:1011A0007800C01D6E00A0226400B0275A00902C69
:1011B000500000314600E0343C0010383200903AD4
:1011C0002800603C1E00A03D1400803E0A00203F25
:1011D00000001000AD0330016A0150022B017003C2
:1011E0000A019004F500B005E500D006D800F0072C
:1011F000CE001009C500300ABE00500BB700700CBD
:10120000B100900DAB00B00EA600D00FA200F01000
:101210009D00101299003013950050149200701523
:101220008E0090168B00B0178700D0188400F0193C
:101230008100101B7E00301C7B00501D7900701E49
:101240007600901F7300B0207000D0216E00F02255
:101250006B0010246900302566005026630070275B
:10126000610090285E00B0295C00D02A5900F02B64
:101270005600102D5400302E5100502F4E0070306B
:101280004B0090314800B0324500D0334200F0347A
:101290003E0010363B00303737005038330070398D
:1012A0002E00903A2900B03B2300D03C1B00F03DBB
:1012B0001100103F0100F03F0000504944204175EB
:1012C000746F74756E652066696E697368656421F4
:1012D0002050757420746865206C617374204B70A5
:1012E0002C204B6920616E64204B6420636F6E7309
:1012F00074616E74732066726F6D2061626F7665C3
:1013000020696E746F20436F6E66696775726174D1
:10131000696F6E2E6800504944204175746F747572
:101320006E65206661696C6564212074696D656F06
:1013300075740020403A006F6B20543A006F6B20A8
:10134000423A00504944204175746F74756E6520AF
:101350006661696C6564212054656D7065726174A5
:1013600075726520746F6F206869676800204B6430
:101370003A2000204B693A2000204B703A20002090
:10138000436C617373696320504944200020547595
:101390003A2000204B753A2000206D61783A2000F9
:1013A000206D696E3A200020643A20002062696155
:1013B000733A20000A0020000A00207A3A20002018
:1013C000793A200020783A200020746F6F206C6FEB
:1013D0006E6720657874727573696F6E20707265C0
:1013E00076656E7465640020636F6C642065787444
:1013F000727573696F6E2070726576656E74656460
:101400000000002100240027002A002D00300033B6
:101410000001010000040107010A0100002200256B
:101420000028002B002E00310034000201000005CE
:101430000108010B01000020002300260029002CD8
:10144000002F003200000100000301060109010520
:10145000050505070508080808020202020A0A082D
:101460000804040404010101010101010103030353
:101470000303030303040707070C0C0C0C0C0C0CF0
:101480000C0202020206060606060606060B0B0BF7
:101490000B0B0B0B0B07070A0A0A0A0A0A050505BC
:1014A0000401021020200808102040102040800273
:1014B000010201080402010102040810204080809A
:1014C000402010080402018004020180402010081E
:1014D00004020108040201010204081020408001F6
:1014E00002040810204080100804088010204004E6
:1014F0004080100000090A02080B0C0D07060304C7
:1015000001000000000000000000000000000000DA
:1015100000000000000000000000000000000011BA
:10152000100F00000000000000000000000000009C
:10153000000000000000000000494E46494E49549A
:10154000594E414ECDCCCC3D0AD7233C17B7D138AC
:1015500077CC2B329595E6241FB14F0A000020412D
:101560000000C84200401C4620BCBE4CCA1B0E5A9C
:10157000AEC59D74AE1DB58E11241FBECFEFD1E256
:10158000DEBFCDBF00E00CBF14E0A0E0B2E0EEEAA9
:10159000F2E301E00BBF02C007900D92A837B1073C
:1015A000D9F71BBE1DE0A8E7B4E001C01D92A83E1C
:1015B000B107E1F715E1C8E7D5E104C02297FE01C4
:1015C0000E940F99C437D107C9F70E94F0930C9479
:1015D00055990C940000CF93DF93BC0182309105A4
:1015E00010F462E070E0A091E40DB091E50DED0122
:1015F00040E050E0E0E0F0E021C08881998186176A
:10160000970769F48A819B81309719F093838283CD
:1016100004C09093E50D8093E40DFE0134C068177B
:10162000790738F44115510519F08417950708F426
:10163000AC01FE018A819B819C01E9012097E9F6BA
:1016400041155105A9F1CA01861B970B049708F4AF
:10165000BA01E0E0F0E02AC08D919C9111978417C7
:101660009507F9F46417750781F412968D919C9192
:101670001397309719F09383828304C09093E50DFC
:101680008093E40DFD0132964CC0CA01861B970B76
:10169000FD01E80FF91F6193719302978D939C935D
:1016A00040C0FD01828193819C01D9011097A1F670
:1016B0008091E20D9091E30D892B41F480915D03BF
:1016C00090915E039093E30D8093E20D40915F0350
:1016D000509160034115510541F44DB75EB78091BB
:1016E0005B0390915C03481B590B2091E20D3091F4
:1016F000E30DCA01821B930B8617970780F0AB019D
:101700004E5F5F4F8417950750F0420F531F509361
:10171000E30D4093E20DF9016193719302C0E0E0A3
:10172000F0E0CF01DF91CF910895CF93DF93009741
:1017300009F450C0EC0122971B821A82A091E40D9B
:10174000B091E50D109709F140E050E0AC17BD07EE
:1017500008F1BB83AA83FE0121913191E20FF31FAF
:10176000AE17BF0779F48D919C911197280F391FFF
:101770002E5F3F4F3983288312968D919C9113974A
:101780009B838A834115510571F4D093E50DC09375
:10179000E40D20C012968D919C911397AD01009796
:1017A00011F0DC01D3CFFA01D383C28321913191AF
:1017B000E20FF31FCE17DF0769F488819981280FA4
:1017C000391F2E5F3F4FFA01318320838A819B812D
:1017D00093838283DF91CF910895A0E0B0E0E3EF9F
:1017E000FBE00C942499EC015B016115710519F083
:1017F000FB0191838083F9908F2D90E00E941399D3
:10180000892BC9F7FDE2FF1621F4F990EE24E39449
:1018100005C02BE2F21609F4F990EE248E01015076
:101820001040C80169E375E143E050E062D2892BC2
:10183000F9F48E010E5F1F4FC8016CE375E145E0BE
:1018400050E057D2892B19F48E01095F1F4FA11464
:10185000B10419F0F50111830083E0FC04C070E0CD
:1018600090E080E813C070E090E080E86FEF07C17F
:10187000C80161E475E143E050E03BD2892B69F493
:10188000A114B10429F470E090E080EC6FE7F7C098
:101890002296F501D183C083F6CF8824992440E0B5
:1018A00050E060E070E0EF2DE053EA30A0F5F2E0A8
:1018B000EF2A8E2D90E09C0128703070E2FE06C069
:1018C000232B79F50894811C911C2BC0232B19F034
:1018D000089481089108DB01CA0112E0880F991F62
:1018E000AA1FBB1F1A95D1F7480F591F6A1F7B1FEC
:1018F000440F551F661F771F4E0F511D611D711D2F
:10190000483929E9520729E9620729E1720748F0B5
:1019100084E0E82A06C0EE3F31F4E3FC39C098E0E9
:10192000E92AF990C0CFE53311F0E53189F5299125
:101930002D3219F4E0E1EE2A05C02B3219F081E0D6
:1019400090E003C0299182E090E0E22FE053EA307A
:1019500018F0C81BD90B1CC020E030E0FCE0203898
:101960003F075CF4C901880F991F880F991F280F42
:10197000391F220F331F2E0F311DE991E053EA303A
:1019800068F3E4FE03C0309521953F4F820E931E0D
:10199000CE2CDD24E1FE07C0A114B10421F0219773
:1019A000F501D183C083CB01BA010E9478957B01F8
:1019B0008C01F3E0CF22DD2423E0C216D10421F410
:1019C00017FB109517F9109557016801C801B70169
:1019D00020E030E040E050E00E94D894882309F4F1
:1019E0004AC097FE0DC028E5E22E25E1F22E909424
:1019F000819491089394C0E2D0E000E010E012C01E
:101A000090E7E92E95E1F92EF6CFF7012591359172
:101A100045915491C601B5010E94B8975B016C01D4
:101A20008C1A9D0A8C169D0684F7D595C7950F5F75
:101A30001F4F0630110529F08CEF9FEFE80EF91EBD
:101A4000F1CFC501D6017C018D018C2D880F8D2D24
:101A5000881F8F3F51F0C601B50120E030E040E023
:101A600050E00E94D894882331F482E290E0909371
:101A7000E70D8093E60D7E2D9F2D802F612F272F60
:101A8000392F482F562FB901CA01CDB7DEB7ECE088
:101A90000C9440992F923F925F926F927F928F9217
:101AA0009F92AF92BF92CF92DF92EF92FF920F93ED
:101AB0001F93CF93DF938C011B01EA016115710520
:101AC00019F0FB0191838083209749F0CE010297A2
:101AD000839728F020E030E040E050E0F6C0F801C5
:101AE000A1908F018A2D90E00E941399892BB9F75C
:101AF000FDE2AF1631F4F801A1908F015524539403
:101B000007C0FBE2AF1619F4F801A1908F0155242C
:101B1000209719F0C031D105C1F4F0E3AF1679F484
:101B2000F8018081883711F0883549F4F801A180E7
:101B30000E5F1F4FF2E05F2AC0E1D0E006C02097A1
:101B400021F480E3A816E9F427C0C830D10531F1AB
:101B5000C930D10524F4C230D10531F50CC0CA30EA
:101B6000D10589F0C031D105F9F4C12CD12CE12C7B
:101B7000B8E0FB2E28C0C12CD12CE12CA0E4FA2E19
:101B800022C0CAE0D0E0FCECCF2EFCECDF2EFCEC57
:101B9000EF2EFCE0FF2E17C0C8E0D0E0C12CD12C06
:101BA000E12CE0E1FE2E0FC09E01442737FD409559
:101BB000542F60E070E080E090E80E94D098C90166
:101BC000DA016C017D0120E030E040E050E060E0AF
:101BD0003E01882477FC8094982C70EDB72EBA0CC7
:101BE000E9E0EB1570F48A2D81548A3118F499ECF0
:101BF000B92E06C08A2D81568A3150F589EAB82E51
:101C0000BA0C8B2D90E08C179D0714F56F3FE1F017
:101C1000C216D306E406F506B0F0CA01B901A40164
:101C200093010E948A989B01AC012B0D311D411D2F
:101C3000511D2130F0E03F07F0E04F07F0E85F076B
:101C400010F461E001C06FEFF801A1908F01C5CFE2
:101C50002114310481F0662331F001501040F1016C
:101C60001183008308C051FE1AC002501040F101D8
:101C70001183008314C067FF12C050FC05C02FEF12
:101C80003FEF4FEF5FE704C020E030E040E050E876
:101C900082E290E09093E70D8093E60D16C050FE2F
:101CA00008C050954095309521953F4F4F4F5F4F5D
:101CB0000CC057FF0AC082E290E09093E70D80933A
:101CC000E60D2FEF3FEF4FEF5FE7B901CA01DF915C
:101CD000CF911F910F91FF90EF90DF90CF90BF9029
:101CE000AF909F908F907F906F905F903F902F90DC
:101CF0000895FB01DC014150504088F08D91813402
:101D00001CF08B350CF4805E659161341CF06B35F2
:101D10000CF4605E861B611171F3990B0895881BAA
:101D2000FCCFFB0155915523A9F0BF01DC014D917A
:101D300045174111E1F759F4CD010590002049F014
:101D40004D9140154111C9F3FB014111EFCF81E0E5
:101D500090E001970895FC018191861721F0882376
:101D6000D9F7992708953197CF010895FB01DC0138
:101D70008D91019080190110D9F3990B0895FB0101
:101D8000DC014150504030F08D910190801919F4E0
:101D90000020B9F7881B990B0895AEE0B0E0E3EDA1
:101DA000FEE00C942C990E891F898EE08C831A8397
:101DB00009838FEF9FE79E838D839E01265E3F4FB1
:101DC000CE010196688D798DA9010AD02F813885C1
:101DD000020F131FF80110822E96E4E00C9448992C
:101DE000ABE0B0E0E6EFFEE00C941E993C012B0165
:101DF0005A01FC0117821682838181FD03C06FEFB7
:101E00007FEFB9C19AE0892E1E010894211C311C74
:101E1000F3012381F20123FD859123FF81912F019D
:101E2000882309F4A5C1853239F423FD859123FF68
:101E300081912F01853221F490E0B301B7D1E8CF31
:101E4000982FFF24EE249924FFE1FF15D0F09B3258
:101E500069F09C3228F4903259F0933291F40EC01C
:101E60009D3249F0903369F441E024C052E0F52AF4
:101E700084E0F82A28C098E0F92A25C0E0E1FE2A8B
:101E800022C0F7FC29C0892F80538A3070F4F6FEF7
:101E900005C0989C902C1124980E15C0E89CE02C4D
:101EA0001124E80EF0E2FF2A0EC09E3229F4F6FC5F
:101EB0005FC140E4F42A07C09C3619F450E8F52AC3
:101EC00002C0983649F4F20123FD959123FF9191C8
:101ED0002F01992309F0B8CF892F8554833018F04A
:101EE0008052833038F444E050E0A40EB51E5FE326
:101EF00059830FC0933631F0933779F0933509F059
:101F000052C01FC0F5018081898342E050E0A40ED9
:101F1000B51E610101E010E011C0F501C080D18063
:101F2000F6FC03C06FEF7FEF02C0692D70E042E066
:101F300050E0A40EB51EC6012ED18C015FE7F5223C
:101F400013C0F501C080D180F6FC03C06FEF7FEFB6
:101F500002C0692D70E042E050E0A40EB51EC6013B
:101F60000FD18C0150E8F52AF3FE06C018C080E2BC
:101F700090E0B3011BD1EA948E2D90E00817190769
:101F8000B0F30DC0F601F7FC8591F7FE81916F016A
:101F900090E0B3010BD1E110EA940150104001151B
:101FA000110581F7E2C0943611F0993661F5F7FE1C
:101FB00008C0F501208131814281538184E090E0A5
:101FC0000AC0F501808191819C01442737FD40952D
:101FD000542F82E090E0A80EB91E9FE6F92257FF29
:101FE00009C050954095309521953F4F4F4F5F4F19
:101FF000E0E8FE2ACA01B901A1012AE030E002D1DD
:10200000D82ED2183FC0953729F41F2D1F7E2AE005
:1020100030E01DC01F2D197F9F3661F0903720F4EE
:10202000983509F0A5C00FC0903739F0983709F0FE
:102030009FC004C028E030E00AC0106114FD1460A5
:1020400020E130E004C014FD166020E132E017FF0B
:1020500008C0F501608171818281938144E050E084
:1020600008C0F50180819181BC0180E090E042E0F0
:1020700050E0A40EB51EA101C5D0D82ED2188FE70E
:10208000F82EF122F6FE0BC05EEFF522D91438F4DB
:10209000F4FE07C0F2FC05C08FEEF82202C01D2D31
:1020A00001C0192DF4FE0DC0FE01ED0DF11D808162
:1020B000803319F499EEF92208C01F5FF2FE05C0C3
:1020C00003C08F2D867809F01F5F0F2DF3FC13C01E
:1020D000F0FE0EC01E1510F09D2C0AC09D2C9E0C0B
:1020E000911A1E2D05C080E290E0B3015FD01F5F02
:1020F0001E15C8F304C01E1510F4E11A01C0EE2429
:1021000004FF0EC080E390E0B30150D002FF1BC07B
:1021100001FD03C088E790E00EC088E590E00BC0A9
:10212000802F867881F001FF02C08BE201C080E23F
:10213000F7FC8DE290E0B30139D005C080E390E078
:10214000B30134D09A94D914C8F3DA94F101ED0DA7
:10215000F11D808190E0B30129D0DD20B1F705C0E9
:1021600080E290E0B30122D0EA94EE20C9F750CE8D
:10217000F30166817781CB012B96E2E10C943A99C9
:10218000FC010590615070400110D8F78095909542
:102190008E0F9F1F0895FC01615070400190011047
:1021A000D8F7809590958E0F9F1F08950F931F93DA
:1021B000CF93DF938C01EB018B8181FF1BC082FFEA
:1021C0000DC02E813F818C819D812817390764F4D1
:1021D000E881F9810193F983E88306C0E885F985F0
:1021E000802F1995892B31F48E819F8101969F83D1
:1021F0008E8302C00FEF1FEFC801DF91CF911F91B7
:102200000F910895FA01AA27283051F1203181F168
:10221000E8946F936E7F6E5F7F4F8F4F9F4FAF4FEE
:10222000B1E03ED0B4E03CD0670F781F891F9A1F01
:10223000A11D680F791F8A1F911DA11D6A0F711DB5
:10224000811D911DA11D20D009F468943F912AE0C1
:10225000269F11243019305D3193DEF6CF010895A9
:10226000462F4770405D4193B3E00FD0C9F7F6CFDA
:10227000462F4F70405D4A3318F0495D31FD4052A2
:10228000419302D0A9F7EACFB4E0A6959795879538
:1022900077956795BA95C9F7009761057105089517
:1022A0009B01AC010A2E06945795479537952795C3
:1022B000BA95C9F7620F731F841F951FA01D08955B
:1022C0001092AE041092B5041092BC04089580934D
:1022D0006D030895EFE6F0E08081826080830895C9
:1022E0001F93FC011FB7F89480819181A281B38173
:1022F0008093860490938704A0938804B093890404
:10230000FB0180819181A281B38180938A049093A3
:102310008B04A0938C04B0938D04FA018081918189
:10232000A281B38180938E0490938F04A093900434
:10233000B0939104F90180819181A281B38180934E
:10234000920490939304A0939404B09395041FBFB8
:102350001F910895FC012FB7F89480819181A2818B
:10236000B3818093920490939304A0939404B093C8
:1023700095042FBF0895E82F8FB7F894F0E0EE0F83
:10238000FF1FEE0FFF1FEA57FB4F20813181428173
:1023900053818FBFB901CA010895CF93DF932FB73F
:1023A000F894C82FD0E0CC0FDD1FCC0FDD1FFE014D
:1023B000EA57FB4F60817181828193812FBF0E9418
:1023C0007A95C153D84F288139814A815B810E9417
:1023D000DF94DF91CF910895E5E4F1E0949108C096
:1023E0008091C00085FFFCCF9093C60031969491F8
:1023F0009923B1F7E1E4F1E0949108C08091C00025
:1024000085FFFCCF9093C600319694919923B1F744
:1024100088E20E94C193BC0183E595E04AE050E068
:102420000E94961E89E20E94C193BC0183E595E05B
:102430004AE050E00E94961E8091C00085FFFCCFCC
:102440008AE08093C600EDE3F1E0949108C08091AA
:10245000C00085FFFCCF9093C600319694919923DC
:10246000B1F785E40E94C193BC0183E595E04AE0A1
:1024700050E00E94961E87E20E94C193BC0183E552
:1024800095E04AE050E00E94961E8091C00085FFD2
:10249000FCCF8AE08093C600E9E3F1E0949108C0A4
:1024A0008091C00085FFFCCF9093C6003196949137
:1024B0009923B1F784E40E94C193BC0183E595E0C0
:1024C0004AE050E00E94961E83E40E94C193BC0142
:1024D00083E595E04AE050E00E94961E8091C0009E
:1024E00085FFFCCF8AE08093C600E4E3F1E094919D
:1024F00008C08091C00085FFFCCF9093C600319644
:1025000094919923B1F781E40E94C193BC0183E5C2
:1025100095E04AE050E00E94961E82E40E94C1933A
:10252000BC0183E595E04AE050E00E94961E809150
:10253000C00085FFFCCF8AE08093C600EFE2F1E0A7
:10254000949108C08091C00085FFFCCF9093C60095
:10255000319694919923B1F78FE30E94C193BC0106
:1025600083E595E04AE050E00E94961E80E40E94D8
:10257000C193BC0183E595E04AE050E00E94961EBD
:102580008091C00085FFFCCF8AE08093C60008954B
:102590000F931F93182F042F67FD19C0823081F00D
:1025A000833028F4882341F0813089F407C08330D8
:1025B00049F0843061F408C088E207C085E405C0B2
:1025C00084E403C081E401C08FE30E948F9307FD80
:1025D0001AC0123081F0133028F4112341F0113069
:1025E00091F407C0133049F0143069F408C089E24F
:1025F00007C087E205C083E403C082E401C080E431
:10260000602F0E948F931F910F910895643089F07D
:10261000653028F4613041F0623099F407C06830C9
:1026200051F0603171F40AC060E001C061E040E047
:1026300004C060E001C061E041E0AACF61E041E098
:10264000A7CF08950F931F93182F062F86E260E0FF
:102650000E948F931EBD0DB407FEFDCF8EB50EBD3B
:102660000DB407FEFDCF8EB586E261E00E948F9328
:102670001F910F910895CF93DF938FE361E00E9444
:10268000DC9280E461E00E94DC9288E261E00E94DA
:10269000DC9289E261E00E94DC9285E461E00E94C4
:1026A000DC9287E261E00E94DC9284E461E00E94B7
:1026B000DC9283E461E00E94DC9281E461E00E94AC
:1026C000DC9282E461E00E94DC92C0E0D0E0FE0196
:1026D000E451FC4F8C2F608199DF2196C530D105E4
:1026E000B1F7DF91CF9108951F93CF93DF93182F08
:1026F000EB01E82FF0E0EF50FC4F808190E0A2DF8B
:10270000112399F4BE01882777FD8095982F2FEF2C
:1027100030E040E050E00E948A9820ED37E040E051
:1027200050E00E94F2988CE229C0113099F4BE0169
:10273000882777FD8095982F2FEF30E040E050E01C
:102740000E948A9820ED37E040E050E00E94F29825
:102750008DE214C01230A9F4BE01882777FD809560
:10276000982F2FEF30E040E050E00E948A9820ED53
:1027700037E040E050E00E94F2988EE2B9010E94FA
:10278000FE91DF91CF911F910895CF93DF930E9427
:10279000DB9086E261E00E94DC92C0E0D0E0FE01C6
:1027A000EA50FC4F60818C2F70E09EDF2196C5308F
:1027B000D105A9F78CE261E00E94DC928DE261E034
:1027C0000E94DC928EE261E00E94DC9260916103E3
:1027D0007091620380E088DF60916303709164030D
:1027E00081E082DF609165037091660382E07CDFA7
:1027F00080912101887F816080932101DF91CF91B9
:102800000895C3DF38DFEAE0F1E0808182608083F1
:102810008081816080838081846080838081806406
:1028200080838081806880830F9A179A0E9A169A07
:102830000D9A159A0C9A149A0B9A139A26982E9A16
:1028400025982D9A24982C9A3F98479A0A98129A7C
:102850000998119A389A4098179A10928305399AD4
:102860004198169A109284053A9A4298159A1092B5
:1028700085053B9A4398149A3C9A4498A1E8B0E0A5
:102880008C918F7E8C938C9188608C93E0E8F0E043
:1028900080818D7F808380818E7F808380818F7314
:1028A000808380818F7C80838C91887F82608C93F1
:1028B00080E090E4909389008093880010928500D6
:1028C00010928400EFE6F0E080818260808381E0F6
:1028D00080936D037894089505C00E94D26E80E0C5
:1028E0000E94EA499091FC0C8091FD0C9817A9F781
:1028F0000895F2DF179A10928305169A10928405B4
:10290000159A10928505149A08951F920F920FB68A
:102910000F920BB60F921124AF92BF92CF92DF921B
:10292000EF92FF920F931F932F933F934F935F93D9
:102930006F937F938F939F93AF93BF93CF93DF93C7
:10294000EF93FF938091780490917904892B09F09B
:1029500099C19091FC0C8091FD0C981719F4E0E05E
:10296000F0E014C08091FD0C90E02DE430E0829FF7
:10297000F001839FF00D929FF00D1124E45DF74F5D
:10298000E45BFF4F81E08083EC54F040F0937904E6
:10299000E0937804309709F46FC1E45BFF4F81E066
:1029A00080831092C7041092C8041092C904109238
:1029B000CA04E0917804F091790460AD71AD2CE91E
:1029C0006134720718F060E47CE904C03EE46132CF
:1029D000730730F0769567957695679584E007C024
:1029E00047E26131740730F07695679582E0809315
:1029F000C00407C08093C0046032710510F460E227
:102A000070E06052704058E060307507E8F0472F82
:102A100050E0440F551F440F551F4D5A5E4F9A0109
:102A20002E5F3F4FF901859194919C01AA27639FE6
:102A3000C001629F810D9A1F06948A1F9A1F11245C
:102A4000FA01459154911EC0CB01969587958C7FD4
:102A50008D5A9A4FFC0145915491FC013296259173
:102A60003491862F90E087709070FC012E9FC001FA
:102A70002F9F900D3E9F900D112403E09695879512
:102A80000A95E1F7481B590B44365105A8F4E0E0DC
:102A9000F2E007C08091C00085FFFCCF3196909393
:102AA000C60090819923B1F783E595E04AE050E0B4
:102AB0000E94BD1E44E650E05093CC044093CB04EA
:102AC0008091C004992787FD90959093CE048093C0
:102AD000CD04E0917804F091790464AD75AD709304
:102AE000C6046093C504FCE961347F0718F060E414
:102AF0007CE904C02EE46132720730F07695679568
:102B00007695679584E007C037E26131730730F04E
:102B10007695679582E08093C00408C081E0809339
:102B2000C0046032710510F460E270E060527040E1
:102B300048E060307407E8F0472F50E0440F551F1D
:102B4000440F551F4D5A5E4F9A012E5F3F4FF901BA
:102B5000859194919C01AA27639FC001629F810D7A
:102B60009A1F06948A1F9A1F1124FA0145915491C5
:102B70001EC0CB01969587958C7F8D5A9A4FFC018C
:102B800045915491FC01329625913491862F90E025
:102B900087709070FC012E9FC0012F9F900D3E9F6B
:102BA000900D1124E3E096958795EA95E1F7481B8F
:102BB000590B44365105A8F4E0E0F2E007C08091DB
:102BC000C00085FFFCCF31969093C6009081992379
:102BD000B1F783E595E04AE050E00E94BD1E44E66F
:102BE00050E0CA01A0E0B0E08093C1049093C20419
:102BF000A093C304B093C404509389004093880009
:102C0000E0917804F091790480899189A289B3894F
:102C1000B695A79597958795B095A0959095819530
:102C20009F4FAF4FBF4F8093960490939704A0930C
:102C30009804B093990480939A0490939B04A09372
:102C40009C04B0939D0480939E0490939F04A09352
:102C5000A004B093A1048093A2049093A304A09332
:102C6000A404B093A5041092A6041092A704109295
:102C7000A8041092A90406C080ED97E09093890003
:102C800080938800E0917804F0917904309709F4FA
:102C900016C680A18093AA0480FF0AC08FB7F8945B
:102CA00090910B019D7F90930B018FBF8FEF09C017
:102CB0008FB7F89490910B01926090930B018FBFA6
:102CC00081E0809369038091AA0481FF0AC08FB7D5
:102CD000F89490910B01916090930B018FBF8FEF4F
:102CE00009C08FB7F89490910B019E7F90930B01D0
:102CF0008FBF81E080936A038091AA0420916D03C5
:102D000080FF56C0222309F4A8C01E994AC08091B2
:102D1000AB04882309F441C0E0917804F091790470
:102D200080819181A281B381181619061A061B06AB
:102D300054F52091AC043091AD04809167039091DB
:102D4000680382179307F8F48091860490918704B2
:102D5000A0918804B091890480937A0490937B04B5
:102D6000A0937C04B0937D0481E08093AE048089BD
:102D70009189A289B3898093A6049093A704A09314
:102D8000A804B093A9048091AC049091AD0401967D
:102D90009093AD048093AC0460C081E08093AB0459
:102DA0005CC01092AB041092AD041092AC0455C0FC
:102DB000222309F452C037994AC08091AF04882376
:102DC00009F441C0E0917804F09179048081918107
:102DD000A281B381181619061A061B0654F5209114
:102DE000B0043091B1048091670390916803821719
:102DF0009307F8F48091860490918704A091880449
:102E0000B091890480937A0490937B04A0937C040E
:102E1000B0937D0481E08093AE0480899189A2897A
:102E2000B3898093A6049093A704A093A804B093B9
:102E3000A9048091B0049091B10401969093B104DB
:102E40008093B0040AC081E08093AF0406C0109262
:102E5000AF041092B1041092B0048091AA042091A2
:102E60006D0381FF56C0222309F4A8C01D994AC0F2
:102E70008091B204882309F441C0E0917804F09174
:102E8000790484819581A681B781181619061A06DE
:102E90001B0654F52091B3043091B404809167036C
:102EA0009091680382179307F8F480918A049091B7
:102EB0008B04A0918C04B0918D0480937E04909338
:102EC0007F04A0938004B093810481E08093B504D3
:102ED00080899189A289B3898093A6049093A704DD
:102EE000A093A804B093A9048091B3049091B40472
:102EF00001969093B4048093B30460C081E0809302
:102F0000B2045CC01092B2041092B4041092B304E4
:102F100055C0222309F452C002994AC08091B604D8
:102F2000882309F441C0E0917804F0917904848108
:102F30009581A681B781181619061A061B0654F545
:102F40002091B7043091B804809167039091680391
:102F500082179307F8F480918A0490918B04A091D2
:102F60008C04B0918D0480937E0490937F04A09391
:102F70008004B093810481E08093B50480899189B5
:102F8000A289B3898093A6049093A704A093A80470
:102F9000B093A9048091B7049091B80401969093DE
:102FA000B8048093B7040AC081E08093B60406C0D9
:102FB0001092B6041092B8041092B7048091AA043B
:102FC00020916D0382FF61C08FB7F89490910B013F
:102FD0009B7F90930B018FBF8FEF80936B03222316
:102FE00009F4B1C01C994AC08091B904882309F43E
:102FF00041C0E0917804F091790480859185A285A3
:10300000B385181619061A061B0654F52091BA0442
:103010003091BB04809167039091680382179307F6
:10302000F8F480918E0490918F04A0919004B09157
:1030300091048093820490938304A0938404B093BA
:10304000850481E08093BC0480899189A289B38939
:103050008093A6049093A704A093A804B093A90416
:103060008091BA049091BB0401969093BB04809325
:10307000BA0469C081E08093B90465C01092B904B4
:103080001092BB041092BA045EC09FB7F89480916E
:103090000B01846080930B019FBF41E040936B0361
:1030A000222309F450C0019948C08091BD048823AF
:1030B00009F440C0E0917804F0917904808591850D
:1030C000A285B385181619061A061B064CF5209121
:1030D000BE043091BF04809167039091680382170A
:1030E0009307F0F480918E0490918F04A091900446
:1030F000B09191048093820490938304A0938404FC
:10310000B09385044093BC0480899189A289B389D6
:103110008093A6049093A704A093A804B093A90455
:103120008091BE049091BF0401969093BF04809358
:10313000BE0409C04093BD0406C01092BD041092A5
:10314000BF041092BE048091AA0483FF0AC08FB707
:10315000F89490910B01906490930B018FBF8FEFC7
:1031600009C08FB7F89490910B019F7B90930B014E
:103170008FBF81E080936C0360E07EC18091C000CE
:1031800087FF19C04091C600E0914F05F0915005AE
:1031900031969F012F773070319780915105909132
:1031A00052052817390739F0E153FB4F408330931C
:1031B000500520934F05E0917804F0917904208127
:1031C0003181428153818091960490919704A0911E
:1031D0009804B0919904280F391F4A1F5B1F209350
:1031E00096043093970440939804509399041216D0
:1031F0001306140615066CF5409A80899189A289F8
:10320000B389281B390B4A0B5B0B20939604309330
:103210009704409398045093990420918604309128
:10322000870440918804509189048091690399270B
:1032300087FD9095A92FB92F820F931FA41FB51F4B
:103240008093860490938704A0938804B0938904A4
:103250004098E0917804F091790424813581468189
:10326000578180919A0490919B04A0919C04B09105
:103270009D04280F391F4A1F5B1F20939A04309327
:103280009B0440939C0450939D041216130614064D
:1032900015066CF5419A80899189A289B389281B0A
:1032A000390B4A0B5B0B20939A0430939B04409399
:1032B0009C0450939D0420918A0430918B0440918A
:1032C0008C0450918D0480916A03992787FD909515
:1032D000A92FB92F820F931FA41FB51F80938A04B3
:1032E00090938B04A0938C04B0938D044198E0914B
:1032F0007804F09179042085318542855385809149
:103300009E0490919F04A091A004B091A104280F65
:10331000391F4A1F5B1F20939E0430939F044093E4
:10332000A0045093A10412161306140615066CF59A
:10333000429A80899189A289B389281B390B4A0B4B
:103340005B0B20939E0430939F044093A004509302
:10335000A10420918E0430918F04409190045091EB
:10336000910480916B03992787FD9095A92FB92F20
:10337000820F931FA41FB51F80938E0490938F0418
:10338000A0939004B09391044298E0917804F09156
:10339000790424853585468557858091A2049091CE
:1033A000A304A091A404B091A504280F391F4A1FBB
:1033B0005B1F2093A2043093A3044093A404509372
:1033C000A50412161306140615066CF5439A808997
:1033D0009189A289B389281B390B4A0B5B0B209377
:1033E000A2043093A3044093A4045093A504209115
:1033F00092043091930440919404509195048091EB
:103400006C03992787FD9095A92FB92F820F931FE1
:10341000A41FB51F8093920490939304A0939404E7
:10342000B093950443988091A6049091A704A0912D
:10343000A804B091A9040196A11DB11D8093A60412
:103440009093A704A093A804B093A9042091A60484
:103450003091A7044091A8045091A904E091780408
:10346000F091790480899189A289B3892817390755
:103470004A075B0730F46F5F8091C00468170CF453
:103480007DCE2091A6043091A7044091A8045091CC
:10349000A904E0917804F091790484899589A6893A
:1034A000B78982179307A407B50708F4E2C0E09034
:1034B000C104F090C2040091C3041091C404A48C10
:1034C000B58CC68CD78CA8019701C601B501AA2777
:1034D000279FB12D389FE001489FD00D479FC00D19
:1034E000D11D289FB00DC11DDA1F379FB00DC11D22
:1034F000DA1F469FB00DC11DDA1F369FB10DCA1FDE
:10350000DA1FB695CA1FDA1F112484AD95AD8C0F52
:103510009D1F9093C6048093C50420AD31AD42AD8C
:1035200053ADA0E0B0E0281739074A075B0720F445
:103530003093C6042093C5046091C5047091C604FD
:103540008CE96134780718F060E47CE904C09EE4FB
:103550006132790730F0769567957695679584E0C6
:1035600007C0E7E261317E0730F07695679582E02B
:103570008093C00408C081E08093C004603271056C
:1035800010F460E270E060527040F8E060307F0755
:10359000E8F0472F50E0440F551F440F551F4D5A78
:1035A0005E4F9A012E5F3F4FF901859194919C01E6
:1035B000AA27639FC001629F810D9A1F06948A1FEC
:1035C0009A1F1124FA01459154911EC0CB01969582
:1035D00087958C7F8D5A9A4FFC0145915491FC013F
:1035E000329625913491862F90E087709070FC017F
:1035F0002E9FC0012F9F900D3E9F900D112403E040
:10360000969587950A95E1F7481B590B4436510565
:10361000A0F4E0E0F2E007C08091C00085FFFCCF9D
:1036200031969093C60090819923B1F783E595E098
:103630004AE050E0A2D344E650E050938900409322
:1036400088009A0140E050E08091C1049091C2044A
:10365000A091C304B091C404820F931FA41FB51F8F
:103660008093C1049093C204A093C304B093C40494
:1036700001C12091A6043091A7044091A804509163
:10368000A904808D918DA28DB38D82179307A40715
:10369000B50708F0E3C06091C7047091C804809139
:1036A000C9049091CA04248D358D468D578DAA2763
:1036B000639FB12D749FE001849FD00D839FC00D47
:1036C000D11D649FB00DC11DDA1F739FB00DC11DC8
:1036D000DA1F829FB00DC11DDA1F729FB10DCA1F84
:1036E000DA1FB695CA1FDA1F11248091C504909184
:1036F000C6048C179D0738F4E05CFF4F6081718130
:10370000E054F04003C0BC016C1B7D0BE05CFF4F3C
:103710002081318142815381CB01A0E0B0E082174A
:103720009307A407B50708F4B901FCE961347F07E2
:1037300018F060E47CE904C02EE46132720730F0D6
:10374000769567957695679584E007C037E2613195
:10375000730730F07695679582E08093C00408C0C7
:1037600081E08093C0046032710510F460E270E083
:103770006052704048E060307407E8F0472F50E036
:10378000440F551F440F551F4D5A5E4F9A012E5F2F
:103790003F4FF901859194919C01AA27639FC00135
:1037A000629F810D9A1F06948A1F9A1F1124FA01A5
:1037B000459154911EC0CB01969587958C7F8D5A6B
:1037C0009A4FFC0145915491FC0132962591349118
:1037D000862F90E087709070FC012E9FC0012F9F74
:1037E000900D3E9F900D1124E3E096958795EA9504
:1037F000E1F7481B590B44365105A0F4E0E0F2E034
:1038000007C08091C00085FFFCCF31969093C60021
:1038100090819923B1F783E595E04AE050E0ADD27D
:1038200044E650E050938900409388009A0140E0BC
:1038300050E08091C7049091C804A091C904B09150
:10384000CA04820F931FA41FB51F8093C7049093CF
:10385000C804A093C904B093CA040CC08091CB04DF
:103860009091CC0490938900809388008091CD043E
:103870008093C0042091A6043091A7044091A8042D
:103880005091A904E0917804F0917904808991899C
:10389000A289B389281739074A075B0780F010927D
:1038A0007904109278049091FC0C8091FD0C98178B
:1038B00031F08091FD0C8F5F8F708093FD0CFF9134
:1038C000EF91DF91CF91BF91AF919F918F917F91B8
:1038D0006F915F914F913F912F911F910F91FF90A9
:1038E000EF90DF90CF90BF90AF900F900BBE0F90F6
:1038F0000FBE0F901F9018958091AE04882349F455
:103900008091B504882329F48091BC04882309F4AC
:1039100090C0E9E8FBE0949108C08091C00085FF69
:10392000FCCF9093C600319694919923B1F7EFE5BF
:10393000F9E0949108C08091C00085FFFCCF90937E
:10394000C600319694919923B1F78091AE048823F3
:10395000D1F060917A0470917B0480917C04909105
:103960007D040E947A952091CF073091D007409135
:10397000D1075091D2070E94DF94AB01BC018BE5C7
:1039800099E00E94C5438091B5048823D1F06091ED
:103990007E0470917F0480918004909181040E9444
:1039A0007A952091D3073091D4074091D507509153
:1039B000D6070E94DF94AB01BC0187E599E00E9425
:1039C000C5438091BC048823D1F06091820470913A
:1039D000830480918404909185040E947A952091BB
:1039E000D7073091D8074091D9075091DA070E9444
:1039F000DF94AB01BC0183E599E00E94C543E4E19B
:103A0000F2E007C08091C00085FFFCCF3196909313
:103A1000C60090819923B1F78091C00085FFFCCF4B
:103A20008AE08093C6001092AE041092B504109202
:103A3000BC0408951F920F920FB60F920BB60F920F
:103A400011242F933F934F938F939F93EF93FF9363
:103A50004091C600E0914F05F091500531969F01CD
:103A60002F7730703197809151059091520528172A
:103A7000390739F0E153FB4F4083309350052093D1
:103A80004F05FF91EF919F918F914F913F912F9112
:103A90000F900BBE0F900FBE0F901F9018959A01BC
:103AA000AB01203081EE380780E0480780E05807FE
:103AB00049F182E08093C00060E079E08DE390E01E
:103AC0000E94F2982150304040405040CA01B90154
:103AD00022E030E040E050E00E94F2983093C500D0
:103AE0002093C4008091C10080618093C1008091C7
:103AF000C10088608093C1008091C100806880937C
:103B0000C10008951092C00020E130E0E7CF20917D
:103B100051053091520580914F05909150058217C3
:103B2000930719F42FEF3FEF0EC0F901E153FB4F5C
:103B300080812F5F3F4F2F77307030935205209355
:103B40005105282F30E0C9010895809151059091C9
:103B500052059093500580934F05089508952F9234
:103B60003F924F925F926F927F928F929F92AF920D
:103B7000BF92CF92DF92EF92FF920F931F93DF934A
:103B8000CF93CDB7DEB7A0970FB6F894DEBF0FBEC8
:103B9000CDBF1C016A017B0141155105610571050D
:103BA00041F440E350E060E070E020E030E08BD092
:103BB00055C0882499245401422E55246624772424
:103BC00001E010E00C0F1D1F080D191DC701B60103
:103BD000A30192010E94D098F80160830894811C8F
:103BE000911CA11CB11CC701B601A30192010E9446
:103BF000D098C901DA016C017D01C114D104E1043E
:103C0000F104F1F681E0E82EF12CEC0EFD1EE80C3B
:103C1000F91C3E010894611C711CD501C401019777
:103C2000A109B1096C01C818D90815C0F601EE0D3B
:103C3000FF1D40814A3010F4405D01C0495C5527AA
:103C400047FD5095652F752FC10120E030E03BD036
:103C50000894E108F1086E147F0441F7A0960FB6AE
:103C6000F894DEBF0FBECDBFCF91DF911F910F91B2
:103C7000FF90EF90DF90CF90BF90AF909F908F908C
:103C80007F906F905F904F903F902F9008952115F7
:103C9000310539F48091C00085FFFCCF4093C60008
:103CA00008955DCFEF92FF920F931F939A01E62E36
:103CB000FF2400E010E0B801A701E9DF1F910F9198
:103CC000FF90EF900895EF92FF920F931F93CF9381
:103CD000DF93EC017A018B012115310539F48091D4
:103CE000C00085FFFCCFE092C60019C02A30310524
:103CF000A9F477FF0FC04DE250E060E070E020E0F3
:103D000030E0E1DF10950095F094E094E11CF11CA7
:103D1000011D111DCE01B801A7012AE020DFDF91AE
:103D2000CF911F910F91FF90EF900895EF92FF9226
:103D30000F931F937B019A010027F7FC0095102F2A
:103D4000B801A701C0DF1F910F91FF90EF90089578
:103D50000F931F938C014DE050E060E070E020E095
:103D600030E0B1DFC8014AE050E060E070E020E000
:103D700030E0A9DF1F910F910895CF92DF92EF926B
:103D8000FF920F931F938C019A016B01EE24FF2485
:103D9000B701A6017CDFC801DBDF1F910F91FF9007
:103DA000EF90DF90CF9008959F92AF92BF92CF9205
:103DB000DF92EF92FF920F931F93CF93DF93EC016B
:103DC0007A018B01922ECB01BA0120E030E040E075
:103DD00050E00E94D894882364F4CE014DE250E074
:103DE00060E070E020E030E06EDF17FB109517F91F
:103DF000109520E030E040E05FE3AA240BC0CA0148
:103E0000B90120E030E040E251E40E94DF949B01E0
:103E1000AC01A394A91498F3C801B7010E94FF93C1
:103E20007B018C010E944C955B016C010E9478958E
:103E30009B01AC01C801B7010E94FE937B018C017C
:103E4000CE01B601A5012AE030E021DF992099F1E9
:103E5000E5E1F2E007C08091C00085FFFCCF31961C
:103E60009093C60090819923B1F725C0C801B7018E
:103E700020E030E040E251E40E94B8977B018C01E1
:103E80000E9447955B016C01CC24B7FCC094DC2CEC
:103E9000CE01B601A5012AE030E015DFC601B5016B
:103EA0000E947A959B01AC01C801B7010E94FE9364
:103EB0007B018C019A949920C9F6DF91CF911F91D3
:103EC0000F91FF90EF90DF90CF90BF90AF909F90B9
:103ED00008956ACF08952F923F924F925F926F920A
:103EE0007F928F929F92AF92BF92CF92DF92EF928A
:103EF000FF920F931F93DF93CF9300D000D0CDB7E5
:103F0000DEB71C017C836B836A01FA01E080F180DB
:103F100002811381C801B70120E030E040E050E0A9
:103F20000E94E69687FF04C017FB109517F91095BD
:103F3000C101880F991F880F991F9A8389832601D1
:103F40006624772443C0F401A080B180C280D3806E
:103F5000C601B50120E030E040E050E00E94E69666
:103F600088231CF0A601950103C0A60195015058B5
:103F7000C801B7010E94D89488239CF4C601B501FA
:103F800020E030E040E050E00E94E69688231CF0FC
:103F90008601750106C08601750117FB109517F99A
:103FA00010958D819E8101969E838D83E4E0F0E0E3
:103FB0008E0E9F1E8D819E818215930524F208949A
:103FC000611C711CE981FA814E0E5F1E8B819C8100
:103FD0006816790624F442011E821D82EBCFB701D8
:103FE000C80126960FB6F894DEBF0FBECDBFCF91A5
:103FF000DF911F910F91FF90EF90DF90CF90BF90D6
:10400000AF909F908F907F906F905F904F903F9078
:104010002F9008952F923F924F925F926F927F92CE
:104020008F929F92AF92BF92CF92DF92EF92FF92C8
:104030000F931F93DF93CF93CDB7DEB72A970FB6B9
:10404000F894DEBF0FBECDBF98878F834A015B0116
:104050003901181619060CF063C1CB01BA0120E032
:1040600030E040E050E00E94D894882309F458C121
:104070000130110529F421E0C216D10419F460C001
:1040800017FD03C020E030E00DC081E090E04F81DB
:104090005885841B950B089F9001099F300D189F30
:1040A000300D1124D7FC03C060E070E00DC081E04A
:1040B00090E0EF81F8858E1B9F0BC89EB001C99ED2
:1040C000700DD89E700D1124CC0CDD1CCC0CDD1CA9
:1040D0001B01220C331C220C331C2E0C3F1C28010C
:1040E000440C551C440C551C7901EE0CFF1CEE0CC5
:1040F000FF1CE60CF71C00E010E0C501B401F7015D
:1041000020813181428153810E94B8979B01AC018B
:10411000F10160817181828193810E94FF93F1019D
:1041200060837183828393830F5F1F4F2C0C3D1C30
:10413000E40CF51C2F81388502171307F4F2F0C048
:104140000F81188503701070670123012224332426
:104150001CC0C501B401F2012191319141915191ED
:104160002F010E94B8979B01AC01F601608171811B
:10417000828193810E94FF93F601619371938193F1
:1041800091936F010894211C311C201631060CF309
:10419000C801880F991F880F991F1701280E391E13
:1041A0009301280F391F3E832D830F5F1F4FC801D6
:1041B000880F991F880F991F2701480E591EA301C8
:1041C000480F591F5C834B830F5F1F4FC801880F37
:1041D000991F880F991F6701C80ED91EF301E80FB8
:1041E000F91FFA83E9830F5F1F4FC801880F991FDA
:1041F000880F991F035010409701280F391F3A87E5
:1042000029877301E80EF91E85C0C501B401ED814F
:10421000FE8120813181428153810E94B8979B01A8
:10422000AC01F10160817181828193810E94FF93D1
:10423000F1016083718382839383C501B401EB81B3
:10424000FC8120813181428153810E94B8979B017A
:10425000AC01F20160817181828193810E94FF93A0
:10426000F2016083718382839383C501B401E98184
:10427000FA8120813181428153810E94B8979B014C
:10428000AC01F60160817181828193810E94FF936C
:10429000F6016083718382839383C501B401F701C2
:1042A00020813181428153810E94B8979B01AC01EA
:1042B000E985FA8560817181828193810E94FF93F3
:1042C000E985FA8560837183828393830C5F1F4F36
:1042D00020E130E0220E331E4D815E81405F5F4F52
:1042E0005E834D83420E531E8B819C8140969C833E
:1042F0008B83C20ED31EE981FA817096FA83E9831B
:1043000029853A85205F3F4F3A87298740E150E071
:10431000E40EF51E8F819885081719070CF475CFE8
:104320002A960FB6F894DEBF0FBECDBFCF91DF91B6
:104330001F910F91FF90EF90DF90CF90BF90AF90C3
:104340009F908F907F906F905F904F903F902F90B5
:1043500008952F923F924F925F926F927F928F9229
:104360009F92AF92BF92CF92DF92EF92FF920F9304
:104370001F93DF93CF93CDB7DEB72E970FB6F89488
:10438000DEBF0FBECDBF9E878D874B013901F8017F
:10439000181619065CF00F2EF0E0CF2EF0E0DF2E9D
:1043A000F0E0EF2EF0E0FF2EF02D93C141305105EB
:1043B00021F40130110519F469C057FD03C060E014
:1043C00070E00DC081E090E02D853E85821B930B4F
:1043D000489FB001499F700D589F700D1124F7FD43
:1043E00003C020E030E00DC081E090E0AD85BE85E7
:1043F0008A1B9B0BE89F9001E99F300DF89F300DC1
:1044000011242A01440C551C440C551C8B01000F2F
:10441000111F000F111F080D191D4F01880C991C49
:10442000880C991C1901220C331C220C331C260CFD
:10443000371C0F2EF0E0CF2EF0E0DF2EF0E0EF2E55
:10444000F0E0FF2EF02DAA24BB24F80160817181D9
:1044500082819381D1012D913D914D915C910E947A
:10446000B8979B01AC01C701B6010E94FF936B0195
:104470007C010894A11CB11C040D151D280C391CCD
:10448000ED85FE85AE16BF0604F323C18D859E859E
:1044900065E070E00E94BD988C010F2EF0E0CF2EF9
:1044A000F0E0DF2EF0E0EF2EF0E0FF2EF02DAA245A
:1044B000BB24442455241FC0F401E40DF51DD30191
:1044C000A40DB51D60817181828193812D913D91F3
:1044D0004D915C910E94B8979B01AC01C701B60158
:1044E0000E94FF936B017C010894A11CB11C24E085
:1044F00030E0420E531EA016B106F4F2C801880F38
:10450000991F880F991FD401A80FB91FBC87AB87CB
:10451000F301E80FF91FFA87E9870F5F1F4FC80102
:10452000880F991F880F991F9401280F391F38870A
:104530002F83D301A80FB91FBE83AD830F5F1F4F19
:10454000C801880F991F880F991FF401E80FF91F00
:10455000FC83EB839301280F391F3A8329830F5F74
:104560001F4FC801880F991F880F991F1401280E2B
:10457000391E2301480E591E0F5F1F4FC801880FB7
:10458000991F880F991F04501040880E991E5301DF
:10459000A80EB91E380197C0AB85BC856D917D9181
:1045A0008D919C91E985FA852081318142815381E9
:1045B0000E94B8979B01AC01C701B6010E94FF930E
:1045C0007B018C01AF81B8856D917D918D919C911E
:1045D000ED81FE8120813181428153810E94B89713
:1045E0009B01AC01C801B7010E94FF937B018C01C4
:1045F000AB81BC816D917D918D919C91E981FA8116
:1046000020813181428153810E94B8979B01AC0186
:10461000C801B7010E94FF937B018C01D1016D910C
:104620007D918D919C91F201208131814281538154
:104630000E94B8979B01AC01C801B7010E94FF938B
:104640007B018C01D4016D917D918D919C91F5013F
:1046500020813181428153810E94B8979B01AC0136
:10466000C801B7010E94FF936B017C0125E030E097
:10467000620E731E8B859C8544969C878B87A985CB
:10468000BA855496BA87A987EF81F8857496F8871A
:10469000EF832D813E812C5E3F4F3E832D838B81A6
:1046A0009C8144969C838B83A981BA815496BA835A
:1046B000A983E4E1F0E02E0E3F1E4E0E5F1E8E0E2B
:1046C0009F1EAE0EBF1E2D853E85621673060CF42E
:1046D00063CFB601C7012E960FB6F894DEBF0FBEAA
:1046E000CDBFCF91DF911F910F91FF90EF90DF90A1
:1046F000CF90BF90AF909F908F907F906F905F9082
:104700004F903F902F9008952F923F924F925F923B
:104710006F927F928F929F92AF92BF92CF92DF92D1
:10472000EF92FF920F931F93DF93CF93CDB7DEB736
:10473000EC970FB6F894DEBF0FBECDBF9CA78BA73A
:104740007EA76DA758AB4FA73AAB29AB1CAB0BAB01
:1047500037017601BEAAADAA98AE8FAA6896EEADD3
:10476000FFAD689700E010E0CF01815F984D8F5159
:104770009E4410F001E010E0CF0160E177E20E947A
:10478000BD989AAF89AF892B21F061E070E07AAFD4
:1047900069AF1AA619A6CF0168EE73E00E94BD9812
:1047A0008D599F4F873C910520F081E090E09AA7BA
:1047B00089A718A61FA2CF0164E670E00E94BD98E9
:1047C0000996439720F0A1E0B0E0B8A7AFA3CF01CE
:1047D0006AE070E00E94BD989CAF8BAF892B21F0FE
:1047E000E1E0F0E0FCAFEBAF8FA598A9019729A914
:1047F0003AA93A8329838217930714F49A83898309
:1048000069817A81672B09F068C0012B51F0F301AF
:1048100080819181A281B381F70180839183A283FA
:10482000B38329AD3AAD232B59F0F30180819181F7
:10483000A281B381EDA9FEA980839183A283B38372
:104840002BAD3CAD232B69F0F30180819181A281D6
:10485000B3816696EEADFFAD669780839183A283A8
:10486000B38329A53AA5232B21F1ABA5BCA5ED90D7
:10487000FD900D911C91C801B70120E030E040E0AF
:1048800050E00E94D894882329F4E1E0F0E0FEA3F0
:10489000EDA311C0D3016D917D918D919C91A801E3
:1048A00097010E94DF94EFA9F8AD60837183828342
:1048B00093831EA21DA22FA138A5232B09F4F9C3AF
:1048C00080E090E0A0E0B0E06496EEADFFAD6497CC
:1048D00080839183A283B383ECC301151105E9F0B2
:1048E00061E070E040E050E013C09701240F351FF5
:1048F000F301E40FF51F80819181A281B381F90159
:1049000080839183A283B3836F5F7F4F4C5F5F4F40
:104910002FA538A92617370744F769AD7AAD672B5D
:10492000F1F061E070E040E050E014C02DA93EA934
:10493000240F351FF301E40FF51F80819181A281BF
:10494000B381F90180839183A283B3836F5F7F4F2B
:104950004C5F5F4F2FA538A9261737073CF7012B6F
:1049600009F4C7C021E030E069817A81261B370B4A
:10497000A901440F551F440F551F509541955F4F96
:104980008BA99CA9840F951F9C8B8B8BADA5BEA575
:10499000A095B095AA0FBB1FAA0FBB1FBA8BA98BFE
:1049A000615070408DA59EA50196689F2001699F6A
:1049B000500C789F500C1124440C551C440C551C71
:1049C000EBA5FCA54E0E5F1EAFA5B8A91196B8AB1E
:1049D000AFA7E981FA81AE1BBF0BB88BAF87AFA53C
:1049E000B8A91197B8ABAFA7880F991F880F991F67
:1049F000EE27FF27E81BF90BFE87ED878DA59EA507
:104A0000689F3001699F700C789F700C1124621AA6
:104A1000730A660C771C660C771CABA5BCA56A0EE6
:104A20007B1E1701240E351EE1E0F0E0FAA3E9A396
:104A300058C0AB89BC89ED90FD900D911C91C801C7
:104A4000B70120E030E040E050E00E94D894882395
:104A500061F1F20180809180A280B380D201ED9259
:104A6000FD920D931C9313978F859889B30141E0B4
:104A700050E0910101E010E06CDC9058F2012081DF
:104A80003181428153810E94DF94AB01BC018F854B
:104A9000988993017101E1E0CE2ED12CBBDAD201CD
:104AA0008D929D92AD92BC921397E9A1FAA1319695
:104AB000FAA3E9A32B893C89245030403C8B2B8BF3
:104AC00069897A89460E571E8F8598890196988B39
:104AD0008F87AD85BE856A0E7B1EECEFFFEF2E0E35
:104AE0003F1E29A13AA169817A81621773070CF0F0
:104AF000A0CF89AD9AAD892B09F489C0ADA5BEA51B
:104B00001196BEA7ADA7AA0FBB1FAA0FBB1FBE8BD6
:104B1000AD8BEDA5FEA53197FEA7EDA72BA43CA478
:104B20004FA458A8CF0180959095880F991F880FA2
:104B3000991F22273327281B390B3C832B833101F4
:104B400061E070E07CA36BA3188E1F8A58C0EBA9AC
:104B5000FCA98F89988DE80FF91FE080F180028110
:104B60001381C801B70120E030E040E050E00E942E
:104B7000D894882369F1D1018D909D90AD90BC901F
:104B8000F101E082F18202831383EDA8FEA82F8950
:104B9000388DE20EF31EC201B30141E050E09701EF
:104BA00001E010E0D6DB9058D1012D913D914D915F
:104BB0005C910E94DF94AB01BC01C2019301E1E072
:104BC000CE2ED12C27DAF10180829182A282B3828B
:104BD0002BA13CA12F5F3F4F3CA32BA36F89788D66
:104BE0006C5F7F4F788F6F8B8D899E89280E391E61
:104BF000089441085108AB81BC816A0E7B1EEBA171
:104C0000FCA129813A812E173F070CF0A0CF69A59E
:104C10007AA5672BF9F061E070E040E050E015C044
:104C20002FA938AD240F351FEDA9FEA9E40FF51FFC
:104C300080819181A281B381F90180839183A283D4
:104C4000B3836F5F7F4F4C5F5F4F29A93AA9261747
:104C5000370734F76BAD7CAD672B09F161E070E08D
:104C600040E050E017C066962EAD3FAD6697240F2A
:104C7000351FEDA9FEA9E40FF51F80819181A28166
:104C8000B381F90180839183A283B3836F5F7F4FE8
:104C90004C5F5F4F29A93AA92617370724F76FA160
:104CA00078A5672B41F189A99AA9AFA5B8A98A1758
:104CB0009B070CF59C01880F991F880F991F4DA920
:104CC0005EA9480F591F6496EEADFFAD6497E80FDB
:104CD000F91F0AC0DA01ED90FD900D911D91AD0113
:104CE000E192F192019311932F5F3F4F6FA578A945
:104CF000621773077CF78BAD9CAD892B11F1A9A9C5
:104D0000BAA9EFA5F8A9AE17BF07DCF4CD01FD01E4
:104D1000EE0FFF1FEE0FFF1F66962EAD3FAD66979D
:104D2000E20FF31F20E030E040E050E004C02193A8
:104D300031934193519301966FA578A9681779072C
:104D4000B4F78FA198A5892BA9F06496EEADFFADBD
:104D5000649781E090E020E030E040E050E005C062
:104D600021933193419351930196A9A9BAA9A81708
:104D7000B907B4F7E9A5FAA5EF2B09F49EC069A815
:104D80007AA8089461087108660C771C660C771C79
:104D90002FA938AD620E731E8DA59EA5880F991F91
:104DA000880F991F66277727681B790B7A8F698F81
:104DB00089A99AA90197ADA5BEA58A9F40018B9F9D
:104DC000900C9A9F900C1124880C991C880C991CAB
:104DD000EBA5FCA58E0E9F1EA095B095AA0FBB1F3C
:104DE000AA0FBB1FBE83AD832DA53EA52F5F3F4FEE
:104DF000829F5001839FB00C929FB00C11242150D0
:104E000030403EA72DA7AA0CBB1CAA0CBB1CAE0EA3
:104E1000BF1E29A83AA8F1E04F2E512C48C0C9A8BE
:104E2000DAA8C418D508D501ED90FD900D911C911C
:104E3000C801B70120E030E040E050E00E94D89483
:104E4000882319F43EA22DA23AC0F301608171813A
:104E500082819381A80197010E94DF94D3016D9311
:104E60007D938D939C931397B1E02B16310469F0D9
:104E7000AB01BC017058C601940101E010E0EFA83D
:104E8000F8ACE1E0CE2ED12CC5D80894411C511CC1
:104E9000ECEFFFEF6E0E7F1E089421083108298D7C
:104EA0003A8D820E931E6D817E81A60EB71E89A952
:104EB0009AA9841595050CF0B2CF1EA21DA2AFA130
:104EC000B8A5AB2B09F466C041E050E0E981FA8156
:104ED0004E1B5F0B9A01220F331F220F331F309599
:104EE00021953F4F6BA97CA9620F731F78A36F8F29
:104EF0008DA59EA580959095880F991F880F991F65
:104F00009E8F8D8FBF01615070408DA59EA501962B
:104F1000689F3001699F700C789F700C1124660C9B
:104F2000771C660C771CABA5BCA56A0E7B1E8FA4F4
:104F300098A80894811C911C8E1A9F0A880F991FAB
:104F4000880F991FEE27FF27E81BF90BFC8FEB8FCB
:104F50008DA59EA5689F5001699FB00C789FB00CED
:104F60001124A41AB50AAA0CBB1CAA0CBB1CAA0EBD
:104F7000BB1E66962EAC3FAC6697220E331E64961F
:104F80004EAC5FAC6497420E531EA1E0B0E0BC870C
:104F9000AB8787C0EBADFCADEF2B09F095CF89C097
:104FA000AF8DB8A1ED90FD900D911C91C801B70196
:104FB00020E030E040E050E00E94D894882309F4DB
:104FC00054C0D3016D917D918D919C916F837887B1
:104FD00089879A87F301E082F182028313832FA1EC
:104FE00038A5232BD1F0C401B50141E050E0920176
:104FF00001E010E0AED99058D3012D913D914D9133
:105000005C910E94DF94AB01BC01C4019501720167
:10501000F1E0CF2ED12C0E940A20EBADFCADEF2B9E
:10502000D1F0C401B50141E050E0910101E010E090
:1050300090D99058D3012D913D914D915C910E9452
:10504000DF94AB01BC01C40195017101E1E0CE2EFA
:10505000D12C0E940A206F81788589859A85D30199
:105060006D937D938D939C931397EB85FC8531967F
:10507000FC87EB872F8D38A12450304038A32F8F29
:105080006D8D7E8D660E771E0894811C911C8B8D14
:105090009C8DA80EB91EACEFBFEF2A0E3B1E4A0E28
:1050A0005B1EEB85FC8529813A812E173F070CF0AA
:1050B00077CF8DA19EA1EC960FB6F894DEBF0FBE00
:1050C000CDBFCF91DF911F910F91FF90EF90DF90B7
:1050D000CF90BF90AF909F908F907F906F905F9098
:1050E0004F903F902F9008952F923F924F925F9252
:1050F0006F927F928F929F92AF92BF92CF92DF92E8
:10510000EF92FF920F931F93DF93CF9300D00F92F4
:10511000CDB7DEB79C838B833A8329833801260180
:1051200014010115110509F100D000D0EDB7FEB74B
:105130003196ADB7BEB71296BC92AE921197B382BC
:10514000A2828EE690E0958384838B819C81980176
:105150000A8D1B8D65014201D7DAEDB7FEB7369691
:105160000FB6F894FEBF0FBEEDBF6101F10120E064
:1051700030E009C080819181909581959F4F819306
:1051800091932F5F3F4F89819A812817390794F3B4
:10519000F301EE0FFF1FEE0FFF1FE40DF51D83015E
:1051A00080E090E0A0E0B0E006C081939193A193ED
:1051B000B1930F5F1F4F29813A8102171307ACF398
:1051C000720101E010E0F1E0AF2EB12C46C0D60133
:1051D0008D919C91119718161906ACF1222733274F
:1051E000281B390B2D933C932BC0F7014081518133
:1051F00062817381C501821B930B9C01880F991FEB
:10520000880F991FF201E81BF90B60807180828082
:105210009380D7016D927D928D929C9213974083DB
:10522000518362837383220F331FF101E21BF30B5F
:105230008081918122273327281B390B31832083DA
:105240002017310791F60F5F1F4FE2E0F0E0CE0E1E
:10525000DF1E24E030E0E20EF31E89819A81801780
:1052600091070CF0B4CF0F900F900F900F90CF914B
:10527000DF911F910F91FF90EF90DF90CF90BF9043
:10528000AF909F908F907F906F905F904F903F90E6
:105290002F9008952F923F924F925F926F927F923C
:1052A0008F929F92AF92BF92CF92DF92EF92FF9236
:1052B0000F931F93DF93CF9300D00F92CDB7DEB73C
:1052C0009A8389833A014B012901181619060CF0BB
:1052D000EAC00130110509F0AFC065E070E00E943E
:1052E000BD988C017901CC24DD2412C0F7016081C6
:1052F000718182819381A40193010E94B897F70183
:1053000061937193819391937F010894C11CD11C87
:10531000C016D1065CF31801220C331C220C331C7E
:10532000240C351C58010894A11CB11CAA0CBB1CF0
:10533000AA0CBB1CA40CB51C42E0C42ED12CC00E80
:10534000D11ECC0CDD1CCC0CDD1CC40CD51C23E008
:10535000E22EF12CE00EF11EEE0CFF1CEE0CFF1CF9
:10536000E40CF51C98012C5F3F4F220F331F220FD6
:10537000331F240D351D3C832B8357C0F101608101
:10538000718182819381A40193010E94B897F101F8
:105390006083718382839383F5016081718182814F
:1053A0009381A40193010E94B897F50160837183F2
:1053B00082839383F6016081718182819381A4014C
:1053C00093010E94B897F60160837183828393836F
:1053D000F7016081718182819381A40193010E9410
:1053E000B897F7016083718382839383EB81FC819B
:1053F0006081718182819381A40193010E94B89799
:10540000EB81FC8160837183828393830B5F1F4FE9
:1054100024E130E0220E331EA20EB31EC20ED31EB4
:10542000E20EF31E7496FC83EB8389819A81081740
:1054300019070CF4A3CF37C017FD03C060E070E07C
:105440000DC081E090E0E981FA818E1B9F0B089FDF
:10545000B001099F700D189F700D11247801EE0C9A
:10546000FF1CEE0CFF1C6B01CC0CDD1CCC0CDD1CFE
:10547000C40CD51C00E010E0F601608171818281CE
:105480009381A40193010E94B897F6016083718310
:10549000828393830F5F1F4FCE0CDF1C29813A81DB
:1054A000021713074CF30F900F900F900F90CF91AE
:1054B000DF911F910F91FF90EF90DF90CF90BF9001
:1054C000AF909F908F907F906F905F904F903F90A4
:1054D0002F9008954F925F926F927F928F929F923A
:1054E000AF92BF92CF92DF92EF92FF920F931F93F2
:1054F000CF93DF932C014B013901181619060CF0DC
:10550000F2C04130510509F09CC00130110509F08D
:105510009AC063E070E00E94BD98BC018401E9017B
:10552000E0E0F0E014C0D8012D913D914D915C91E7
:105530001397C880D980EA80FB80CD92DD92ED92EE
:10554000FD928D0129933993499359933196E6172A
:10555000F7074CF3CB01880F991F880F991F54014F
:10556000A80EB91E6301C80ED91E6F5F7F4FCB0115
:10557000880F991F880F991F7401E80EF91E830187
:10558000080F191F6F5F7F4FCB01880F991F880F7E
:10559000991F62507040E401C80FD91FF301E80F52
:1055A000F91F4AC0D5012D913D914D915C91D601D5
:1055B0006D907D908D909C90D5016D927D928D9295
:1055C0009C921397D6012D933D934D935C93139723
:1055D000D7012D913D914D915C91D8016D907D90B9
:1055E0008D909C90D7016D927D928D929C92139795
:1055F000D8012D933D934D935C9313972881398166
:105600004A815B8180819181A281B3818883998362
:10561000AA83BB8320833183428353836D5F7F4F93
:105620008CE090E0A80EB91EC80ED91EE80EF91E37
:10563000045F1F4F2C963C96641575050CF4B2CF91
:1056400052C057FD03C020E030E00BC081E090E085
:1056500084199509489F9001499F300D589F300D3E
:10566000112417FD03C060E070E00BC081E090E002
:1056700084199509089FB001099F700D189F700D3E
:1056800011247A01EE0CFF1CEE0CFF1CE901CC0F7B
:10569000DD1FCC0FDD1FC80DD91D000F111F000F1E
:1056A000111FFB01EE0FFF1FEE0FFF1FE60DF71D91
:1056B00060E070E0288139814A815B81808191813D
:1056C000A281B38188839983AA83BB83208331839A
:1056D000428353836F5F7F4FCE0DDF1DE00FF11FBD
:1056E000641575053CF3DF91CF911F910F91FF90E9
:1056F000EF90DF90CF90BF90AF909F908F907F9072
:105700006F905F904F9008952F923F924F925F92CB
:105710006F927F928F929F92AF92BF92CF92DF92C1
:10572000EF92FF920F931F93CF93DF937C015B0166
:105730004A016E9DC0016F9D900D7E9D900D1124BC
:10574000880F991F880F991F0E94EB0A792E482F06
:10575000592F682E6701CC0CDD1CCC0CDD1CE0E061
:10576000F0E060E070E012C0D8012D903D904D90C7
:105770005D908D0129923992499259922F5F3F4F46
:105780002E153F058CF331966C0D7D1DEA15FB053A
:105790004CF48401060F171FEA01C60FD71F20E043
:1057A00030E0EECFC301DF91CF911F910F91FF90B9
:1057B000EF90DF90CF90BF90AF909F908F907F90B1
:1057C0006F905F904F903F902F9008952F923F924F
:1057D0004F925F926F927F928F929F92AF92BF9201
:1057E000CF92DF92EF92FF920F931F93DF93CF93AD
:1057F00000D00F92CDB7DEB71C01FB0118161906B9
:105800000CF0A8C0141615060CF0A4C081E02816F0
:10581000310499F4E080F18002811381C801B7015D
:1058200020E030E040E050E00E94E69687FF9CC018
:1058300017FB109517F9109597C0DA01AA0FBB1F37
:10584000AA0FBB1FBA83A9832B011C821B820F2EB8
:10585000F0E0EF2EF0E0FF2EF0E00F2FF0E01F2F32
:10586000F02D0F2EF0E06F2EF0E07F2EF0E88F2E5F
:10587000FFE39F2EF02DF201A080B180C280D38083
:10588000C601B50120E030E040E050E00E94D8942D
:10589000882309F445C0C601B50120E030E040E0AE
:1058A00050E00E94E69687FF04C0D7FAD094D7F85C
:1058B000D094C801B701A60195010E94D89488230D
:1058C000ECF4C801B701A60195010E94DF947B01A9
:1058D0008C01C401B301A80197010E94B897A801E7
:1058E00097010E94B89720E030E040E85FE30E9413
:1058F000FF933B014C018601750112C0C601B50141
:10590000A80197010E94DF949B01AC010E94B89707
:105910009B01AC01C401B3010E94FF933B014C0108
:105920008B819C8101969C838B83A981BA814A0ECD
:105930005B1E821593050CF49ECFC401B3010E9437
:1059400025989B01AC01C801B7010E94B8977B0163
:105950008C010AC00F2EF0E0EF2EF0E0FF2EF0E0F9
:105960000F2FF0E01F2FF02DB701C8010F900F90FF
:105970000F900F90CF91DF911F910F91FF90EF90BB
:10598000DF90CF90BF90AF909F908F907F906F905F
:105990005F904F903F902F9008952F923F924F929B
:1059A0005F926F927F928F929F92AF92BF92CF92AF
:1059B000DF92EF92FF920F931F93DF93CF93CDB7B8
:1059C000DEB7C254D0400FB6F894DEBF0FBECDBFD5
:1059D00098AB8FA77AAB69AB5CAB4BAB3EAB2DAB57
:1059E00018AF0FABFAAEE9AEDCAECBAEAB2831F4FC
:1059F00031E0432E512C22243324E7C0E9ACFAAC29
:105A0000AFA4B8A821E0622E712C91E0492E512C50
:105A1000CC24CA94DC2C81E0882E912C52C0D70172
:105A20008D919C91119797FF03C0CD92DC9203C09A
:105A3000F7017182608218161906ACF564147504BA
:105A4000F9F008944108510829A93AA9429EB001E9
:105A5000439E700D529E700D11240894411C511CE0
:105A6000660F771F660F771F4FA558A9640F751F24
:105A70008BA99CA941E050E0950101E010E02ADDEE
:105A8000F201E819F909EE0FFF1F89AD9AADE80F91
:105A9000F91F80819181D7018D939C9371826082DF
:105AA0000894411C511C0894611C711CE2E0F0E058
:105AB000EE0EFF1E24E030E0A20EB31E0894C108D3
:105AC000D1084DA95EA9461557050CF0A8CF4A018B
:105AD000089481089108880C991C89AD9AAD880EAC
