:100000000C94BE1D0C94EB1D0C94EB1D0C94EB1D7D
:100010000C94EB1D0C94EB1D0C94EB1D0C94EB1D40
:100020000C94EB1D0C94EB1D0C94EB1D0C94EB1D30
:100030000C94EB1D0C9498F10C94EB1D0C94EB1D9F
:100040000C94EB1D0C9453260C94EB1D0C94EB1D9F
:100050000C94EB1D0C94EB1D0C9422B50C94EFED5D
:100060000C94EB1D0C94872D0C94EB1D0C94EB1D44
:100070000C94EB1D0C94EB1D0C94EB1D0C94EB1DE0
:100080000C94EB1D0C94EB1D0C94EB1D0C94EB1DD0
:100090000C94EB1D0C94EB1D0C94EB1D0C9445E69D
:1000A0000C94EB1D0C94EB1D0C94EB1D0C94EB1DB0
:1000B0000C94EB1D0C94EB1D0C94EB1D0C94EB1DA0
:1000C0000C94EB1D0C94EB1D0C94EB1D0C94EB1D90
:1000D0000C94EB1D0C94EB1D0C94EB1D0C94EB1D80
:1000E0000C94EB1D084AD73B3BCE016E84BCBFFD90
:1000F000C12F3D6C74319ABD56833DDA3D00C77FF8
:1001000011BED9E4BB4C3E916BAAAABE0000008090
:100110003F05A84CCDB2D44EB93836A9020C50B91F
:10012000918688083CA6AAAA2ABE000000803F4506
:10013000313A200045303A20005A3A2000593A20FE
:1001400000583A20004D53312C4D53322050696EE7
:10015000730A0024F404D9201BC40C5C0E9804C458
:10016000095F0265077101F405F900FB04B300485B
:10017000048700C10369005803550003034500BE0E
:10018000023A008402310053022A002902250004A9
:10019000022000E4011C00C8011900AF01170098FB
:1001A000011400840113007101100061011000515D
:1001B000010E0043010D0036010B002B010B002046
:1001C000010B00150109000C01090003010800FBE7
:1001D000000800F3000800EB000700E4000600DE62
:1001E000000600D8000600D2000600CC000500C7BB
:1001F000000500C2000500BD000400B9000400B500
:10020000000400B1000400AD000400A9000400A532
:10021000000300A20003009F0004009B000300985D
:100220000003009500020093000300900003008D7E
:100230000002008B00030088000200860002008498
:10024000000300810002007F0002007D0002007BAD
:1002500000020079000200770001007600020074BD
:1002600000020072000100710002006F0002006DC8
:100270000001006C0002006A0001006900020067D2
:1002800000010066000100650001006400020062D8
:1002900000010061000100600001005F0002005DDC
:1002A0000001005C0001005B0001005A00010059E0
:1002B00000010058000100570001005600010055E0
:1002C00000010054000100530000005300010052DF
:1002D00000010051000100500001004F0001004EDC
:1002E0000000004E0001004D0001004C0001004BD9
:1002F0000000004B0001004A0001004900010048D5
:1003000000000048000100470001004600000046D0
:1003100000010045000000450001004400010043C9
:1003200000000043000100420000004200010041C3
:1003300000000041000100400001003F0000003FBC
:100340000001003E0000003E0001003D0000003DB5
:100350000001003C0000003C0000003C0001003BAC
:100360000000003B0001003A0000003A00010039A3
:10037000000000390001003800000038000000389B
:100380000001003700000037000100360000003691
:100390000000003600010035000000350000003587
:1003A000000100340000003400000034000100337C
:1003B0000000003300000033000100320000003272
:1003C0000000003200010031000000310000003167
:1003D0000001003000000030000000300001002F5C
:1003E0000000002F0000002F0000002F0001002E51
:1003F0000000002E0000002E0001002D0000002D46
:100400000000002D0000002D0001002C0000002C39
:100410000000002C0000002C0001002B0000002B2D
:100420000000002B0000002B0001002A0000002A21
:100430000000002A0000002A000100290000002915
:100440000000002900000029000000290001002808
:1004500000000028000000280000002800000028FC
:1004600000010027000000270000002700000027EF
:1004700000000027000100260000002600000026E2
:1004800000000026000000260001002500000025D5
:1004900000000025000000250000002500000025C8
:1004A00000010024000000240000002400000024BB
:1004B00000000024000100230000002300000023AE
:1004C00000000023000000230000002300000023A0
:1004D0000001002200000022000000220000002293
:1004E0000000002200000022000100210000002185
:1004F0000000002100000021000000210000002178
:100500000000002100010020000000200000002069
:10051000000000200000002000000020000000205B
:10052000000000200001001F0000001F0000001F4D
:100530000000001F0000001F0000001F0000001F3F
:100540000001001E0000001E0000001E0000001E32
:1005500000000024F4D43050C38E20C2A240178281
:100560008B7011127A910D816CD90AA861E108C7CC
:10057000586607615143061E4B5D05C145A7041A25
:10058000411104093D9803713931034036DB02659E
:10059000339102D4305402802E1D02632CEE01757B
:1005A0002AC501B028A001102781018F2564012BE5
:1005B000244B01E0223401AC211F018D200D01806C
:1005C0001FFC00841EED00971DDF00B81CD200E662
:1005D0001BC600201BBC00641AB200B219A8000A96
:1005E00019A0006A189900D117910040178B00B527
:1005F00016840031167E00B31579003A157300C7D2
:10060000146F0058146A00EE136600881363002507
:10061000135E00C7125B006C12570015125400C124
:1006200011510070114F0021114B00D61049008D5F
:100630001047004610440002104200C00F400080E6
:100640000F3E00420F3C00060F3B00CB0E380093DC
:100650000E37005C0E3500270E3400F30D3200C15A
:100660000D3100900D3000600D2E00320D2D000573
:100670000D2C00D90C2B00AE0C2900850C29005C38
:100680000C2700350C27000E0C2600E80B2400C4B4
:100690000B2400A00B23007D0B23005A0B210039F3
:1006A0000B2100180B2000F80A1F00D90A1E00BBFE
:1006B0000A1E009D0A1D00800A1D00630A1C0047D7
:1006C0000A1B002C0A1B00110A1A00F7091A00DD88
:1006D000091900C4091900AB091900920917007B18
:1006E000091800630917004C091600360916002086
:1006F0000916000A091500F5081500E0081400CCD9
:10070000081400B8081400A4081400900813007D11
:100710000812006B08130058081200460812003433
:10072000081100230811001208110001081100F03F
:10073000071000E0071000D0071000C0071000B03D
:10074000070F00A107100091070E0083070F007428
:10075000070F0065070E0057070E0049070E003B04
:10076000070D002E070E0020070D0013070D0006D1
:10077000070D00F9060C00ED060D00E0060C00D494
:10078000060C00C8060C00BC060C00B0060C00A449
:10079000060B0099060C008D060B0082060B0077F5
:1007A000060B006C060B0061060A0057060B004C96
:1007B000060A0042060A0038060A002E060A00242D
:1007C000060A001A060A001006090007060A00FDBC
:1007D000050900F4050900EB050900E2050900D947
:1007E000050900D0050900C7050900BE050900B5C7
:1007F000050800AD050800A50509009C0508009442
:100800000508008C050800840508007C05080074B4
:100810000508006C050700650508005D0507005622
:100820000508004E05070047050700400508003889
:10083000050700310507002A050700230507001CEE
:10084000050600160507000F05070008050600024B
:10085000050700FB040600F5040700EE040600E8A7
:10086000040600E2040700DB040600D5040600CFFE
:10087000040600C9040600C3040600BD040600B750
:10088000040600B1040500AC040600A6040600A09E
:100890000405009B04060095040500900406008AE8
:1008A00004050085040500800406007A040500752F
:1008B000040500700405006B040500660405006172
:1008C0000405005C04050057040500520405004DB2
:1008D00004050048040500430405003E0404003AF2
:1008E00004050035040500300404002C040500272D
:1008F000040400230405001E0404001A0404001666
:10090000040500110404000D04040009040500049A
:1009100004040000040400FC030400F8030400F4D1
:10092000030400F0030400EC030400E8030400E403
:10093000030400E0030400DC030400D8030400D433
:10094000030400D0030400CC030400C8030300C563
:100950000303006563686F3A00656E6473746F70BB
:1009600073206869743A205A00205A3A00656E6410
:1009700073746F7073206869743A20590020593A73
:1009800000656E6473746F7073206869743A2058E0
:100990000020583A00656E6473746F707320686944
:1009A000743A200000060900FE06018902FE20FFBD
:1009B000FE07FE06FE00000006000701060606020E
:1009C00000808080800080030303060103A0A0A0B4
:1009D0000507070600FF5050F850F8505005090968
:1009E0000600FE2070A8A07028A87020060808063F
:1009F00000FF40A84810204854080507070600FFDC
:100A000060909060989068010303060203808080E4
:100A10000207070602FF40808080808040020707AF
:100A20000602FF804040404040800505050600006A
:100A30008850F850880505050600002020F8202081
:100A40000204040602FEC0404080050101060002C7
:100A5000F8020202060200C0C004060606010010E9
:100A6000102040808004060606010060909090905F
:100A70006003060606010040C0404040E004060650
:100A80000601006090102040F0040606060100F008
:100A900020601010E005060606000010305090F8A7
:100AA00010040606060100F080E01010E0040606BF
:100AB0000601006080E0909060040606060100F0E8
:100AC00010102040400406060601006090609090DF
:100AD0006004060606010060909070106002050533
:100AE000060200C0C000C0C00207070602FEC0C068
:100AF00000C04040800505050600001860806018B1
:100B0000050303060001F800F8050505060000C00E
:100B1000300830C0040707060100609010604000F4
:100B2000400506060600007090A8B0807005060615
:100B3000060000205088F88888050606060000F0A8
:100B400088F08888F0040606060100609080809096
:100B500060040606060100E090909090E00406060E
:100B6000060100F080E08080F0040606060100F037
:100B700080E0808080040606060100609080B090CE
:100B8000600406060601009090F09090900306061F
:100B9000060100E040404040E0050606060000383F
:100BA000101010906004060606010090A0C0A090EE
:100BB000900406060601008080808080F00506060D
:100BC00006000088D8A8A8888804060606010090B8
:100BD000D0B090909005060606000070888888883E
:100BE00070040606060100E09090E080800407078C
:100BF0000601FF609090D0B0601004060606010068
:100C0000E09090E09090040606060100609040207D
:100C10009060050606060000F8202020202004062B
:100C20000606010090909090906004060606010070
:100C3000909090F060600506060600008888A8A8DD
:100C4000D888050606060000885020205088050632
:100C500006060000888850202020040606060100B1
:100C6000F010204080F0030606060100E08080803E
:100C700080E0040606060100808040201010030674
:100C800006060100E020202020E005030306000303
:100C90002050880501010600FEF802020206020447
:100CA000804004040406010070909070040606065B
:100CB00001008080E09090E0040404060100708050
:100CC00080700406060601001010709090700404F5
:100CD0000406010060B0C070040606060100205042
:100CE00040E040400406060601FE609090701060EF
:100CF0000406060601008080E09090900306060638
:100D000001004000C04040E00308080601FE20004A
:100D100060202020A0400406060601008080A0C0BC
:100D2000A090030606060100C040404040E00504D4
:100D300004060000D0A8A888040404060100E0907E
:100D4000909004040406010060909060040606067A
:100D500001FEE09090E080800406060601FE70909F
:100D600090701010040404060100A0D080800404D8
:100D70000406010070C030E0040606060100404091
:100D8000E040502004040406010090909070040498
:100D9000040601009090606005040406000088A825
:100DA000A850040404060100906060900406060642
:100DB00001FE909090709060040404060100F02001
:100DC00040F003070706010020404080404020011A
:100DD00007070602FF808080808080800307070667
:100DE0000100804040204040800402020601035080
:100DF000A0FFFFFFFFFFFFFFFFFFFFFFFFFFFFFF62
:100E0000FFFFFFFFFFFFFFFFFFFFFFFFFFFFFFFFF2
:100E1000FFFF000000060007010606060200800032
:100E2000808080800406060601FF2070A0A070204C
:100E30000507070600FF304840F04040F80505056B
:100E4000060000A8508850A8050606060000885035
:100E5000F820F8200107070602FF808080008080CC
:100E6000800407070601FF708060906010E00301B6
:100E700001060105A0060707060000788494A494E3
:100E8000847803050506010160A06000E005050502
:100E90000600002850A05028040303060100F010AB
:100EA00010040101060102F006070706000078841D
:100EB000B4A4A48478040101060105F00403030628
:100EC00001026090600507070600FF2020F820203F
:100ED00000F803050506010140A02040E0030505D8
:100EE000060101C0204020C0020202060204408028
:100EF0000405050601FF9090B0D0800506060600A7
:100F00000078E8E868282801010106020280020250
:100F1000020602FE408003050506010140C0404074
:100F2000E003050506010140A04000E005050506B7
:100F30000000A0502850A00508080600FF40C0404F
:100F400050703078100508080600FF40C040506817
:100F50000810380508080600FFC0204030F030783F
:100F6000100407070601002000206080906005073C
:100F700007060000402020507088880507070600FB
:100F800000102020507088880507070600002050B8
:100F900020507088880507070600002850205070F0
:100FA00088880507070600005000205070888805D3
:100FB00007070600002050205070888805060606A6
:100FC000000078A0F0A0A0B80408080601FE609018
:100FD0008080906020400407070601004020F080D8
:100FE000E080F00407070601002040F080E080F078
:100FF0000407070601002050F080E080F004070796
:101000000601005000F080E080F0030707060100B1
:101010008040E0404040E00307070601002040E038
:10102000404040E003070706010040A0E040404088
:10103000E0030707060100A000E0404040E005068D
:10104000060600007048E8484870040707060100DB
:1010500050A090D0B0909004070706010040206097
:1010600090909060040707060100204060909090E7
:10107000600407070601002050609090906004070C
:101080000706010050A060909090600407070601D9
:1010900000500060909090600505050600008850A3
:1010A0002050880408080601FF1070B0B0D0D0E0CE
:1010B000800407070601004020909090906004078C
:1010C00007060100204090909090600407070601F9
:1010D0000020509090909060040707060100500097
:1010E000909090906005070706000010208850201F
:1010F000202004060606010080E09090E0800406AF
:10110000060601006090A0A090A004070706010059
:1011100040200070909070040707060100204000F6
:1011200070909070040707060100205000709090A6
:101130007004070706010050A0007090907004062C
:101140000606010050007090907004070706010029
:101150002050207090907005040406000070A8B024
:10116000780406060601FE708080702040040707A0
:1011700006010040200060B0C070040707060100AF
:1011800020400060B0C07004070706010020500036
:1011900060B0C070040606060100500060B0C07068
:1011A000030707060100804000C04040E003070736
:1011B000060100204000C04040E003070706010090
:1011C00040A000C04040E0030606060100A000C0A9
:1011D0004040E00407070601003060107090906006
:1011E00004070706010050A000E090909004070754
:1011F000060100402000609090600407070601008F
:101200002040006090906004070706010020500015
:101210006090906004070706010050A00060909065
:101220006004060606010050006090906005050508
:101230000600002000F8002004040406010070B03D
:10124000D0E0040707060100402000909090700451
:1012500007070601002040009090907004070706E1
:101260000100205000909090700406060601005086
:1012700000909090700409090601FE2040009090B3
:10128000907090600408080601FE8080E09090E075
:1012900080800408080601FE5000909090709060D5
:1012A00000060900FE070199032B20FFFE08FE0738
:1012B000FE00000006000001070706020080808093
:1012C00080800080030303060104A0A0A005070797
:1012D0000600005050F850F850500507070600006F
:1012E0002070A07028702005070706000048A8504D
:1012F0002050A89005070706000040A0A040A89035
:1013000068010303060204808080030707060100CA
:101310002040808080402003070706010080402095
:10132000202040800505050600018850F8508805FA
:1013300005050600012020F820200303030601FF15
:10134000604080050101060003F80303030601FF66
:1013500040E0400507070600000808102040808094
:1013600005070706000020508888885020050707D9
:101370000600002060A0202020F8050707060000D6
:10138000708808304080F8050707060000F808104C
:101390003008887005070706000010305090F810DC
:1013A00010050707060000F880B0C8088870050718
:1013B00007060000304080B0C888700507070600A7
:1013C00000F808101020404005070706000070884C
:1013D000887088887005070706000070889868087C
:1013E00010600307070601FF40E0400040E04003B3
:1013F00007070601FF40E040006040800407070641
:10140000010010204080402010050303060002F870
:1014100000F80407070601008040201020408005E6
:101420000707060000708810202000200507070627
:101430000000708898A8B08070050707060000209B
:10144000508888F88888050707060000F04848702B
:101450004848F00507070600007088808080887083
:10146000050707060000F04848484848F005070708
:10147000060000F88080F08080F80507070600006D
:10148000F88080F080808005070706000070888063
:1014900080988870050707060000888888F8888883
:1014A00088030707060100E04040404040E0050790
:1014B000070600003810101010906005070706009E
:1014C000008890A0C0A090880507070600008080D3
:1014D00080808080F80507070600008888D8A888E3
:1014E00088880507070600008888C8A898888805A6
:1014F0000707060000708888888888700507070637
:101500000000F08888F08080800508080600FF70E1
:1015100088888888A87008050707060000F0888872
:10152000F0A0908805070706000070888070088882
:1015300070050707060000F820202020202005075E
:1015400007060000888888888888700507070600D5
:1015500000888888505050200507070600008888BA
:1015600088A8A8D88805070706000088885020505A
:10157000888805070706000088885020202020055D
:101580000707060000F80810204080F80307070648
:101590000100E08080808080E00507070600008071
:1015A000804020100808030707060100E0202020E3
:1015B0002020E005030306000420508805010106F1
:1015C00000FFF8020202060206804005050506003B
:1015D0000070087888780507070600008080B0C88A
:1015E00088C8B0050505060000708880887005076A
:1015F0000706000008086898889868050505060031
:10160000007088F88070050707060000304840F039
:101610004040400507070600FE78888878088870F3
:101620000507070600008080B0C888888803070780
:101630000601004000C0404040E00409090601FEE8
:101640001000301010109090600507070600008011
:10165000808890E09088030707060100C040404062
:101660004040E0050505060000D0A8A8A8880505AB
:1016700005060000B0C888888805050506000070CA
:10168000888888700507070600FEB0C888C8B08043
:10169000800507070600FE68988898680808050511
:1016A00005060000B0C880808005050506000070B2
:1016B000807008F00507070600004040F0404048F1
:1016C0003005050506000088888898680505050628
:1016D000000088885050200505050600008888A86D
:1016E000A85005050506000088502050880507070A
:1016F0000600FE88889868088870050505060000C1
:10170000F8102040F8040707060100304020C020F0
:1017100040300107070602008080808080808004BE
:101720000707060100C02040304020C00503030623
:10173000000448A890000000010000000000010023
:101740000000000001000000000001000000000097
:101750000100000000000100000000000100000086
:101760000000010000000000010000000000010076
:101770000000000001000000000001000000000067
:101780000100000000000100000000000100000056
:101790000000010000000000010000000000010046
:1017A0000000000001000000000001000000000037
:1017B0000100000000000100000000000100000026
:1017C0000000010000000000010000000000010016
:1017D0000000000001000000000001000000000007
:1017E00001000000000001000000000001000000F6
:1017F00000000100000000000100000000000600E1
:1018000000010707060200800080808080800507B5
:10181000070600FF2078A0A0A07820050707060093
:1018200000304840E04048B00505050600008870DB
:101830005070880508080600FF88885020F820208E
:101840002001070706020080808000808080050854
:10185000080600FF7080E090483808700301010618
:101860000107A00507070600007088A8C8A88870AF
:101870000406060601017090B05000F0060505064A
:1018800000002448904824040202060102F01004DB
:101890000101060103F00507070600007088E8C88B
:1018A000C88870050101060007F803030306010458
:1018B00040A0400506060600002020F82020F8047D
:1018C000050506010360902040F0040505060103AC
:1018D000E0106010E00202020602064080050606E3
:1018E0000600FF888888C8B08005070706000078D2
:1018F000E8E86828282801010106020380020202A4
:101900000602FE408003050506010340C04040E09A
:101910000406060601016090906000F006050506C9
:10192000000090482448900609090600FF40C04086
:1019300040E40C143C040609090600FF40C0404086
:10194000E81404081C0509090600FFC0204020C84F
:101950001828780805070706000020002020408886
:10196000700508080600004020708888F8888805FF
:1019700008080600001020708888F8888805080884
:101980000600002050708888F8888805080806003E
:101990000048B0708888F88888050808060000505C
:1019A00000708888F88888050808060000205070B4
:1019B0008888F888880607070600003C50909CF04D
:1019C000909C0509090600FE708880808088702040
:1019D0004005080806000040F88080F08080F80587
:1019E000080806000010F88080F08080F8050808DC
:1019F00006000020F88080F08080F80508080600C6
:101A00000050F88080F08080F8030808060100800C
:101A100040E040404040E00308080601002040E06C
:101A200040404040E003080806010040A0E040407C
:101A30004040E0030808060100A000E040404040AC
:101A4000E0050707060000F04848E84848F00508A8
:101A500008060000285088C8A89888880508080645
:101A600000004020708888888870050808060000FB
:101A700010207088888888700508080600002050AB
:101A800070888888887005080806000028507088CB
:101A900088888870050808060000500070888888CB
:101AA0008870050505060000885020508805070746
:101AB000060000709898A8C8C870050808060000BD
:101AC0004020888888888870050808060000102053
:101AD00088888888887005080806000020500088DB
:101AE0008888887005080806000050008888888863
:101AF00088700508080600001020888850202020E3
:101B000005070706000080F088F080808005070741
:101B1000060000708890A09088B0050808060000B4
:101B2000402000700878887805080806000010201A
:101B300000700878887805080806000020500070BA
:101B40000878887805080806000028500070087892
:101B50008878050707060000500070087888780527
:101B600008080600002050207008788878060505CF
:101B700006000078147C907C0507070600FE70883C
:101B8000808870204005080806000040200070880A
:101B9000F880700508080600001020007088F880A2
:101BA000700508080600002050007088F880700555
:101BB000070706000050007088F8807003080806C8
:101BC0000100804000C0404040E0030808060100DA
:101BD000408000C0404040E003080806010040A0EB
:101BE00000C0404040E0060A0A0600FEA4A800FC2F
:101BF0008480808084FC060A0A0600FE549400FC5F
:101C00008404040484FC050808060000285000B081
:101C1000C888888805080806000040200070888869
:101C20008870040A0A0602FE3040809090909090DE
:101C30009090040A0A0600FEC020109090909090A8
:101C40009090060707060001448C8C8480403C0677
:101C5000070706000188C4C4840408F005050506CA
:101C600000012000F8002005080806000040F0C828
:101C70008888987810050808060000E0F8888888A9
:101C80008888F80505050600012030F83020050891
:101C9000080600002070F820202020E00509090631
:101CA00000FF2070A8A8B888885020050909060000
:101CB000FFE080C0B0A8A83028280509090600FF69
:101CC000F8A88888888888A8F8050A0A0600FE20EF
:101CD0005050505088A8A8887000000000000000F4
:101CE00000000000007FFFE0000000000000000096
:101CF000000000007000E000000000000000000094
:101D0000000000630C600000000000000000000004
:101D10000000470E2000000000000000000000004E
:101D2000004F0F2000000000000000000000000035
:101D30005F0FA00000000000000000000000005E37
:101D400007A07F80003FC0003FC00041040040600A
:101D500020FBC00079E00079E00020820040F02004
:101D6000F3C00076E00076E00020820040F020EB37
:101D7000C0007EE0007EE0004104004060207B80E7
:101D8000003DC00039C0008208005E07A07B8000D3
:101D90003BC0003EC0010410005F0FA0FBC00077F5
:101DA000E00076E0010410004F0F20FBC00070E05F
:101DB0000079E000820800470E20FFC0007FE000AD
:101DC0007FE000410400630C603F00001F80001FA3
:101DD00080000000007000E01E00000F00000F00F7
:101DE00001FFFF807FFFE00C0000060000060001FD
:101DF000FFFF800000000000000000000000000065
:101E000000007FFFE0000000000000000000000074
:101E1000007000E000000000000000000000000072
:101E200061F86000000000000000000000000041B8
:101E3000F82000000000000000000000000040F05A
:101E400020000000000000000000000000406020B2
:101E50000000000000000000000000005801A07F0A
:101E600080003FC0003FC0004104005C63A0FBC095
:101E70000079E00079E0002082005EF7A0F3C00066
:101E800076E00076E0002082005EF7A0EBC0007EE6
:101E9000E0007EE0004104005C63A07B80003DC068
:101EA0000039C0008208005801A07B80003BC000C0
:101EB0003EC001041000406020FBC00077E00076C7
:101EC000E00104100040F020FBC00070E00079E069
:101ED0000082080041F820FFC0007FE0007FE000A2
:101EE00041040061F8603F00001F80001F80000077
:101EF00000007000E01E00000F00000F0001FFFF57
:101F0000807FFFE00C0000060000060001FFFF805C
:101F10000000005900B02000B02000B02000B02028
:101F2000002D2D3A2D2D004E6F204361726400501C
:101F300072696E742066726F6D2053440053746F23
:101F400070205072696E7400526573756D65205013
:101F500072696E74005061757365205072696E7499
:101F600000436F6E66696775726174696F6E0054C5
:101F7000656D7065726174757265004D6F76656D23
:101F8000656E740054756E6500496E666F207363EC
:101F90007265656E00F92E2E004D61696E004D323E
:101FA00034004D3233202573004D383420582059E9
:101FB000205A204500526573746F7265204661692E
:101FC0006C73616665004C6F6164206D656D6F7246
:101FD000790053746F7265206D656D6F7279004181
:101FE0006476616E6365642053657474696E6773AB
:101FF000004D61696E004531737470732F6D6D0013
:102000004531737470732F6D6D0045737465707313
:102010002F6D6D004573746570732F6D6D005A736D
:10202000746570732F6D6D005A73746570732F6DC6
:102030006D005973746570732F6D6D0059737465FD
:1020400070732F6D6D005873746570732F6D6D0014
:102050005873746570732F6D6D00412D72657472C5
:1020600061637400412D7265747261637400416D27
:102070006178206500416D6178206500416D61786F
:10208000207A00416D6178207A00416D6178207975
:1020900000416D6178207900416D617820780041C0
:1020A0006D61782078005654726176206D696E00FB
:1020B0005654726176206D696E00566D696E0056D9
:1020C0006D696E00566D6178206500566D617820EF
:1020D0006500566D6178207A00566D6178207A002F
:1020E000566D6178207900566D6178207900566DC3
:1020F0006178207800566D617820780056652D6AE9
:1021000065726B0056652D6A65726B00567A2D6A92
:1021100065726B00567A2D6A65726B005678792D60
:102120006A65726B005678792D6A65726B0041633F
:1021300063656C00416363656C005A204F6666738B
:102140006574005A204F666673657400436F6E664F
:10215000696775726174696F6E00436F6F6C646F4D
:10216000776E0053454D49004E494E4A4100437534
:1021700073746F6D2054656D70004D61696E00530E
:10218000454D4920436F6E66004E494E4A412043FB
:102190006F6E66005049442D43005049442D430062
:1021A0005049442D44005049442D44005049442D89
:1021B00049005049442D49005049442D5000504990
:1021C000442D500020022046616374002002204606
:1021D000616374002002204D6178002002204D616F
:1021E00078002002204D696E002002204D696E00AB
:1021F0004F6666004F6E20004F6666004F6E2000EF
:102200004175746F74656D700046616E2073706502
:1022100065640046616E20737065656400426564A4
:1022200000426564004E6F7A7A6C6532004E6F7AB8
:102230007A6C6532004E6F7A7A6C65004E6F7A7AEE
:102240006C650054656D70657261747572650053DC
:10225000746F7265206D656D6F7279004265640000
:10226000426564004E6F7A7A6C65004E6F7A7A6CC4
:10227000650046616E2073706565640046616E207E
:10228000737065656400437573746F6D2054656D7C
:10229000700053746F7265206D656D6F72790042C6
:1022A000656400426564004E6F7A7A6C65004E6F1B
:1022B0007A7A6C650046616E2073706565640046CD
:1022C000616E20737065656400437573746F6D2073
:1022D00054656D70004D6F766520417869730047D5
:1022E0003238004175746F20486F6D65004D383489
:1022F0000044697361626C65205374657070657227
:1023000073004D61696E004D6F766520302E316D22
:102310006D004D6F766520316D6D004D6F766520D7
:1023200031306D6D004D6F76656D656E740045786A
:10233000747275646572004D6F7665205A004D6F3A
:1023400076652059004D6F76652058004D6F766593
:102350002041786973004578747275646572005A1B
:1023600000590058004D363030004368616E676593
:102370002066696C616D656E7400466C6F7700460F
:102380006C6F770046616E2073706565640046610E
:102390006E20737065656400426564004265640088
:1023A0004E6F7A7A6C6532004E6F7A7A6C653200C5
:1023B0004E6F7A7A6C65004E6F7A7A6C6500537056
:1023C000656564005370656564004D61696E004326
:1023D0006172642072656D6F76656400436172643A
:1023E00020696E736572746564000000000000006F
:1023F00000000000000000000000000000000000DD
:10240000000000000000000000000000000C0000C0
:1024100000000000000C000000000000001200009E
:102420000000000000230000000000000021000068
:1024300000000000004C800000000000005E8000F2
:1024400000000000009240000000000000A14000D9
:10245000000000000121200000000000027F900029
:1024600000000000020010000000000007FFF8005C
:102470000000000004000800000000000800040044
:10248000000000000800060000000000100002002C
:1024900000000000301E010000000000207F8100CD
:1024A0000000000041FFE0800000000043FCF080DD
:1024B00000000000873B7840000000018EDBFC60DC
:1024C000000000010FEBCC20000000021FEDB61051
:1024D000000000021FDEB6100000000439CD7F08A6
:1024E0000000000436E0FF08000000087EC0BB8446
:1024F000000000187F005D86000000107FC0ED82A4
:10250000000000203CC07301000000203B337F012D
:10251000000000701BE77E03800000C81DEEDE0493
:10252000C00000880FDEDC04400001240FDF3C09FE
:102530002000012607DBF8192000027203E7F013E0
:102540009000025101FFE02290000489007F802466
:1025500048000904801E004824000BFE400000DFF4
:10256000F40010004000008002001FFFFFFFFFFF8B
:10257000FE0000000000000000000000000000005D
:10258000000000000000000000001022103C3C0E83
:102590001F00102210042211040010221008221122
:1025A0000400102210083C11040010221010221107
:1025B000040010221020221104001E1C1E3C3C0EA0
:1025C0000400000000000000000000000000000007
:1025D00000000000000000000000000000000000FB
:1025E00000000000000000000000000000000000EB
:1025F00000000000000000000000000000000000DB
:1026000000000000000000000000000000000000CA
:1026100000000000000000000000000000000000BA
:1026200000000000000000006563686F3A00486128
:102630007264636F6465642044656661756C7420C0
:1026400053657474696E6773204C6F6164656400D0
:1026500053746F7265642073657474696E67732058
:1026600072657472696576656400204400204900D3
:102670002020204D333031205000504944207365D4
:102680007474696E67733A00205A00205900202044
:102690004D323036205800486F6D65206F66667386
:1026A000657420286D6D293A00204500205A0020CD
:1026B000580020420020540020204D323035205355
:1026C00000416476616E636564207661726961625F
:1026D0006C65733A20533D4D696E20666565647282
:1026E00061746520286D6D2F73292C20543D4D6930
:1026F0006E2074726176656C2066656564726174C3
:102700006520286D6D2F73292C20423D6D696E69FF
:102710006D756D207365676D656E742074696D6588
:1027200020286D73292C20583D6D6178696D756D79
:10273000205859206A65726B20286D6D2F73292CE3
:1027400020205A3D6D6178696D756D205A206A654B
:10275000726B20286D6D2F73292C2020453D6D61F3
:1027600078696D756D2045206A65726B20286D6DE6
:102770002F73290020540020204D32303420530084
:10278000416363656C65726174696F6E3A20533D95
:10279000616363656C65726174696F6E2C20543D72
:1027A0007265747261637420616363656C657261E4
:1027B00074696F6E00204500205A002059002020C7
:1027C0004D3230312058004D6178696D756D204172
:1027D0006363656C65726174696F6E20286D6D2F1F
:1027E0007332293A00204500205A00205900202049
:1027F0004D3230332058004D6178696D756D20661B
:10280000656564726174657320286D6D2F73293A54
:102810000020453100204500205A0020590020208A
:102820004D393220580053746570732070657220E2
:10283000756E69743A0053657474696E67732053DA
:10284000746F726564006563686F3A004572726FF9
:10285000723A0053544F505045442E200050726934
:102860006E7465722073746F707065642064756532
:1028700020746F206572726F72732E204669782003
:10288000746865206572726F7220616E6420757362
:1028900065204D39393920746F2072657374617207
:1028A000742E202854656D70657261747572652090
:1028B00069732072657365742E2053657420697482
:1028C0002061667465722072657374617274696EDA
:1028D0006729004B494C4C45442E20005072696ECC
:1028E0007465722068616C7465642E206B696C6C11
:1028F00028292063616C6C656421006F6B00526550
:1029000073656E643A20002200556E6B6E6F776EB1
:1029100020636F6D6D616E643A2022004368616EC2
:1029200067652066696C616D656E74006C63642018
:10293000636F6E74726173742076616C75653A2092
:10294000007A5F6D696E3A2000795F6D696E3A209A
:1029500000785F6D696E3A20005A3A00593A0020BB
:10296000436F756E7420583A2000453A005A3A0079
:10297000593A00583A004649524D574152455F4E28
:10298000414D453A4D61726C696E2056312E302EA4
:10299000302E323B20466C657879204649524D579F
:1029A0004152455F55524C3A68747470733A2F2FF8
:1029B000636F64652E616C6570686F626A656374CD
:1029C000732E636F6D2F646966667573696F6E2F02
:1029D0004D41524C494E2F2050524F544F434F4C73
:1029E0005F56455253494F4E3A312E30204D4143A8
:1029F00048494E455F545950453A466C65787920B0
:102A000054415A2045585452554445525F434F55FE
:102A10004E543A3120555549443A3939653034637A
:102A200035632D393662652D346637662D3966611A
:102A3000342D6634656433626565326166390A0037
:102A4000466C6578792054415A204F66662E0046C0
:102A50006C6578792054415A2052656164792E0062
:102A600042656420646F6E652E0020423A00204566
:102A70003A00543A004265642048656174696E67A3
:102A80002E0048656174696E6720646F6E652E0064
:102A900020573A0020453A00543A0048656174696D
:102AA0006E672E2E2E002042403A0020403A002031
:102AB0002F003A00205400202F0020423A00202FFF
:102AC000006F6B20543A002569206D696E2C20251B
:102AD000692073656300456E642066696C65206CCF
:102AE00069737400426567696E2066696C65206C65
:102AF000697374004E6F206D6F76652E005265739A
:102B0000756D696E67207072696E740057616974C3
:102B100020666F7220757365722E2E2E00536C65C1
:102B200065702E2E2E000000954300808943000022
:102B30007A43FFFFFF0000000000000000000000DB
:102B400000000000000000000000000000000095F0
:102B5000430080894300007A430000A0400000A0A9
:102B60004000008040256920686F757273202569D8
:102B7000206D696E7574657300446F6E65207072A8
:102B8000696E74696E672066696C650053544F50B6
:102B90005045442E20005072696E74657220737423
:102BA0006F707065642064756520746F2065727243
:102BB0006F72732E20466978207468652065727282
:102BC0006F7220616E6420757365204D393939202C
:102BD000746F20726573746172742E202854656D51
:102BE00070657261747572652069732072657365B2
:102BF000742E205365742069742061667465722098
:102C000072657374617274696E6729006F6B004E30
:102C10006F204C696E65204E756D62657220776914
:102C2000746820636865636B73756D2C204C6173E9
:102C300074204C696E653A20004E6F2043686563CE
:102C40006B73756D2077697468206C696E65206E92
:102C5000756D6265722C204C617374204C696E65D1
:102C60003A2000636865636B73756D206D69736DE1
:102C7000617463682C204C617374204C696E653AF2
:102C800020004C696E65204E756D62657220697317
:102C9000206E6F74204C617374204C696E65204EF9
:102CA000756D6265722B312C204C617374204C69F8
:102CB0006E653A20004D31313000446F6E652073EF
:102CC0006176696E672066696C652E006F6B004DDA
:102CD0003239002020506C616E6E657242756666F6
:102CE000657242797465733A2000204672656520EA
:102CF0004D656D6F72793A20005365702020372042
:102D00003230313600436F6D70696C65643A200073
:102D100028416C657068204F626A656374732C206B
:102D2000496E632C20466C65787954415A202063A3
:102D30006F6E6669672900207C20417574686F7228
:102D40003A20005365702020372032303136203150
:102D5000303A35383A303300204C61737420557066
:102D600064617465643A2000312E302E302E3100BB
:102D70004D61726C696E200020536F6674776172CA
:102D80006520526573657400205761746368646FD1
:102D900067205265736574002042726F776E206FF2
:102DA0007574205265736574002045787465726E81
:102DB000616C20526573657400506F776572557051
:102DC000007374617274002200656E717565696EBE
:102DD000672022002200656E717565696E6720228A
:102DE000007C3C3E5E2B3D3F2F5B5D3B2C2A225CF2
:102DF000004572726F723A004572723A204D415826
:102E000054454D50204245440054656D70657261D3
:102E100074757265206865617465642062656420FC
:102E20007377697463686564206F66662E204D4110
:102E30005854454D50207472696767657265642007
:102E40002121004572723A204D494E54454D5000A3
:102E50003A2045787472756465722073776974637B
:102E6000686564206F66662E204D494E54454D506E
:102E7000207472696767657265642021004572720B
:102E80003A204D415854454D50003A2045787472CF
:102E900075646572207377697463686564206F6612
:102EA000662E204D415854454D5020747269676715
:102EB00065726564202100202D20496E76616C6961
:102EC00064206578747275646572206E756D6265D4
:102ED000722021001000AD0330016A0150022B0165
:102EE00070030A019004F500B005E500D006D80093
:102EF000F007CE001009C500300ABE00500BB70025
:102F0000700CB100900DAB00B00EA600D00FA20067
:102F1000F0109D001012990030139500501492008B
:102F200070158E0090168B00B0178700D0188400A3
:102F3000F0198100101B7E00301C7B00501D7900B1
:102F4000701E7600901F7300B0207000D0216E00BC
:102F5000F0226B00102469003025660050266300C3
:102F60007027610090285E00B0295C00D02A5900CB
:102F7000F02B5600102D5400302E5100502F4E00D3
:102F800070304B0090314800B0324500D0334200E1
:102F9000F0343E0010363B003037370050383300F5
:102FA00070392E00903A2900B03B2300D03C1B0022
:102FB000F03D1100103F0100F03F00005049442057
:102FC0004175746F74756E652066696E69736865A6
:102FD00064212050757420746865204B702C204B40
:102FE0006920616E64204B6420636F6E7374616E40
:102FF000747320696E746F20436F6E6669677572B3
:103000006174696F6E2E6800504944204175746F79
:1030100074756E65206661696C6564212074696DE4
:10302000656F75740020403A006F6B20543A006F52
:103030006B20423A00504944204175746F74756E9C
:1030400065206661696C6564212054656D706572E8
:10305000617475726520746F6F20686967680020FD
:103060004B643A2000204B693A2000204B703A20F4
:103070000020436C61736963205049442000205450
:10308000753A2000204B753A2000206D61783A2077
:1030900000206D696E3A200020643A2000206269A9
:1030A00061733A20001000C90210012C0140012276
:1030B0000170011801B0010E01F00104015002FA83
:1030C00000B002F0003003E600D003DC009004D230
:1030D000007005C800A006BE000008B400B009AA30
:1030E00000D00BA000600E960060118C00001582CD
:1030F0000020197800C01D6E00A0226400B0275A7D
:1031000000902C500000314600E0343C0010383272
:1031100000903A2800603C1E00A03D1400803E0A4A
:1031200000203F00004D383420582059205A2045B7
:10313000006563686F3A0043616E6E6F7420656E60
:10314000746572207375626469723A20004D32347E
:10315000004D3233202573006175746F25692E6729
:10316000004572726F723A006572726F72207772E8
:103170006974696E6720746F2066696C65004E6FB4
:1031800074205344207072696E74696E67002F005A
:103190005344207072696E74696E67206279746539
:1031A00020002E0044656C6574696F6E206661694D
:1031B0006C65642C2046696C653A200046696C6534
:1031C0002064656C657465643A002E006F70656EEE
:1031D000206661696C65642C2046696C653A200044
:1031E00057726974696E6720746F2066696C653AFE
:1031F00020002E006F70656E206661696C65642C1E
:103200002046696C653A20002E006F70656E20665E
:1032100061696C65642C2046696C653A20004669DA
:103220006C652073656C6563746564002053697A0E
:10323000653A200046696C65206F70656E65643A7A
:1032400020002E006F70656E206661696C65642CCD
:103250002046696C653A20004E6F77206672657370
:10326000682066696C653A20004E6F7720646F694C
:103270006E672066696C653A20002220706F7300CB
:103280002220706172656E743A2200535542524F8B
:103290005554494E452043414C4C2074617267653A
:1032A000743A2200747279696E6720746F206361CA
:1032B0006C6C207375622D67636F64652066696C42
:1032C0006573207769746820746F6F206D616E7903
:1032D000206C6576656C732E204D4158206C6576A8
:1032E000656C2069733A0053442063617264206FF7
:1032F0006B006F70656E526F6F74206661696C65EC
:103300006400766F6C756D652E696E6974206661F8
:10331000696C656400534420696E69742066616954
:103320006C006563686F3A0020746F6F206C6F6E7D
:103330006720657874727573696F6E207072657638
:10334000656E7465640020636F6C642065787472C8
:103350007573696F6E2070726576656E7465640052
:1033600001050800FF060121023520FFFF07FF06C7
:10337000FF0900502216568080808000801533534C
:10338000A0A0A00257575050F850F850500257577D
:103390002070A07028702013355580A040A0200216
:1033A000475740A0A040A0A0502513538080801212
:1033B0002656408080808040122656804040404003
:1033C000800245559060F060900255552020F8200D
:1033D00020113353604080044151F011335340E0D9
:1033E0004002465610102040808012365640A0A061
:1033F000A0A04012365640C0404040E00246566011
:1034000090106080F0024656F020601090600246F6
:10341000562060A0F02020024656F080E010906018
:103420000246566080E0909060024656F0102020E0
:103430004040024656609060909060024656609010
:1034400090701060122555C0C000C0C01136566083
:103450006000604080123656204080804020034348
:1034600053F000F01236568040202040801236562D
:1034700040A020400040015858304898A8A89040EB
:1034800030024656609090F09090024656E090E0F0
:103490009090E0024656609080809060024656E030
:1034A00090909090E0024656F080E08080F00246D6
:1034B00056F080E0808080024656609080B0906038
:1034C0000246569090F0909090123656E040404060
:1034D00040E002465670202020A04002465690A0B0
:1034E000C0A0A0900246568080808080F0024656A0
:1034F00090F0F090909002465690D0F0B0B09002CC
:103500004656609090909060024656E09090E08021
:1035100080014757609090D0B06010024656E0900E
:1035200090E090900246566090402090601236568F
:10353000E04040404040024656909090909060029B
:103540004656909090906060024656909090F0F0B1
:10355000900246569090606090900256568888502F
:10356000202020024656F010204080F0123656E00F
:1035700080808080E0024656808040201010123605
:1035800056E020202020E016325240A0014151F0A8
:103590001622528040024454709090700246568029
:1035A00080E09090E01234546080806002465610B3
:1035B000107090907002445460B0C0600246562073
:1035C0005040E04040014555609070106002465602
:1035D0008080E09090901236564000C04040E0114C
:1035E00037572000202020A040024656808090E0DF
:1035F0009090123656C040404040E0025454D0A84B
:10360000A8A8024454E090909002445460909060C6
:10361000014555E090E08080014555709070101094
:10362000024454A0D0808012345460C020C00246AE
:10363000564040E040502002445490909070123424
:1036400054A0A0A04002545488A8A850024454900A
:103650006060900145559090709060024454F02055
:1036600040F0024757304020C0204030221656809C
:103670008080808080024757C02040304020C006B4
:10368000425250A0FFFFFFFFFFFFFFFFFFFFFFFFC2
:10369000FFFFFFFFFFFFFFFFFFFFFFFFFFFFFFFF3A
:1036A000FFFFFFFFFF090050221656800080808038
:1036B000800146562070A0A070200246562050E09F
:1036C0004050A00255558870507088025656885058
:1036D000F820F820221757808080008080800247E1
:1036E000577080E0907010E0173151A0025656706C
:1036F000A8C8C8A87014355560A06000E003435303
:1037000050A050123353E02020143151E00256569D
:1037100070E8D8E8D870173151E015335340A04015
:1037200012355540E04000E014355540A02040E0FF
:10373000143555C020C020C0162252408001455586
:10374000909090E08002565678E8E8682828241186
:103750005180112252408014355540C04040E01441
:10376000355540A04000E0034353A050A002475706
:10377000808080A060F0200247578080A0D0102079
:103780007002475780408060A0F0201236564000FB
:103790004080A04002475740206090F09090024740
:1037A0005720406090F0909002475760906090F0F2
:1037B000909002475750A06090F090900247579029
:1037C000006090F0909002475760906090F0909069
:1037D00002465670A0A0F0A0B001475760908080CC
:1037E0009060400247574020F080E080F002475749
:1037F0002040F080E080F00247576090F080E08049
:10380000F00247579000F080E080F0123757804078
:10381000E0404040E01237572040E0404040E01296
:10382000375740A0E0404040E0123757A000E0404A
:103830004040E00256567048E848487002475750EA
:10384000A090D0B090900247574020609090906038
:103850000247572040609090906002475760906008
:103860009090906002475750A060909090600247FF
:103870005790006090909060123353A040A0024691
:103880005670B0B0D0D0E002475740209090909052
:103890006002475720409090909060024757609098
:1038A00090909090600247579000909090906002A6
:1038B00057571020885020202002465680E09090D4
:1038C000E0800246566090A0A090A002475740209A
:1038D00000709090700247572040007090907002E6
:1038E00047572050007090907002475750A00070CA
:1038F000909070024656500070909070024757604A
:10390000906070909070025454F068B07811355502
:10391000608080604002475740200060B0C0600275
:10392000475720400060B0C0600247576090006079
:10393000B0C060024656500060B0C0601237578079
:103940004000C04040E0123757204000C04040E0F7
:1039500012375740A000C04040E0123656A000C0C9
:103960004040E0024757A040A010709060024757C7
:1039700050A000E090909002475740200060909047
:103980006002475720400060909060024757609067
:10399000006090906002475750A0006090906002D5
:1039A00046569000609090601235554000E000400F
:1039B00002445470B0D0E0024757402000909090ED
:1039C00070024757204000909090700247576090D7
:1039D0000090909070024656900090909070014830
:1039E0005820400090907090600147578080E09090
:1039F000E080800147579000909070906000002117
:103A000000240027002A002D0030003300010100AF
:103A100000040107010A0100002200250028002BF4
:103A2000002E003100340002010000050108010BE6
:103A300001000020002300260029002C002F003266
:103A40000000010000030106010901050505050745
:103A50000508080808020202020A0A080804040409
:103A60000401010101010101010303030303030335
:103A700003040707070C0C0C0C0C0C0C0C020202C4
:103A80000206060606060606060B0B0B0B0B0B0BB7
:103A90000B07070A0A0A0A0A0A05050504010210AB
:103AA0002020080810204010204080020102010858
:103AB0000402010102040810204080804020100808
:103AC0000402018004020180402010080402010861
:103AD00004020101020408102040800102040810C1
:103AE000204080100804088010204004408010000E
:103AF00000090A02080B0C0D070603040100000070
:103B000000000000000000000000000000000000B5
:103B1000000000000000000000000011100F000075
:103B20000000000000000000000000000000000095
:103B3000000000000002494E46494E4954594E418A
:103B40004ECDCCCC3D0AD7233C17B7D13877CC2B00
:103B5000329595E6241FB14F0A000020410000C8AD
:103B60004200401C4620BCBE4CCA1B0E5AAEC59D2E
:103B700074001B2E086D807DB4E57B7D11241FBE73
:103B8000CFEFD1E2DEBFCDBF00E00CBF14E0A0E07C
:103B9000B2E0E0EAF4EF01E00BBF02C007900D9243
:103BA000AA3BB107D9F71BBE15E1AAEBB4E001C0EF
:103BB0001D92A63CB107E1F71BE3CAE7DBE304C0B3
:103BC0002297FE010E94F6F9C237D107C9F70E9479
:103BD00042F10C9444FA0C940000A0E0B0E0E3EF52
:103BE000FDE10C9413FAEC015B016115710519F00C
:103BF000FB0191838083F9908F2D90E00E94FAF968
:103C0000892BC9F7FDE2FF1621F4F990EE24E39425
:103C100005C02BE2F21609F4F990EE248E01015052
:103C20001040C80166E37BE343E050E072D2892B89
:103C3000F9F48E010E5F1F4FC80169E37BE345E095
:103C400050E067D2892B19F48E01095F1F4FA11430
:103C5000B10419F0F50111830083E0FC04C070E0A9
:103C600090E080E813C070E090E080E86FEF07C15B
:103C7000C8016EE37BE343E050E04BD2892B69F44B
:103C8000A114B10429F470E090E080EC6FE7F7C074
:103C90002296F501D183C083F6CF8824992440E091
:103CA00050E060E070E0EF2DE053EA30A0F5F2E084
:103CB000EF2A8E2D90E09C0128703070E2FE06C045
:103CC000232B79F50894811C911C2BC0232B19F010
:103CD000089481089108DB01CA0112E0880F991F3E
:103CE000AA1FBB1F1A95D1F7480F591F6A1F7B1FC8
:103CF000440F551F661F771F4E0F511D611D711D0B
:103D0000483929E9520729E9620729E1720748F091
:103D100084E0E82A06C0EE3F31F4E3FC39C098E0C5
:103D2000E92AF990C0CFE53311F0E53189F5299101
:103D30002D3219F4E0E1EE2A05C02B3219F081E0B2
:103D400090E003C0299182E090E0E22FE053EA3056
:103D500018F0C81BD90B1CC020E030E0FCE0203874
:103D60003F075CF4C901880F991F880F991F280F1E
:103D7000391F220F331F2E0F311DE991E053EA3016
:103D800068F3E4FE03C0309521953F4F820E931EE9
:103D9000CE2CDD24E1FE07C0A114B10421F021974F
:103DA000F501D183C083CB01BA010E945FF67B018C
:103DB0008C01F3E0CF22DD2423E0C216D10421F4EC
:103DC00017FB109517F9109557016801C801B70145
:103DD00020E030E040E050E00E94BFF5882309F485
:103DE0004AC097FE0DC025E5E22E2BE3F22E9094FB
:103DF000819491089394C0E2D0E000E010E012C0FA
:103E00009DE6E92E9BE3F92EF6CFF701259135913A
:103E100045915491C601B5010E949FF85B016C0168
:103E20008C1A9D0A8C169D0684F7D595C7950F5F51
:103E30001F4F0630110529F08CEF9FEFE80EF91E99
:103E4000F1CFC501D6017C018D018C2D880F8D2D00
:103E5000881F8F3F51F0C601B50120E030E040E0FF
:103E600050E00E94BFF5882331F482E290E0909305
:103E7000C5158093C4157E2D9F2D802F612F272F70
:103E8000392F482F562FB901CA01CDB7DEB7ECE064
:103E90000C942FFA2F923F925F926F927F928F92A3
:103EA0009F92AF92BF92CF92DF92EF92FF920F93C9
:103EB0001F93CF93DF938C011B01EA0161157105FC
:103EC00019F0FB0191838083209749F0CE0102977E
:103ED000839728F020E030E040E050E0F6C0F801A1
:103EE000A1908F018A2D90E00E94FAF9892BB9F7F1
:103EF000FDE2AF1631F4F801A1908F0155245394DF
:103F000007C0FBE2AF1619F4F801A1908F01552408
:103F1000209719F0C031D105C1F4F0E3AF1679F460
:103F2000F8018081883711F0883549F4F801A180C3
:103F30000E5F1F4FF2E05F2AC0E1D0E006C020977D
:103F400021F480E3A816E9F427C0C830D10531F187
:103F5000C930D10524F4C230D10531F50CC0CA30C6
:103F6000D10589F0C031D105F9F4C12CD12CE12C57
:103F7000B8E0FB2E28C0C12CD12CE12CA0E4FA2EF5
:103F800022C0CAE0D0E0FCECCF2EFCECDF2EFCEC33
:103F9000EF2EFCE0FF2E17C0C8E0D0E0C12CD12CE2
:103FA000E12CE0E1FE2E0FC09E01442737FD409535
:103FB000542F60E070E080E090E80E94B7F9C901FA
:103FC000DA016C017D0120E030E040E050E060E08B
:103FD0003E01882477FC8094982C70EDB72EBA0CA3
:103FE000E9E0EB1570F48A2D81548A3118F499ECCC
:103FF000B92E06C08A2D81568A3150F589EAB82E2D
:10400000BA0C8B2D90E08C179D0714F56F3FE1F0F3
:10401000C216D306E406F506B0F0CA01B901A40140
:1040200093010E9471F99B01AC012B0D311D411DC3
:10403000511D2130F0E03F07F0E04F07F0E85F0747
:1040400010F461E001C06FEFF801A1908F01C5CFBE
:104050002114310481F0662331F001501040F10148
:104060001183008308C051FE1AC002501040F101B4
:104070001183008314C067FF12C050FC05C02FEFEE
:104080003FEF4FEF5FE704C020E030E040E050E852
:1040900082E290E09093C5158093C41516C050FE3F
:1040A00008C050954095309521953F4F4F4F5F4F39
:1040B0000CC057FF0AC082E290E09093C515809330
:1040C000C4152FEF3FEF4FEF5FE7B901CA01DF9152
:1040D000CF911F910F91FF90EF90DF90CF90BF9005
:1040E000AF909F908F907F906F905F903F902F90B8
:1040F0000895FB01DC0105900D920020E1F7089581
:10410000FC0105900020E9F7809590958E0F9F1F88
:104110000895FB01DC014150504088F08D918134BD
:104120001CF08B350CF4805E659161341CF06B35AE
:104130000CF4605E861B611171F3990B0895881B66
:10414000FCCFFB01DC014150504048F005900D923E
:104150000020C9F701C01D9241505040E0F708957A
:10416000FB0155915523A9F0BF01DC014D91451785
:104170004111E1F759F4CD010590002049F04D912E
:1041800040154111C9F3FB014111EFCF81E090E0EF
:1041900001970895FB01DC0104C08D910190801905
:1041A00021F441505040C8F7881B990B0895FB013A
:1041B000DC0102C001900D9241505040D8F70895A3
:1041C000FB01DC010D900020E9F7119701900D92A1
:1041D0000020E1F70895FC018191861721F08823E2
:1041E000D9F7992708953197CF010895FB01DC0194
:1041F00001900D920020E1F70895FB01DC01415090
:10420000504030F08D910190801919F40020B9F7D9
:10421000881B990B0895FB01DC014150504048F088
:1042200001900D920020C9F701C01D9241505040ED
:10423000E0F70895AEE0B0E0E0E2F1E20C941BFAA2
:104240000E891F898EE08C831A8309838FEF9FE785
:104250009E838D839E01265E3F4FCE010196688D21
:10426000798DA9010AD02F813885020F131FF8011B
:1042700010822E96E4E00C9437FAABE0B0E0E3E471
:10428000F1E20C940DFA3C012B015A01FC0117825A
:104290001682838181FD03C06FEF7FEFB9C19AE081
:1042A000892E1E010894211C311CF3012381F20187
:1042B00023FD859123FF81912F01882309F4A5C156
:1042C000853239F423FD859123FF81912F018532B9
:1042D00021F490E0B301B7D1E8CF982FFF24EE246A
:1042E0009924FFE1FF15D0F09B3269F09C3228F44D
:1042F000903259F0933291F40EC09D3249F09033D0
:1043000069F441E024C052E0F52A84E0F82A28C08C
:1043100098E0F92A25C0E0E1FE2A22C0F7FC29C076
:10432000892F80538A3070F4F6FE05C0989C902C3B
:104330001124980E15C0E89CE02C1124E80EF0E240
:10434000FF2A0EC09E3229F4F6FC5FC140E4F42A35
:1043500007C09C3619F450E8F52A02C0983649F493
:10436000F20123FD959123FF91912F01992309F0EB
:10437000B8CF892F8554833018F08052833038F4B9
:1043800044E050E0A40EB51E5FE359830FC093369E
:1043900031F0933779F0933509F052C01FC0F50121
:1043A0008081898342E050E0A40EB51E610101E0E6
:1043B00010E011C0F501C080D180F6FC03C06FEFA2
:1043C0007FEF02C0692D70E042E050E0A40EB51E00
:1043D000C6012ED18C015FE7F52213C0F501C08024
:1043E000D180F6FC03C06FEF7FEF02C0692D70E053
:1043F00042E050E0A40EB51EC6010FD18C0150E87A
:10440000F52AF3FE06C018C080E290E0B3011BD18C
:10441000EA948E2D90E008171907B0F30DC0F6014D
:10442000F7FC8591F7FE81916F0190E0B3010BD10C
:10443000E110EA94015010400115110581F7E2C026
:10444000943611F0993661F5F7FE08C0F501208128
:1044500031814281538184E090E00AC0F50180817E
:1044600091819C01442737FD4095542F82E090E0D4
:10447000A80EB91E9FE6F92257FF09C05095409536
:10448000309521953F4F4F4F5F4FE0E8FE2ACA011C
:10449000B901A1012AE030E002D1D82ED2183FC0E4
:1044A000953729F41F2D1F7E2AE030E01DC01F2DF7
:1044B000197F9F3661F0903720F4983509F0A5C038
:1044C0000FC0903739F0983709F09FC004C028E03A
:1044D00030E00AC0106114FD146020E130E004C037
:1044E00014FD166020E132E017FF08C0F50160817D
:1044F00071818281938144E050E008C0F5018081A0
:104500009181BC0180E090E042E050E0A40EB51E35
:10451000A101C5D0D82ED2188FE7F82EF122F6FED1
:104520000BC05EEFF522D91438F4F4FE07C0F2FC9C
:1045300005C08FEEF82202C01D2D01C0192DF4FE1A
:104540000DC0FE01ED0DF11D8081803319F499EE4F
:10455000F92208C01F5FF2FE05C003C08F2D8678C8
:1045600009F01F5F0F2DF3FC13C0F0FE0EC01E15E7
:1045700010F09D2C0AC09D2C9E0C911A1E2D05C07A
:1045800080E290E0B3015FD01F5F1E15C8F304C046
:104590001E1510F4E11A01C0EE2404FF0EC080E3E2
:1045A00090E0B30150D002FF1BC001FD03C088E7BB
:1045B00090E00EC088E590E00BC0802F867881F0F7
:1045C00001FF02C08BE201C080E2F7FC8DE290E0C7
:1045D000B30139D005C080E390E0B30134D09A94A0
:1045E000D914C8F3DA94F101ED0DF11D808190E04A
:1045F000B30129D0DD20B1F705C080E290E0B3011E
:1046000022D0EA94EE20C9F750CEF301668177817B
:10461000CB012B96E2E10C9429FAFC010590615044
:1046200070400110D8F7809590958E0F9F1F0895C8
:10463000FC016150704001900110D8F78095909571
:104640008E0F9F1F08950F931F93CF93DF938C01BD
:10465000EB018B8181FF1BC082FF0DC02E813F814A
:104660008C819D812817390764F4E881F9810193D1
:10467000F983E88306C0E885F985802F1995892B91
:1046800031F48E819F8101969F838E8302C00FEF4C
:104690001FEFC801DF91CF911F910F910895FA018B
:1046A000AA27283051F1203181F1E8946F936E7F71
:1046B0006E5F7F4F8F4F9F4FAF4FB1E03ED0B4E062
:1046C0003CD0670F781F891F9A1FA11D680F791FA3
:1046D0008A1F911DA11D6A0F711D811D911DA11DB4
:1046E00020D009F468943F912AE0269F11243019C4
:1046F000305D3193DEF6CF010895462F4770405D5F
:104700004193B3E00FD0C9F7F6CF462F4F70405D0D
:104710004A3318F0495D31FD4052419302D0A9F768
:10472000EACFB4E0A6959795879577956795BA9562
:10473000C9F700976105710508959B01AC010A2E28
:1047400006945795479537952795BA95C9F7620FFF
:10475000731F841F951FA01D08951092EE041092E0
:10476000F0041092F204089580938A030895EFE60E
:10477000F0E080818260808308951F93FC011FB761
:10478000F89480819181A281B3818093C804909331
:10479000C904A093CA04B093CB04FB01808191812A
:1047A000A281B3818093CC049093CD04A093CE04D6
:1047B000B093CF04FA0180819181A281B38180936B
:1047C000D0049093D104A093D204B093D304F90100
:1047D00080819181A281B3818093D4049093D50488
:1047E000A093D604B093D7041FBF1F910895FC0176
:1047F0002FB7F89480819181A281B3818093D404F2
:104800009093D504A093D604B093D7042FBF0895F6
:10481000E82F8FB7F894F0E0EE0FFF1FEE0FFF1FA9
:10482000E853FB4F20813181428153818FBFB90111
:10483000CA01089580916F008D7F80936F0006C03C
:104840008091B5148F5F8F708093B5149091B414DC
:104850008091B514981751F41092BB041092BA04C9
:1048600080916F00826080936F0008959091B414DE
:104870008091B514981751F3E3CFE5E4F1E09491FA
:1048800008C08091C00085FFFCCF9093C600319690
:1048900094919923B1F7E1E4F1E0949108C08091FB
:1048A000C00085FFFCCF9093C60031969491992368
:1048B000B1F788E20E94C3F0BC0186E895E04AE0C7
:1048C00050E00E94032F89E20E94C3F0BC0186E8F9
:1048D00095E04AE050E00E94032F8091C00085FFE0
:1048E000FCCF8AE08093C600EDE3F1E0949108C02C
:1048F0008091C00085FFFCCF9093C60031969491C3
:104900009923B1F785E40E94C3F0BC0186E895E0E5
:104910004AE050E00E94032F87E20E94C3F0BC01EE
:1049200086E895E04AE050E00E94032F8091C000A5
:1049300085FFFCCF8AE08093C600E9E3F1E0949123
:1049400008C08091C00085FFFCCF9093C6003196CF
:1049500094919923B1F784E40E94C3F0BC0186E8E6
:1049600095E04AE050E00E94032F83E40E94C3F0E8
:10497000BC0186E895E04AE050E00E94032F809158
:10498000C00085FFFCCF8AE08093C600E4E3F1E03D
:10499000949108C08091C00085FFFCCF9093C60021
:1049A000319694919923B1F781E40E94C3F0BC0140
:1049B00086E895E04AE050E00E94032F82E40E94DE
:1049C000C3F0BC0186E895E04AE050E00E94032F66
:1049D0008091C00085FFFCCF8AE08093C600EFE2A3
:1049E000F1E0949108C08091C00085FFFCCF9093C6
:1049F000C600319694919923B1F78FE30E94C3F0DA
:104A0000BC0186E895E04AE050E00E94032F80E474
:104A10000E94C3F0BC0186E895E04AE050E00E94A5
:104A2000032F8091C00085FFFCCF8AE08093C600F1
:104A300008950F931F93182F042F67FD19C082301C
:104A400081F0833028F4882341F0813089F407C055
:104A5000833049F0843061F408C088E207C085E4FF
:104A600005C084E403C081E401C08FE30E9491F09B
:104A700007FD1AC0123081F0133028F4112341F0E1
:104A8000113091F407C0133049F0143069F408C0B4
:104A900089E207C087E205C083E403C082E401C065
:104AA00080E4602F0E9491F01F910F91089564306F
:104AB00089F0653028F4613041F0623099F407C024
:104AC000683051F0603171F40AC060E001C061E00B
:104AD00040E004C060E001C061E041E0AACF61E0D5
:104AE00041E0A7CF08950F931F93182F062F86E25A
:104AF00060E00E9491F01EBD0DB407FEFDCF8EB5A3
:104B00000EBD0DB407FEFDCF8EB586E261E00E94BA
:104B100091F01F910F910895E8E1F4E0E80FF11D85
:104B2000808190E0E0CFCF93DF9389E261E00E9443
:104B3000DEEF87E261E00E94DEEF83E461E00E9445
:104B4000DEEF82E461E00E94DEEF80E461E00E943B
:104B5000DEEFC0E0D0E0FE01ED5EFB4F8C2F608108
:104B6000A6DF2196C530D105B1F7DF91CF91089529
:104B7000CF93DF930E94DDED86E261E00E94DEEFDD
:104B8000C0E0D0E0FE01E85EFB4FDE01A35EBB4F5C
:104B90006C91808190E070E0A6DF2196C530D10550
:104BA00089F7DF91CF910895E3DFBDDFEAE0F1E01F
:104BB0008081826080838081816080838081846045
:104BC00080838081806480838081806880830F9A65
:104BD000179A0E9A169A0D9A159A0C9A149A0B9A7D
:104BE000139A26982E9A25982D9A24982C9A389ABA
:104BF0004098179A1092CB0A399A4198169A1092B7
:104C0000CC0A3A9A4298159A1092CD0A3B9A439848
:104C1000149A3C9A4498A1E8B0E08C918F7E8C93D2
:104C20008C9188608C93E0E8F0E080818D7F8083B8
:104C300080818E7F808380818F73808380818F7C51
:104C400080838C91887F82608C9380E090E4909345
:104C50008900809388001092850010928400EFE60E
:104C6000F0E080818260808381E080938A03789481
:104C700008959091B4148091B514981739F00E945A
:104C8000C5B80E948A7E0E94586EF3CF0895F1DF66
:104C9000179A1092CB0A169A1092CC0A159A109273
:104CA000CD0A149A08951F920F920FB60F920BB669
:104CB0000F921124AF92BF92CF92DF92EF92FF92A8
:104CC0000F931F932F933F934F935F936F937F9314
:104CD0008F939F93AF93BF93CF93DF93EF93FF9304
:104CE0008091BA049091BB04892B09F096C19091F0
:104CF000B4148091B514981719F4E0E0F0E014C0F2
:104D00008091B51490E021E530E0829FF001839F0F
:104D1000F00D929FF00D1124EC55F04FE05BFF4F2A
:104D200081E08083E055F040F093BB04E093BA0447
:104D3000309709F46CC1E05BFF4F81E08083E05560
:104D4000F0401092FA041092FB041092FC041092AE
:104D5000FD0460AD71AD2CE96134720718F060E4B8
:104D60007CE904C03EE46132730730F076956795C4
:104D70007695679584E007C047E26131740730F0AB
:104D80007695679582E08093F30407C08093F304DF
:104D90006032710510F460E270E06052704058E0DB
:104DA00060307507E8F0472F50E0440F551F440F5F
:104DB000551F4D5A5E4F9A012E5F3F4FF901859165
:104DC00094919C01AA27639FC001629F810D9A1F45
:104DD00006948A1F9A1F1124FA01459154911EC00E
:104DE000CB01969587958C7F8D5A9A4FFC01459102
:104DF0005491FC01329625913491862F90E0877072
:104E00009070FC012E9FC0012F9F900D3E9F900D32
:104E10001124B3E096958795BA95E1F7481B590B95
:104E200044365105A8F4E0E0F2E007C08091C000EC
:104E300085FFFCCF31969093C60090819923B1F7FE
:104E400086E895E04AE050E00E942A2F44E650E0D0
:104E50005093FF044093FE048091F304992787FD4B
:104E600090959093010580930005E091BA04F0912C
:104E7000BB0464AD75AD7093F9046093F804FCE96C
:104E800061347F0718F060E47CE904C02EE46132ED
:104E9000720730F0769567957695679584E007C040
:104EA00037E26131730730F07695679582E0809341
:104EB000F30408C081E08093F3046032710510F4BC
:104EC00060E270E06052704048E060307407E8F0E3
:104ED000472F50E0440F551F440F551F4D5A5E4F4A
:104EE0009A012E5F3F4FF901859194919C01AA2769
:104EF000639FC001629F810D9A1F06948A1F9A1FAB
:104F00001124FA01459154911EC0CB0196958795C5
:104F10008C7F8D5A9A4FFC0145915491FC01329639
:104F200025913491862F90E087709070FC012E9F20
:104F3000C0012F9F900D3E9F900D112433E0969558
:104F400087953A95E1F7481B590B44365105A0F473
:104F5000E0E0F2E007C08091C00085FFFCCF319611
:104F60009093C60090819923B1F786E895E04AE0D6
:104F700050E070D744E650E0CA01A0E0B0E0809372
:104F8000F4049093F504A093F604B093F7045093BF
:104F9000890040938800E091BA04F091BB048089B5
:104FA0009189A289B389B695A79597958795B0956C
:104FB000A095909581959F4FAF4FBF4F8093D80498
:104FC0009093D904A093DA04B093DB048093DC04BB
:104FD0009093DD04A093DE04B093DF048093E0049B
:104FE0009093E104A093E204B093E3048093E4047B
:104FF0009093E504A093E604B093E7041092E804CC
:105000001092E9041092EA041092EB0406C080EDBD
:1050100097E09093890080938800C091BA04D09162
:10502000BB04209709F4ACC488A18093EC0480FFF2
:105030000AC08FB7F89490910B019D7F90930B015C
:105040008FBF8FEF09C08FB7F89490910B019260DA
:1050500090930B018FBF81E0809386038091EC04D5
:1050600081FF0AC08FB7F89490910B0191609093E3
:105070000B018FBF8FEF09C08FB7F89490910B0190
:105080009E7F90930B018FBF81E080938703809177
:10509000EC0480FF3CC080918A038823C1F183B176
:1050A00082958695869583708095282F217080FF44
:1050B0002CC08091ED04882341F188819981AA81D7
:1050C000BB81181619061A061B06FCF48091C80449
:1050D0009091C904A091CA04B091CB048093BC0400
:1050E0009093BD04A093BE04B093BF0481E080936D
:1050F000EE0488899989AA89BB898093E8049093F2
:10510000E904A093EA04B093EB042093ED048091AA
:10511000EC0481FF3BC080918A038823B9F183B1FD
:105120008295869587708095282F217080FF2CC0EE
:105130008091EF04882341F18C819D81AE81BF81F4
:10514000181619061A061B06FCF48091CC049091DF
:10515000CD04A091CE04B091CF048093C00490936D
:10516000C104A093C204B093C30481E08093F0040F
:1051700088899989AA89BB898093E8049093E90476
:10518000A093EA04B093EB042093EF048091EC0425
:1051900082FF47C09FB7F89480910B018B7F80936B
:1051A0000B019FBF8FEF8093880380918A03882330
:1051B00009F442C083B182958F708095282F2170A9
:1051C00080FF2CC08091F104882341F18885998566
:1051D000AA85BB85181619061A061B06FCF48091D1
:1051E000D0049091D104A091D204B091D3048093C3
:1051F000C4049093C504A093C604B093C70481E08F
:105200008093F20488899989AA89BB898093E804EC
:105210009093E904A093EA04B093EB042093F10483
:105220000BC08FB7F89490910B01946090930B0191
:105230008FBF81E0809388038091EC0483FF0AC0D4
:105240008FB7F89490910B01906490930B018FBFEE
:105250008FEF09C08FB7F89490910B019F7B9093CB
:105260000B018FBF81E08093890360E06AC1809168
:10527000C00087FF19C04091C600E0918205F091FF
:10528000830531969F012F77307031978091840587
:10529000909185052817390739F0EE5FFA4F408362
:1052A0003093830520938205288139814A815B816F
:1052B0008091D8049091D904A091DA04B091DB04D4
:1052C000280F391F4A1F5B1F2093D8043093D9043D
:1052D0004093DA045093DB041216130614061506E5
:1052E0006CF5409A88899989AA89BB89281B390B52
:1052F0004A0B5B0B2093D8043093D9044093DA0413
:105300005093DB042091C8043091C9044091CA0431
:105310005091CB0480918603992787FD9095A92F02
:10532000B92F820F931FA41FB51F8093C8049093B9
:10533000C904A093CA04B093CB0440982C813D814A
:105340004E815F818091DC049091DD04A091DE04A8
:10535000B091DF04280F391F4A1F5B1F2093DC0424
:105360003093DD044093DE045093DF0412161306DD
:10537000140615066CF5419A88899989AA89BB8912
:10538000281B390B4A0B5B0B2093DC043093DD04A4
:105390004093DE045093DF042091CC043091CD047F
:1053A0004091CE045091CF0480918703992787FDC7
:1053B0009095A92FB92F820F931FA41FB51F80931B
:1053C000CC049093CD04A093CE04B093CF04419825
:1053D000288539854A855B858091E0049091E104B8
:1053E000A091E204B091E304280F391F4A1F5B1F0C
:1053F0002093E0043093E1044093E2045093E304EB
:1054000012161306140615066CF5429A88899989B6
:10541000AA89BB89281B390B4A0B5B0B2093E0043C
:105420003093E1044093E2045093E3042091D004CC
:105430003091D1044091D2045091D30480918803DB
:10544000992787FD9095A92FB92F820F931FA41F2D
:10545000B51F8093D0049093D104A093D204B0934D
:10546000D30442982C853D854E855F858091E40468
:105470009091E504A091E604B091E704280F391F4C
:105480004A1F5B1F2093E4043093E5044093E60435
:105490005093E70412161306140615066CF5439A8A
:1054A00088899989AA89BB89281B390B4A0B5B0B10
:1054B0002093E4043093E5044093E6045093E7041A
:1054C0002091D4043091D5044091D6045091D70452
:1054D00080918903992787FD9095A92FB92F820F75
:1054E000931FA41FB51F8093D4049093D504A09359
:1054F000D604B093D70443988091E8049091E904CE
:10550000A091EA04B091EB040196A11DB11D809316
:10551000E8049093E904A093EA04B093EB0420918B
:10552000E8043091E9044091EA045091EB04888941
:105530009989AA89BB89281739074A075B0730F47C
:105540006F5F8091F30468170CF491CE2091E8040A
:105550003091E9044091EA045091EB048C899D89D3
:10556000AE89BF8982179307A407B50708F4E2C084
:10557000E090F404F090F5040091F6041091F70423
:10558000AC8CBD8CCE8CDF8CA8019701C601B50117
:10559000AA27279FB12D389FF001489FF00D479F04
:1055A000E00DF11D289FB00DE11DFA1F379FB00DD2
:1055B000E11DFA1F469FB00DE11DFA1F369FB10D88
:1055C000EA1FFA1FB695EA1FFA1F11248CAD9DAD94
:1055D0008E0F9F1F9093F9048093F80428AD39AD86
:1055E0004AAD5BADA0E0B0E0281739074A075B077A
:1055F00020F43093F9042093F8046091F80470913A
:10560000F9048CE96134780718F060E47CE904C09F
:105610009EE46132790730F07695679576956795C7
:1056200084E007C0E7E261317E0730F07695679548
:1056300082E08093F30408C081E08093F304603239
:10564000710510F460E270E060527040F8E0603084
:105650007F07E8F0472F50E0440F551F440F551FB8
:105660004D5A5E4F9A012E5F3F4FF90185919491FB
:105670009C01AA27639FC001629F810D9A1F069417
:105680008A1F9A1F1124FA01459154911EC0CB0123
:10569000969587958C7F8D5A9A4FFC014591549130
:1056A000FC01329625913491862F90E0877090709E
:1056B000FC012E9FC0012F9F900D3E9F900D112445
:1056C000B3E096958795BA95E1F7481B590B443698
:1056D0005105A0F4E0E0F2E007C08091C00085FF32
:1056E000FCCF31969093C60090819923B1F786E85C
:1056F00095E04AE050E0AED344E650E05093890094
:10570000409388009A0140E050E08091F404909129
:10571000F504A091F604B091F704820F931FA41F23
:10572000B51F8093F4049093F504A093F604B0930E
:10573000F70401C12091E8043091E9044091EA04A2
:105740005091EB04888D998DAA8DBB8D821793079C
:10575000A407B50708F0E3C06091FA047091FB0458
:105760008091FC049091FD042C8D3D8D4E8D5F8DBC
:10577000AA27639FB12D749FF001849FF00D839F32
:10578000E00DF11D649FB00DE11DFA1F739FB00D78
:10579000E11DFA1F829FB00DE11DFA1F729FB10D2E
:1057A000EA1FFA1FB695EA1FFA1F11248091F80428
:1057B0009091F9048E179F0738F4C05CDF4F688121
:1057C0007981C054D04003C0BC016E1B7F0BC05C0C
:1057D000DF4F288139814A815B81CB01A0E0B0E0B5
:1057E00082179307A407B50708F4B901FCE96134EF
:1057F0007F0718F060E47CE904C02EE46132720790
:1058000030F0769567957695679584E007C037E226
:105810006131730730F07695679582E08093F304E9
:1058200008C081E08093F3046032710510F460E2F7
:1058300070E06052704048E060307407E8F0472F35
:1058400050E0440F551F440F551F4D5A5E4F9A01AB
:105850002E5F3F4FF901859194919C01AA27639F88
:10586000C001629F810D9A1F06948A1F9A1F1124FE
:10587000FA01459154911EC0CB01969587958C7F76
:105880008D5A9A4FFC0145915491FC013296259115
:105890003491862F90E087709070FC012E9FC0019C
:1058A0002F9F900D3E9F900D112423E09695879594
:1058B0002A95E1F7481B590B44365105A0F4E0E066
:1058C000F2E007C08091C00085FFFCCF3196909335
:1058D000C60090819923B1F786E895E04AE050E050
:1058E000B9D244E650E050938900409388009A0171
:1058F00040E050E08091FA049091FB04A091FC04F8
:10590000B091FD04820F931FA41FB51F8093FA046A
:105910009093FB04A093FC04B093FD040CC0809111
:10592000FE049091FF0490938900809388008091F9
:1059300000058093F3042091E8043091E90440913C
:10594000EA045091EB04E091BA04F091BB04808921
:105950009189A289B389281739074A075B0780F024
:105960001092BB041092BA049091B4148091B514B3
:10597000981731F08091B5148F5F8F708093B514B4
:10598000FF91EF91DF91CF91BF91AF919F918F9157
:105990007F916F915F914F913F912F911F910F9147
:1059A000FF90EF90DF90CF90BF90AF900F900BBE25
:1059B0000F900FBE0F901F9018958091EE048823D2
:1059C00049F48091F004882329F48091F20488231B
:1059D00009F49CC0E3E5F9E0949108C08091C0000F
:1059E00085FFFCCF9093C600319694919923B1F72F
:1059F000E5E9F9E0949108C08091C00085FFFCCFF3
:105A00009093C600319694919923B1F78091EE045A
:105A10008823F1F06091BC047091BD048091BE04B4
:105A20009091BF040E9461F62091430F3091440F82
:105A30004091450F5091460F0E94C6F5AB01BC0145
:105A400081E999E00E944B8281E899E00E94736DA0
:105A50008091F0048823F1F06091C0047091C1043A
:105A60008091C2049091C3040E9461F62091470F77
:105A70003091480F4091490F50914A0F0E94C6F54E
:105A8000AB01BC018DE799E00E944B828DE699E065
:105A90000E94736D8091F2048823F1F06091C40438
:105AA0007091C5048091C6049091C7040E9461F66C
:105AB00020914B0F30914C0F40914D0F50914E0F54
:105AC0000E94C6F5AB01BC0189E699E00E944B82B9
:105AD00089E599E00E94736DE4E1F2E007C08091EE
