:100000000C945D250C948A250C948A250C948A25E1
:100010000C948A250C948A250C948A250C948A25A4
:100020000C948A250C948A250C948A250C948A2594
:100030000C948A250D94FE280C948A250C948A250C
:100040000C948A250C9422C00C948A250C948A2541
:100050000C948A250C948A250C942B760D945525A6
:100060000C948A250C9495960C948A250C948A25D8
:100070000C948A250C948A250C948A250C948A2544
:100080000C948A250C948A250C948A250C948A2534
:100090000C948A250C948A250C948A250D94B91DFC
:1000A0000C948A250C948A250C948A250C948A2514
:1000B0000C948A250C948A250C948A250C948A2504
:1000C0000C948A250C948A250C948A250C948A25F4
:1000D0000C948A250C948A250C948A250C948A25E4
:1000E0000C948A25084AD73B3BCE016E84BCBFFDE9
:1000F000C12F3D6C74319ABD56833DDA3D00C77FF8
:1001000011BED9E4BB4C3E916BAAAABE0000008090
:100110003F05A84CCDB2D44EB93836A9020C50B91F
:10012000918688083CA6AAAA2ABE000000803F004B
:1001300000000000000000000000007FFFE0000061
:10014000000000000000000000007000E00000005F
:10015000000000000000000000630C6000000000D0
:100160000000000000000000470E2000000000001A
:10017000000000000000004F0F2000000000000001
:100180000000000000005F0FA00000000000000061
:1001900000000000005E07A07F800000000000005B
:1001A00000410400406020FFC0000000000000008B
:1001B00020820040F020FFC000000000000000206E
:1001C000820040F020FFC000000000000000410459
:1001D000004060207F8000000000000000820800D6
:1001E0005E07A07F80000000000000010410005F97
:1001F0000FA0FFC0000000000000010410004F0F1E
:1002000020FFC000000000000000820800470E2010
:10021000FFC000000000000000410400630C603FCC
:1002200000000000000000000000007000E01E0060
:1002300000000000000001FFFF807FFFE00C0000D5
:10024000000000000001FFFF80000000000000002F
:1002500000000000000000007FFFE0000000000040
:10026000000000000000007000E00000000000003E
:1002700000000000000061F86000000000000000C5
:10028000000000000041F820000000000000000015
:100290000000000040F0200000000000000000000E
:1002A000000000406020000000000000000000008E
:1002B00000005801A07F8000000000000000410401
:1002C000005C63A0FFC0000000000000002082006E
:1002D0005EF7A0FFC0000000000000002082005E6A
:1002E000F7A0FFC0000000000000004104005C63B4
:1002F000A07F80000000000000008208005801A0DC
:100300007F8000000000000001041000406020FF1A
:10031000C00000000000000104100040F020FFC0F9
:100320000000000000000082080041F820FFC0002B
:1003300000000000000041040061F8603F00000080
:1003400000000000000000007000E01E000000003F
:1003500000000001FFFF807FFFE00C0000000000B4
:10036000000001FFFF8000000059002D2D3A2D2DC7
:1003700020202D2D2E2D250020202031303025004D
:10038000202000B02000B02000000000000000008D
:10039000000000000000000000000000000000005D
:1003A0000000000000000000000000000C00000041
:1003B000000000000C00000000000000120000001F
:1003C00000000000230000000000000021000000E9
:1003D000000000004C800000000000005E80000073
:1003E000000000009240000000000000A14000005A
:1003F0000000000121200000000000027F900000AA
:10040000000000020010000000000007FFF80000DC
:1004100000000004000800000000000800040000C4
:1004200000000008000600000000001000020000AC
:10043000000000301E010000000000207F8100004D
:1004400000000041FFE0800000000043FCF080005D
:10045000000000873B7840000000018EDBFC60005C
:100460000000010FEBCC20000000021FEDB61000D1
:100470000000021FDEB6100000000439CD7F080026
:1004800000000436E0FF08000000087EC0BB8400C6
:100490000000187F005D86000000107FC0ED820024
:1004A0000000203CC07301000000203B337F0100AE
:1004B0000000701BE77E03800000C81DEEDE04C054
:1004C0000000880FDEDC04400001240FDF3C09201F
:1004D00000012607DBF8192000027203E7F01390F1
:1004E00000025101FFE02290000489007F8024482F
:1004F000000904801E004824000BFE400000DFF4C9
:100500000010004000008002001FFFFFFFFFFFFE01
:1005100000000000000000000000000000000000DB
:100520000000000000000000001022103C3C0E1FE4
:1005300000102210042211040010221008221104BD
:1005400000102210083C1104001022101022110487
:100550000010221020221104001E1C1E3C3C0E0420
:10056000000000000000000000000000000000008B
:10057000000000000000000000000000000000007B
:10058000000000000000000000000000000000006B
:10059000000000000000000000000000000000005B
:1005A000000000000000000000000000000000004B
:1005B000000000000000000000000000000000003B
:1005C000000000000000004E6F2053442063617261
:1005D00064005072696E742066726F6D205344001F
:1005E00053746F70207072696E7400526573756D0C
:1005F00065207072696E7400506175736520707249
:10060000696E7400436F6E66696775726174696FB5
:100610006E0054656D7065726174757265004D6F22
:1006200076656D656E740054756E6500496E666F13
:100630002073637265656E005072696E7420667215
:100640006F6D205344005072696E742066726F6D36
:1006500020534400F92E2E004D61696E004D323456
:10066000004D3233202573005072696E7420616230
:100670006F7274656400526573746F726520746F75
:1006800020466163746F7279004C6F6164207365FA
:100690007474696E67730053617665207365747452
:1006A000696E677300416476616E6365642073658B
:1006B0007474696E6773004D61696E00457374658B
:1006C00070732F6D6D004573746570732F6D6D00C1
:1006D0005A73746570732F6D6D005A7374657073FF
:1006E0002F6D6D005973746570732F6D6D005973A4
:1006F000746570732F6D6D005873746570732F6D12
:100700006D005873746570732F6D6D00412D7265A7
:10071000747261637400412D726574726163740058
:10072000416D6178206500416D6178206500416D03
:100730006178207A00416D6178207A00416D61789E
:10074000207900416D6178207900416D61782078D1
:1007500000416D61782078005654726176206D6991
:100760006E005654726176206D696E00566D696E2A
:1007700000566D696E00566D6178206500566D619A
:1007800078206500566D6178207A00566D6178207A
:100790007A00566D6178207900566D617820790075
:1007A000566D6178207800566D6178207800566526
:1007B0002D6A65726B0056652D6A65726B00567AFC
:1007C0002D6A65726B00567A2D6A65726B005678D9
:1007D000792D6A65726B005678792D6A65726B00A7
:1007E000416363656C00416363656C005A204F662A
:1007F0006673657400436F6E6669677572617469CC
:100800006F6E005A204F6666736574007F80FFC06C
:10081000FFC0FFC07F807F80FFC0FFC0FFC03F00E0
:100820001E000C00FFFFFF001FE0003030004008FA
:1008300000800401800601000207C002038002015B
:100840000002000002000002000006000004000098
:1008500008003030001FE006000600060006000613
:100860000006003FC01F800F00060007F8000C0CB8
:10087000001002002001006001804000804003E081
:100880004001C040008040000040000060000020A7
:1008900000001000000C0C0007F80006000F001FFD
:1008A000803FC0060006000600060006000600069F
:1008B000000F001F803FC00600060006000600066D
:1008C00000060006000600060006000600060006F8
:1008D00000060006000600060006003FC01F800F4D
:1008E000000600436F6F6C646F776E0046616E2088
:1008F00073706565640046616E20737065656400A1
:1009000042656400426564004E6F7A7A6C65004E01
:100910006F7A7A6C65004D61696E004D6F76652067
:1009200061786973004D38340044697361626C65A5
:1009300020737465707065727300473238004175BA
:10094000746F20686F6D65004D61696E004D6F7644
:100950006520302E316D6D004D6F766520316D6DE7
:10096000004D6F76652031306D6D004D6F76656D91
:10097000656E74004578747275646572004D6F76AB
:1009800065205A004D6F76652059004D6F766520C1
:1009900058004D6F766520617869730045787472F0
:1009A00075646572005A00590058004D36303000A9
:1009B0004368616E67652066696C616D656E740081
:1009C0004170707278204C6179657200417070726C
:1009D00078204C617965720046616E2073706565A0
:1009E000640046616E20737065656400466C6F77C5
:1009F00000466C6F770042656400426564004E6F8C
:100A00007A7A6C65004E6F7A7A6C65005370656512
:100A100064005370656564004D61696E004C756CCF
:100A20007A426F742054415A20362072656164798D
:100A30002E004361726420696E7365727465640090
:100A40004D33303020533639382050323030004D5D
:100A500033303020533635392050323030000006E4
:100A60000900FE06018902FE20FFFE07FE06FE00C9
:100A70000000060007010606060200808080800054
:100A800080030303060103A0A0A00507070600FFDB
:100A90005050F850F850500509090600FE2070A883
:100AA000A07028A870200608080600FF40A848107B
:100AB000204854080507070600FF60909060989052
:100AC000680103030602038080800207070602FF15
:100AD000408080808080400207070602FF804040FF
:100AE000404040800505050600008850F850880504
:100AF00005050600002020F820200204040602FE5E
:100B0000C0404080050101060002F8020202060210
:100B100000C0C004060606010010102040808004BA
:100B2000060606010060909090906003060606019C
:100B30000040C0404040E0040606060100609010FE
:100B40002040F0040606060100F020601010E005C9
:100B5000060606000010305090F810040606060144
:100B600000F080E01010E00406060601006080E05E
:100B7000909060040606060100F01010204040042A
:100B8000060606010060906090906004060606016B
:100B900000609090701060020505060200C0C00061
:100BA000C0C00207070602FEC0C000C0404080056A
:100BB00005050600001860806018050303060001A3
:100BC000F800F8050505060000C0300830C004072D
:100BD0000706010060901060400040050606060010
:100BE000007090A8B08070050606060000205088AE
:100BF000F88888050606060000F088F08888F0046A
:100C000006060601006090808090600406060601DA
:100C100000E090909090E0040606060100F080E06D
:100C20008080F0040606060100F080E080808004E9
:100C30000606060100609080B0906004060606017A
:100C4000009090F0909090030606060100E040406E
:100C50004040E005060606000038101010906004C1
:100C6000060606010090A0C0A090900406060601AA
:100C7000008080808080F005060606000088D8A8E5
:100C8000A8888804060606010090D0B090909005D0
:100C9000060606000070888888887004060606012B
:100CA00000E09090E080800407070601FF609090CC
:100CB000D0B06010040606060100E09090E090902D
:100CC00004060606010060904020906005060606B6
:100CD0000000F82020202020040606060100909045
:100CE00090909060040606060100909090F060607D
:100CF0000506060600008888A8A8D8880506060606
:100D000000008850202050880506060600008888CC
:100D100050202020040606060100F010204080F03C
:100D2000030606060100E080808080E004060606D7
:100D30000100808040201010030606060100E0201C
:100D4000202020E005030306000320508805010150
:100D50000600FEF8020202060204804004040406B3
:100D60000100709090700406060601008080E090FB
:100D700090E00404040601007080807004060606FA
:100D8000010010107090907004040406010060B01F
:100D9000C070040606060100205040E040400406F2
:100DA000060601FE609090701060040606060100C1
:100DB0008080E09090900306060601004000C0404D
:100DC00040E00308080601FE200060202020A0402B
:100DD0000406060601008080A0C0A0900306060657
:100DE0000100C040404040E0050404060000D0A8D7
:100DF000A888040404060100E0909090040404060E
:100E00000100609090600406060601FEE09090E00C
:100E100080800406060601FE709090701010040495
:100E200004060100A0D0808004040406010070C004
:100E300030E00406060601004040E0405020040473
:100E40000406010090909070040404060100909044
:100E5000606005040406000088A8A8500404040685
:100E60000100906060900406060601FE909090706C
:100E70009060040404060100F02040F00307070618
:100E80000100204040804040200107070602FF800B
:100E9000808080808080030707060100804040201A
:100EA00040408004020206010350A0FFFFFFFFFF45
:100EB000FFFFFFFFFFFFFFFFFFFFFFFFFFFFFFFF42
:100EC000FFFFFFFFFFFFFFFFFFFFFFFF0000000628
:100ED000000701060606020080008080808004066C
:100EE000060601FF2070A0A070200507070600FF7E
:100EF000304840F04040F8050505060000A850883D
:100F000050A80506060600008850F820F8200107C2
:100F1000070602FF808080008080800407070601AA
:100F2000FF708060906010E0030101060105A006DB
:100F30000707060000788494A494847803050506C6
:100F4000010160A06000E00505050600002850A032
:100F50005028040303060100F010100401010601EB
:100F600002F00607070600007884B4A4A48478047D
:100F70000101060105F0040303060102609060050B
:100F800007070600FF2020F8202000F803050506CB
:100F9000010140A02040E0030505060101C02040FA
:100FA00020C002020206020440800405050601FF7B
:100FB0009090B0D08005060606000078E8E8682822
:100FC00028010101060202800202020602FE4080A0
:100FD00003050506010140C04040E0030505060188
:100FE0000140A04000E0050505060000A050285083
:100FF000A00508080600FF40C0405070307810057A
:1010000008080600FF40C04050680810380508086E
:101010000600FFC0204030F03078100407070601BA
:101020000020002060809060050707060000402037
:101030002050708888050707060000102020507097
:101040008888050707060000205020507088880512
:1010500007070600002850205070888805070706FB
:101060000000500020507088880507070600002007
:1010700050205070888805060606000078A0F0A071
:10108000A0B80408080601FE6090808090602040AF
:101090000407070601004020F080E080F004070705
:1010A0000601002040F080E080F004070706010000
:1010B0002050F080E080F00407070601005000F0A7
:1010C00080E080F00307070601008040E0404040D8
:1010D000E00307070601002040E0404040E003072E
:1010E0000706010040A0E0404040E003070706017A
:1010F00000A000E0404040E0050606060000704801
:10110000E848487004070706010050A090D0B0904E
:10111000900407070601004020609090906004074B
:1011200007060100204060909090600407070601C8
:10113000002050609090906004070706010050A0C6
:101140006090909060040707060100500060909046
:1011500090600505050600008850205088040808A6
:101160000601FF1070B0B0D0D0E080040707060180
:1011700000402090909090600407070601002040F6
:101180009090909060040707060100205090909086
:101190009060040707060100500090909090600551
:1011A00007070600001020885020202004060606AD
:1011B000010080E09090E080040606060100609047
:1011C000A0A090A0040707060100402000709090A6
:1011D000700407070601002040007090907004071B
:1011E0000706010020500070909070040707060168
:1011F0000050A00070909070040606060100500098
:1012000070909070040707060100205020709090A5
:101210007005040406000070A8B0780406060601F4
:10122000FE70808070204004070706010040200007
:1012300060B0C07004070706010020400060B0C025
:101240007004070706010020500060B0C07004065B
:1012500006060100500060B0C070030707060100D9
:10126000804000C04040E003070706010020400026
:10127000C04040E003070706010040A000C0404016
:10128000E0030606060100A000C04040E004070796
:10129000060100306010709090600407070601009E
:1012A00050A000E090909004070706010040200045
:1012B0006090906004070706010020400060909055
:1012C000600407070601002050006090906004074A
:1012D0000706010050A00060909060040606060119
:1012E000005000609090600505050600002000F8A1
:1012F000002004040406010070B0D0E004070706D3
:101300000100402000909090700407070601002023
:101310004000909090700407070601002050009054
:1013200090907004060606010050009090907004A2
:1013300009090601FE20400090909070906004081A
:10134000080601FE8080E09090E080800408080696
:1013500001FE500090909070906000060900FE071A
:101360000199032B20FFFE08FE07FE000000060087
:101370000001070706020080808080800080030350
:1013800003060104A0A0A00507070600005050F8BE
:1013900050F850500507070600002070A070287014
:1013A0002005070706000048A8502050A890050710
:1013B0000706000040A0A040A890680103030602B1
:1013C0000480808003070706010020408080804061
:1013D00020030707060100804020202040800505EB
:1013E000050600018850F850880505050600012013
:1013F00020F820200303030601FF6040800501015F
:10140000060003F80303030601FF40E04005070759
:10141000060000080810204080800507070600002D
:10142000205088888850200507070600002060A00B
:10143000202020F80507070600007088083040804B
:10144000F8050707060000F808103008887005073F
:101450000706000010305090F8101005070706002E
:1014600000F880B0C8088870050707060000304003
:1014700080B0C88870050707060000F80810102023
:10148000404005070706000070888870888870054E
:1014900007070600007088986808106003070706B1
:1014A00001FF40E0400040E0400307070601FF4025
:1014B000E0400060408004070706010010204080E3
:1014C000402010050303060002F800F80407070691
:1014D00001008040201020408005070706000070B2
:1014E000881020200020050707060000708898A8B3
:1014F000B0807005070706000020508888F88888AB
:10150000050707060000F04848704848F00507073F
:10151000060000708880808088700507070600003C
:10152000F04848484848F0050707060000F8808062
:10153000F08080F8050707060000F88080F08080C2
:10154000800507070600007088808098887005076E
:1015500007060000888888F888888803070706013E
:1015600000E04040404040E005070706000038101A
:1015700010101090600507070600008890A0C0A01A
:101580009088050707060000808080808080F8052D
:1015900007070600008888D8A888888805070706F6
:1015A00000008888C8A8988888050707060000708A
:1015B000888888888870050707060000F08888F00A
:1015C0008080800508080600FF7088888888A870D9
:1015D00008050707060000F08888F0A09088050736
:1015E00007060000708880700888700507070600ED
:1015F00000F820202020202005070706000088880A
:1016000088888888700507070600008888885050F9
:101610005020050707060000888888A8A8D88805F4
:1016200007070600008888502050888805070706AD
:10163000000088885020202020050707060000F8B9
:101640000810204080F8030707060100E080808032
:101650008080E00507070600008080402010080811
:10166000030707060100E02020202020E0050303F7
:101670000600042050880501010600FFF80202025E
:101680000602068040050505060000700878887887
:101690000507070600008080B0C888C8B0050505AA
:1016A000060000708880887005070706000008089B
:1016B00068988898680505050600007088F88070AD
:1016C000050707060000304840F040404005070786
:1016D0000600FE78888878088870050707060000ED
:1016E0008080B0C88888880307070601004000C0D2
:1016F000404040E00409090601FE100030101010BF
:1017000090906005070706000080808890E0908830
:10171000030707060100C04040404040E0050505C2
:10172000060000D0A8A8A888050505060000B0C8D6
:101730008888880505050600007088888870050778
:10174000070600FEB0C888C8B080800507070600FD
:10175000FE68988898680808050505060000B0C866
:1017600080808005050506000070807008F0050780
:10177000070600004040F0404048300505050600DF
:1017800000888888986805050506000088885050FC
:10179000200505050600008888A8A850050505064F
:1017A000000088502050880507070600FE888898AA
:1017B00068088870050505060000F8102040F80448
:1017C0000707060100304020C0204030010707060F
:1017D000020080808080808080040707060100C0AE
:1017E0002040304020C005030306000448A89000B4
:1017F00000000100000000000100000000000100E6
:1018000000000000010000000000010000000000D6
:1018100001000000000001000000000001000000C5
:1018200000000100000000000100000000000100B5
:1018300000000000010000000000010000000000A6
:101840000100000000000100000000000100000095
:101850000000010000000000010000000000010085
:101860000000000001000000000001000000000076
:101870000100000000000100000000000100000065
:101880000000010000000000010000000000010055
:101890000000000001000000000001000000000046
:1018A0000100000000000100000000000100000035
:1018B000000001000000000006000001070706020A
:1018C00000800080808080800507070600FF207868
:1018D000A0A0A07820050707060000304840E0409F
:1018E00048B0050505060000887050708805080896
:1018F0000600FF88885020F82020200107070602F4
:1019000000808080008080800508080600FF7080CD
:10191000E09048380870030101060107A005070799
:101920000600007088A8C8A8887004060606010191
:101930007090B05000F0060505060000244890485D
:1019400024040202060102F010040101060103F062
:101950000507070600007088E8C8C88870050101FF
:10196000060007F803030306010440A0400506062D
:101970000600002020F82020F80405050601036079
:10198000902040F0040505060103E0106010E0021D
:10199000020206020640800506060600FF888888C7
:1019A000C8B08005070706000078E8E868282828FE
:1019B000010101060203800202020602FE408003CA
:1019C000050506010340C04040E00406060601018B
:1019D0006090906000F006050506000090482448DD
:1019E000900609090600FF40C04040E40C143C0486
:1019F0000609090600FF40C04040E81404081C0521
:101A000009090600FFC0204020C8182878080507EB
:101A10000706000020002020408870050808060006
:101A2000004020708888F8888805080806000010A3
:101A300020708888F8888805080806000020507003
:101A40008888F8888805080806000048B0708888EB
:101A5000F888880508080600005000708888F88813
:101A6000880508080600002050708888F8888806D5
:101A700007070600003C50909CF0909C0509090661
:101A800000FE70888080808870204005080806006D
:101A90000040F88080F08080F805080806000010FB
:101AA000F88080F08080F805080806000020F880A3
:101AB00080F08080F805080806000050F88080F06B
:101AC0008080F80308080601008040E04040404064
:101AD000E00308080601002040E040404040E003E9
:101AE000080806010040A0E040404040E00308082C
:101AF000060100A000E040404040E0050707060066
:101B000000F04848E84848F005080806000028505A
:101B100088C8A898888805080806000040207088B2
:101B2000888888700508080600001020708888885A
:101B30008870050808060000205070888888887022
:101B400005080806000028507088888888700508F5
:101B50000806000050007088888888700505050612
:101B600000008850205088050707060000709898EC
:101B7000A8C8C87005080806000040208888888822
:101B800088700508080600001020888888888870FA
:101B9000050808060000205000888888887005081D
:101BA00008060000500088888888887005080806A4
:101BB000000010208888502020200507070600001C
:101BC00080F088F08080800507070600007088900C
:101BD000A09088B005080806000040200070087832
:101BE00088780508080600001020007008788878BA
:101BF000050808060000205000700878887805085D
:101C00000806000028500070087888780507070645
:101C10000000500070087888780508080600002049
:101C20005020700878887806050506000078147C36
:101C3000907C0507070600FE7088808870204005AC
:101C400008080600004020007088F8807005080829
:101C50000600001020007088F88070050808060053
:101C6000002050007088F8807005070706000050BB
:101C7000007088F88070030808060100804000C0EA
:101C8000404040E0030808060100408000C040409A
:101C900040E003080806010040A000C0404040E0CA
:101CA000060A0A0600FEA4A800FC8480808084FC4A
:101CB000060A0A0600FE549400FC8404040484FC12
:101CC000050808060000285000B0C8888888050864
:101CD000080600004020007088888870040A0A0600
:101CE00002FE30408090909090909090040A0A06F6
:101CF00000FEC020109090909090909006070706EC
:101D00000001448C8C8480403C0607070600018853
:101D1000C4C4840408F00505050600012000F8008D
:101D20002005080806000040F0C88888987810054B
:101D30000808060000E0F88888888888F805050506
:101D40000600012030F83020050808060000207049
:101D5000F820202020E00509090600FF2070A8A82F
:101D6000B8888850200509090600FFE080C0B0A8A7
:101D7000A83028280509090600FFF8A8888888885F
:101D800088A8F8050A0A0600FE205050505088A87E
:101D9000A8887043616E6E6F7420656E74657220E2
:101DA0007375626469723A20004D3234004D3233EB
:101DB000202573006175746F25692E670065727246
:101DC0006F722077726974696E6720746F2066691C
:101DD0006C65004E6F74205344207072696E746994
:101DE0006E67002F005344207072696E74696E67CD
:101DF000206279746520002E0044656C6574696FFB
:101E00006E206661696C65642C2046696C653A20B9
:101E10000046696C652064656C657465643A002EE3
:101E2000006F70656E206661696C65642C20466980
:101E30006C653A200057726974696E6720746F2070
:101E400066696C653A20002E006F70656E206661D1
:101E5000696C65642C2046696C653A20002E006F21
:101E600070656E206661696C65642C2046696C65DE
:101E70003A200046696C652073656C65637465641F
:101E8000002053697A653A200046696C65206F70BE
:101E9000656E65643A20002E006F70656E20666185
:101EA000696C65642C2046696C653A20004E6F773A
:101EB0002066726573682066696C653A20004E6F13
:101EC0007720646F696E672066696C653A2000222E
:101ED00020706F73002220706172656E743A220068
:101EE000535542524F5554494E452043414C4C2086
:101EF0007461726765743A2200747279696E672042
:101F0000746F2063616C6C207375622D67636F64FE
:101F1000652066696C6573207769746820746F6FDB
:101F2000206D616E79206C6576656C732E204D4155
:101F300058206C6576656C2069733A0053442063C1
:101F4000617264206F6B006F70656E526F6F7420EA
:101F50006661696C656400766F6C756D652E696E7F
:101F60006974206661696C656400534420696E6918
:101F700074206661696C004572723A204D41585474
:101F8000454D50204245440054656D706572617442
:101F9000757265206865617465642062656420738C
:101FA00077697463686564206F66662E204D4158BA
:101FB00054454D50207472696767657265642021CD
:101FC00021004572723A204D494E54454D50003A19
:101FD00020457874727564657220737769746368DC
:101FE0006564206F66662E204D494E54454D502045
:101FF0007472696767657265642021004572723A80
:10200000204D415854454D50003A20457874727522
:10201000646572207377697463686564206F6666AF
:102020002E204D415854454D5020747269676765A4
:10203000726564202100544845524D414C20525550
:102040004E4157415900546865726D616C2052755C
:102050006E617761792C2073797374656D20737468
:102060006F7070656421204865617465725F4944D2
:102070003A2000202D20496E76616C6964206578D5
:10208000747275646572206E756D626572202100D0
:102090001000C90210012C01400122017001180139
:1020A000B0010E01F00104015002FA00B002F0008C
:1020B0003003E600D003DC009004D2007005C800B5
:1020C000A006BE000008B400B009AA00D00BA00012
:1020D000600E960060118C000015820020197800B7
:1020E000C01D6E00A0226400B0275A00902C500042
:1020F00000314600E0343C0010383200903A2800AD
:10210000603C1E00A03D1400803E0A00203F0000FD
:102110001000AD0330016A0150022B0170030A0167
:102120009004F500B005E500D006D800F007CE0019
:102130001009C500300ABE00500BB700700CB1008A
:10214000900DAB00B00EA600D00FA200F0109D00C5
:1021500010129900301395005014920070158E00E3
:1021600090168B00B0178700D0188400F0198100FA
:10217000101B7E00301C7B00501D7900701E760005
:10218000901F7300B0207000D0216E00F0226B0011
:102190001024690030256600502663007027610016
:1021A00090285E00B0295C00D02A5900F02B560020
:1021B000102D5400302E5100502F4E0070304B0027
:1021C00090314800B0324500D0334200F0343E0038
:1021D00010363B00303737005038330070392E004E
:1021E000903A2900B03B2300D03C1B00F03D110089
:1021F000103F0100F03F000048656174696E672080
:102200006661696C656400504944204175746F745F
:10221000756E652066696E69736865642120507506
:102220007420746865206C617374204B702C204B93
:102230006920616E64204B6420636F6E7374616EFD
:1022400074732066726F6D2061626F766520696EAF
:10225000746F20436F6E66696775726174696F6E23
:102260002E6800504944204175746F74756E652066
:102270006661696C6564212074696D656F757400B1
:1022800020403A006F6B20543A006F6B20423A00B6
:10229000504944204175746F74756E65206661699C
:1022A0006C6564212054656D70657261747572652A
:1022B00020746F6F206869676800204B643A2000C3
:1022C000204B693A2000204B703A200020436C617B
:1022D000737369632050494420002054753A2000EC
:1022E000204B753A2000206D61783A2000206D69FE
:1022F0006E3A200020643A200020626961733A201F
:102300000000002110422063308440A550C660E7E1
:1023100070088129914AA16BB18CC1ADD1CEE1EF9A
:10232000F13112100273325222B5529442F772D632
:1023300062399318837BB35AA3BDD39CC3FFF3DEEA
:10234000E36224433420040114E664C774A4448582
:10235000546AA54BB528850995EEE5CFF5ACC58D3A
:10236000D55336722611163006D776F6669556B4D2
:10237000465BB77AA719973887DFF7FEE79DD7BC8A
:10238000C7C448E5588668A7784008611802282322
:1023900038CCC9EDD98EE9AFF9488969990AA92BDA
:1023A000B9F55AD44AB77A966A711A500A333A1272
:1023B0002AFDDBDCCBBFFB9EEB799B588B3BBB1A2A
:1023C000ABA66C877CE44CC55C222C033C600C41C2
:1023D0001CAEED8FFDECCDCDDD2AAD0BBD688D497A
:1023E0009D977EB66ED55EF44E133E322E511E7012
:1023F0000E9FFFBEEFDDDFFCCF1BBF3AAF599F78CA
:102400008F8891A981CAB1EBA10CD12DC14EF16F7A
:10241000E18010A100C230E32004502540467067DF
:1024200060B9839893FBA3DAB33DC31CD37FE35E0B
:10243000F3B1029012F322D232354214527762562F
:1024400072EAB5CBA5A89589856EF54FE52CD50D1B
:10245000C5E234C324A0148104667447642454057F
:1024600044DBA7FAB79987B8975FE77EF71DC73CAB
:10247000D7D326F2369106B01657667676154634CF
:10248000564CD96DC90EF92FE9C899E9898AB9ABBB
:10249000A94458654806782768C018E1088238A31F
:1024A000287DCB5CDB3FEB1EFBF98BD89BBBAB9A4B
:1024B000BB754A545A376A167AF10AD01AB32A926F
:1024C0003A2EFD0FED6CDD4DCDAABD8BADE89DC95B
:1024D0008D267C076C645C454CA23C832CE01CC1BF
:1024E0000C1FEF3EFF5DCF7CDF9BAFBABFD98FF8EB
:1024F0009F176E367E554E745E932EB23ED10EF00F
:102500001E7C3C3E5E2B3D3F2F5B5D3B2C2A225CBC
:102510000020746F6F206C6F6E6720657874727521
:1025200073696F6E2070726576656E7465640020E5
:10253000636F6C6420657874727573696F6E207058
:10254000726576656E7465640045313A20004530E9
:102550003A20005A3A2000593A2000583A20004DBB
:1025600053312C4D53322050696E730A0024F40409
:10257000D9201BC40C5C0E9804C4095F0265077166
:1025800001F405F900FB04B30048048700C10369A6
:10259000005803550003034500BE023A008402318F
:1025A0000053022A002902250004022000E4011C35
:1025B00000C8011900AF011700980114008401132D
:1025C00000710110006101100051010E0043010D66
:1025D0000036010B002B010B0020010B0015010937
:1025E000000C01090003010800FB000800F30008CB
:1025F00000EB000700E4000600DE000600D800063D
:1026000000D2000600CC000500C7000500C200058E
:1026100000BD000400B9000400B5000400B10004CE
:1026200000AD000400A9000400A5000300A20003FF
:10263000009F0004009B0003009800030095000227
:102640000093000300900003008D0002008B000344
:10265000008800020086000200840003008100025E
:10266000007F0002007D0002007B00020079000272
:102670000077000100760002007400020072000181
:1026800000710002006F0002006D0001006C00028A
:10269000006A000100690002006700010066000195
:1026A0000065000100640002006200010061000199
:1026B00000600001005F0002005D0001005C00019D
:1026C000005B0001005A00010059000100580001A0
:1026D00000570001005600010055000100540001A0
:1026E000005300000053000100520001005100019E
:1026F00000500001004F0001004E0000004E00019C
:10270000004D0001004C0001004B0000004B000197
:10271000004A000100490001004800000048000193
:10272000004700010046000000460001004500008F
:102730000045000100440001004300000043000187
:102740000042000000420001004100000041000181
:1027500000400001003F0000003F0001003E00007B
:10276000003E0001003D0000003D0001003C000073
:10277000003C0000003C0001003B0000003B000169
:10278000003A0000003A0001003900000039000161
:102790000038000000380000003800010037000059
:1027A000003700010036000000360000003600014E
:1027B0000035000000350000003500010034000045
:1027C000003400000034000100330000003300003A
:1027D000003300010032000000320000003200012E
:1027E0000031000000310000003100010030000025
:1027F0000030000000300001002F0000002F00001A
:10280000002F0000002F0001002E0000002E00000D
:10281000002E0001002D0000002D0000002D000002
:10282000002D0001002C0000002C0000002C0000F6
:10283000002C0001002B0000002B0000002B0000EA
:10284000002B0001002A0000002A0000002A0000DE
:10285000002A0001002900000029000000290000D2
:1028600000290000002900010028000000280000C5
:1028700000280000002800000028000100270000B8
:1028800000270000002700000027000000270001AB
:1028900000260000002600000026000000260000A0
:1028A0000026000100250000002500000025000092
:1028B0000025000000250000002500010024000084
:1028C0000024000000240000002400000024000177
:1028D000002300000023000000230000002300006C
:1028E000002300000023000000230001002200005C
:1028F0000022000000220000002200000022000050
:102900000022000100210000002100000021000041
:102910000021000000210000002100000021000132
:102920000020000000200000002000000020000027
:102930000020000000200000002000000020000116
:10294000001F0000001F0000001F0000001F00000B
:10295000001F0000001F0000001F0001001E0000FB
:10296000001E0000001E0000001E00000024F4D421
:102970003050C38E20C2A24017828B7011127A9100
:102980000D816CD90AA861E108C7586607615143F7
:10299000061E4B5D05C145A7041A411104093D9867
:1029A00003713931034036DB0265339102D4305470
:1029B00002802E1D02632CEE01752AC501B028A0ED
:1029C00001102781018F2564012B244B01E0223463
:1029D00001AC211F018D200D01801FFC00841EED24
:1029E00000971DDF00B81CD200E61BC600201BBCF0
:1029F00000641AB200B219A8000A19A0006A189956
:102A000000D117910040178B00B516840031167E57
:102A100000B31579003A157300C7146F0058146A93
:102A200000EE1366008813630025135E00C7125B77
:102A3000006C12570015125400C111510070114F53
:102A40000021114B00D61049008D1047004610445C
:102A50000002104200C00F4000800F3E00420F3CB9
:102A600000060F3B00CB0E3800930E37005C0E358E
:102A700000270E3400F30D3200C10D3100900D30EF
:102A800000600D2E00320D2D00050D2C00D90C2BF1
:102A900000AE0C2900850C29005C0C2700350C27A2
:102AA000000E0C2600E80B2400C40B2400A00B230E
:102AB000007D0B23005A0B2100390B2100180B203D
:102AC00000F80A1F00D90A1E00BB0A1E009D0A1D3D
:102AD00000800A1D00630A1C00470A1B002C0A1B09
:102AE00000110A1A00F7091A00DD091900C40919B2
:102AF00000AB091900920917007B09180063091738
:102B0000004C09160036091600200916000A09159E
:102B100000F5081500E0081400CC081400B80814EB
:102B200000A4081400900813007D0812006B08131D
:102B3000005808120046081200340811002308113A
:102B4000001208110001081100F0071000E0071042
:102B500000D0071000C0071000B0070F00A1071039
:102B60000091070E0083070F0074070F0065070E22
:102B70000057070E0049070E003B070D002E070EF9
:102B80000020070D0013070D0006070D00F9060CC5
:102B900000ED060D00E0060C00D4060C00C8060C83
:102BA00000BC060C00B0060C00A4060B0099060C35
:102BB000008D060B0082060B0077060B006C060BDF
:102BC0000061060A0057060B004C060A0042060A7E
:102BD0000038060A002E060A0024060A001A060A11
:102BE000001006090007060A00FD050900F40509A2
:102BF00000EB050900E2050900D9050900D0050927
:102C000000C7050900BE050900B5050800AD0508A7
:102C100000A50509009C050800940508008C05081E
:102C200000840508007C050800740508006C050791
:102C300000650508005D050700560508004E0507FC
:102C40000047050700400508003805070031050763
:102C5000002A050700230507001C050600160507C6
:102C6000000F0507000805060002050700FB040623
:102C700000F5040700EE040600E8040600E204077D
:102C800000DB040600D5040600CF040600C90406D4
:102C900000C3040600BD040600B7040600B1040525
:102CA00000AC040600A6040600A00405009B040670
:102CB0000095040500900406008A040500850405BB
:102CC00000800406007A0405007504050070040500
:102CD000006B04050066040500610405005C040542
:102CE0000057040500520405004D04050048040582
:102CF00000430405003E0404003A040500350405C1
:102D000000300404002C04050027040400230405FB
:102D1000001E0404001A0404001604050011040433
:102D2000000D040400090405000404040000040468
:102D300000FC030400F8030400F4030400F003049F
:102D400000EC030400E8030400E4030400E00304CF
:102D500000DC030400D8030400D4030400D00304FF
:102D600000CC030400C8030300C5030300656E64C0
:102D700073746F7073206869743A205A00205A3A4D
:102D800000656E6473746F7073206869743A2059BB
:102D90000020593A00656E6473746F70732068691F
:102DA000743A20580020583A00656E6473746F704E
:102DB00073206869743A20004572726F723A006538
:102DC00063686F3A0053544F505045442E200050D2
:102DD00072696E7465722073746F707065642064BC
:102DE000756520746F206572726F72732E2046694C
:102DF0007820746865206572726F7220616E64203D
:102E0000757365204D39393920746F20726573747C
:102E10006172742E202854656D70657261747572CC
:102E2000652069732072657365742E205365742064
:102E3000697420616674657220726573746172745E
:102E4000696E6729004B494C4C45442E2000507256
:102E5000696E7465722068616C7465642E206B699C
:102E60006C6C28292063616C6C65642100FF01FF94
:102E70006F6B00526573656E643A20002200556ED8
:102E80006B6E6F776E20636F6D6D616E643A20229A
:102E900000446179647265616D696E672E2E2E0043
:102EA000507265737320746F20726573756D650061
:102EB0005A204F6666736574203A20007A5F6D6110
:102EC000783A20007A5F6D696E3A20005A204F668A
:102ED00066736574005A204F6666736574206F6B65
:102EE000006C636420636F6E74726173742076612A
:102EF0006C75653A20007A5F6D61783A20007A5FE0
:102F000070726F62653A20007A5F6D696E3A2000D8
:102F1000795F6D61783A2000795F6D696E3A2000C3
:102F2000785F6D61783A2000785F6D696E3A2000B5
:102F3000204170707278204C617965723A00205A95
:102F40003A0020593A0020436F756E7420583A2099
:102F50000020453A00205A3A0020593A00583A00D9
:102F60004649524D574152455F4E414D453A4D619C
:102F7000726C696E20312E302E322E3139204C7514
:102F80006C7A426F7420466C65787920534F5552A5
:102F900043455F434F44455F55524C3A68747470E3
:102FA000733A2F2F636F64652E616C6570686F6272
:102FB0006A656374732E636F6D2F646966667573DB
:102FC000696F6E2F4D41524C494E2F2050524F5435
:102FD0004F434F4C5F56455253494F4E3A312E3076
:102FE000204D414348494E455F545950453A4C7530
:102FF0006C7A426F742054415A20362045585452FE
:10300000554445525F434F554E543A31205555492A
:10301000443A35363462616231632D373034632D82
:10302000343232352D623332392D616331613039BA
:103030003364323633380A004C756C7A426F742030
:1030400054415A2036204F66662E004C756C7A42E9
:103050006F742054415A20362072656164792E00C5
:1030600042656420436F6F6C696E6720646F6E65A4
:103070002E004265642048656174696E6720646F44
:103080006E652E0020573A0020423A0020453A0053
:10309000543A0042656420436F6F6C696E672E2E50
:1030A0002E004265642048656174696E672E2E2E7D
:1030B00000436F6F6C696E6720646F6E652E004809
:1030C000656174696E6720646F6E652E0020573AE3
:1030D0000020453A00543A00436F6F6C696E672ECA
:1030E0002E2E0048656174696E672E2E2E002042D8
:1030F000403A0020403A00202F003A00205400209F
:103100002F0020423A00202F006F6B20543A000A13
:103110000A005374616E646172642044657669616B
:1031200074696F6E3A20000A004D65616E3A2000A6
:103130000A002020207A3A200000793A2000783ACC
:1031400020003F537065636966696564206E756D24
:10315000626572206F66206C65677320696E206DF2
:103160006F76656D656E74206E6F7420706C61751E
:103170007361626C652E0A003F537065636966690E
:103180006564205920706F736974696F6E206F7564
:1031900074206F662072616E67652E0A003F53705F
:1031A00065636966696564205820706F7369746926
:1031B0006F6E206F7574206F662072616E67652E6A
:1031C0000A003F5370656369666965642073616DC9
:1031D000706C652073697A65206E6F7420706C6105
:1031E000757361626C652E0A0046756C6C20737590
:1031F00070706F72742061743A20687474703A2F22
:103200002F33647072696E74626F6172642E636FC3
:103210006D2F666F72756D2E7068700A004D3438B0
:10322000205A2D50726F626520526570656174611D
:1032300062696C69747920746573742E202020563D
:10324000657273696F6E20322E30300A003F56650A
:1032500072626F7365204C6576656C206E6F7420AA
:10326000706C61757361626C652E0A002569206D52
:10327000696E2C2025692073656300456E642066A5
:10328000696C65206C69737400426567696E2066BD
:10329000696C65206C697374004E6F206D6F766584
:1032A0002E004C756C7A426F742054415A2036209F
:1032B00072656164792E00526573756D696E672061
:1032C0007072696E74005761697420666F72207540
:1032D0007365722E2E2E000A00205A3A20002059C3
:1032E0003A200020583A20004265640050726F6214
:1032F000696E6720646F6E65210020643A200020AB
:10330000623A200045716E20636F65666669636985
:10331000656E74733A20613A200050524F42452046
:103320004641494C20434C45414E204E4F5A5A4C41
:10333000450050524F4245204641494C20434C45A0
:10334000414E204E4F5A5A4C45004175746F206CC7
:103350006576656C696E6700486F6D6520582F59FA
:10336000206265666F7265205A00486F6D6520584F
:103370002F59206265666F7265205A005A2070725C
:103380006F6265206F75742E20626564005A20702C
:10339000726F6265206F75742E2062656400486FDD
:1033A0006D6520582F59206265666F7265205A003E
:1033B000486F6D6520582F59206265666F726520D1
:1033C0005A0020643A200020623A200045716E20A5
:1033D000636F656666696369656E74733A20613A06
:1033E0002000446179647265616D696E672E2E2ECE
:1033F0000000809D430000A143000087430000A01F
:10340000400000A040000000400000D8C10000972C
:1034100043000000000000D8C10000A0C10000006F
:10342000000000904300009743000087430A0020FB
:103430007A3A200020793A200020783A200042652C
:1034400064005265776970696E67005265776970CC
:10345000696E6700256920686F7572732025692081
:103460006D696E7574657300446F6E652070726966
:103470006E74696E672066696C65004C756C7A4283
:103480006F742054415A20362072656164792E0091
:1034900053544F505045442E20005072696E74654D
:1034A000722073746F707065642064756520746F2A
:1034B000206572726F72732E204669782074686579
:1034C000206572726F7220616E6420757365204D85
:1034D00039393920746F20726573746172742E20CB
:1034E0002854656D7065726174757265206973200A
:1034F00072657365742E205365742069742061664B
:103500007465722072657374617274696E672900E4
:103510004E6F204C696E65204E756D626572207726
:1035200069746820636865636B73756D2C204C61EA
:103530007374204C696E653A20004E6F20436865B5
:10354000636B73756D2077697468206C696E652094
:103550006E756D6265722C204C617374204C696EBF
:10356000653A2000636865636B73756D206D6973E0
:103570006D617463682C204C617374204C696E65B6
:103580003A20004C696E65204E756D626572206947
:1035900073206E6F74204C617374204C696E6520CB
:1035A0004E756D6265722B312C204C617374204C0A
:1035B000696E653A20004D31313000446F6E6520F0
:1035C000736176696E672066696C652E006F6B00AB
:1035D0004D3239002020506C616E6E657242756606
:1035E00066657242797465733A200020467265659B
:1035F000204D656D6F72793A200046656220313644
:10360000203230313600436F6D70696C65643A204A
:1036100000286E6F6E652C2064656661756C742081
:10362000636F6E6669672900207C20417574686F3E
:10363000723A200046656220313620323031362021
:1036400031333A33383A333900204C6173742055A2
:103650007064617465643A2000312E302E322E3150
:103660003920466C65787973747275646572004DA3
:1036700061726C696E0020536F66747761726520A9
:10368000526573657400205761746368646F6720C6
:103690005265736574002042726F776E206F757487
:1036A000205265736574002045787465726E616C94
:1036B00020526573657400506F77657255700073A2
:1036C00074617274002200656E717565696E6720A1
:1036D00022002200656E717565696E6720220048C0
:1036E000617264636F6465642044656661756C74BF
:1036F0002053657474696E6773204C6F61646564F0
:103700000053746F7265642073657474696E6773B7
:10371000207265747269657665640020643A2000E1
:1037200020623A2000613A200045716E20636F6587
:103730006666696369656E74733A002044002049C7
:10374000002020204D333031205000504944207358
:10375000657474696E67733A00205A00205900201E
:10376000204D323036205800486F6D65206F6666F8
:1037700073657420286D6D293A00204500205A0099
:1037800020580020420020540020204D32303520A7
:103790005300416476616E6365642076617269618D
:1037A000626C65733A20533D4D696E2066656564B1
:1037B0007261746520286D6D2F73292C20543D4D46
:1037C000696E2074726176656C20666565647261ED
:1037D000746520286D6D2F73292C20423D6D696E14
:1037E000696D756D207365676D656E742074696DA4
:1037F0006520286D73292C20583D6D6178696D75A1
:103800006D205859206A65726B20286D6D2F7329C1
:103810002C20205A3D6D6178696D756D205A206AA3
:1038200065726B20286D6D2F73292C2020453D6D0E
:103830006178696D756D2045206A65726B20286D11
:103840006D2F73290020540020204D323034205336
:1038500000416363656C65726174696F6E3A2053F1
:103860003D616363656C65726174696F6E2C205491
:103870003D7265747261637420616363656C657227
:103880006174696F6E00204500205A0020590020A5
:10389000204D3230312058004D6178696D756D20B2
:1038A000416363656C65726174696F6E20286D6D2C
:1038B0002F7332293A00204500205A002059002059
:1038C000204D3230332058004D6178696D756D2080
:1038D00066656564726174657320286D6D2F732948
:1038E0003A00204500205A0020590020204D39324E
:1038F00020580053746570732070657220756E696E
:10390000743A0053657474696E67732053746F72F0
:103910006564000A0020000A00207A3A200020791D
:103920003A200020783A200001050800FF06012116
:10393000023520FFFF07FF06FF09005022165680C0
:103940008080800080153353A0A0A00257575050AC
:10395000F850F850500257572070A070287020136C
:10396000355580A040A02002475740A0A040A0A00D
:1039700050251353808080122656408080808040DE
:103980001226568040404040800245559060F060CD
:10399000900255552020F8202011335360408004B8
:1039A0004151F011335340E0400246561010204080
:1039B000808012365640A0A0A0A04012365640C0CB
:1039C000404040E00246566090106080F00246564B
:1039D000F020601090600246562060A0F020200287
:1039E0004656F080E01090600246566080E090906D
:1039F00060024656F010202040400246566090601B
:103A0000909060024656609090701060122555C0EC
:103A1000C000C0C01136566060006040801236564B
:103A2000204080804020034353F000F0123656803F
:103A3000402020408012365640A0204000400158CF
:103A400058304898A8A8904030024656609090F0B0
:103A50009090024656E090E09090E00246566090CA
:103A600080809060024656E090909090E00246562A
:103A7000F080E08080F0024656F080E08080800296
:103A80004656609080B090600246569090F09090BC
:103A900090123656E040404040E0024656702020EA
:103AA00020A04002465690A0C0A0A090024656809A
:103AB00080808080F002465690F0F0909090024610
:103AC0005690D0F0B0B090024656609090909060C2
:103AD000024656E09090E08080014757609090D079
:103AE000B06010024656E09090E09090024656601A
:103AF0009040209060123656E040404040400246E0
:103B00005690909090906002465690909090606091
:103B1000024656909090F0F0900246569090606069
:103B20009090025656888850202020024656F01069
:103B3000204080F0123656E080808080E0024656B9
:103B4000808040201010123656E020202020E01601
:103B5000325240A0014151F016225280400244549A
:103B6000709090700246568080E09090E01234543D
:103B7000608080600246561010709090700244542D
:103B800060B0C060024656205040E04040014555BC
:103B900060907010600246568080E09090901236DF
:103BA000564000C04040E01137572000202020A0A0
:103BB00040024656808090E09090123656C04040B9
:103BC0004040E0025454D0A8A8A8024454E0909089
:103BD0009002445460909060014555E090E08080F0
:103BE0000145557090701010024454A0D08080128E
:103BF000345460C020C00246564040E0405020028D
:103C0000445490909070123454A0A0A04002545498
:103C100088A8A85002445490606090014555909047
:103C2000709060024454F02040F00247573040202A
:103C3000C020403022165680808080808002475706
:103C4000C02040304020C006425250A0FFFFFFFF7E
:103C5000FFFFFFFFFFFFFFFFFFFFFFFFFFFFFFFF74
:103C6000FFFFFFFFFFFFFFFFFFFFFFFFFF09005008
:103C70002216568000808080800146562070A0A0C9
:103C800070200246562050E04050A00255558870E2
:103C90005070880256568850F820F8202217578016
:103CA0008080008080800247577080E0907010E034
:103CB000173151A002565670A8C8C8A870143555BF
:103CC00060A06000E003435350A050123353E02043
:103CD00020143151E002565670E8D8E8D8701731F8
:103CE00051E015335340A04012355540E04000E00C
:103CF00014355540A02040E0143555C020C020C0E8
:103D00001622524080014555909090E08002565610
:103D100078E8E86828282411518011225240801444
:103D2000355540C04040E014355540A04000E00308
:103D30004353A050A0024757808080A060F020022B
:103D400047578080A0D01020700247578040806085
:103D5000A0F02012365640004080A0400247574055
:103D6000206090F0909002475720406090F0909033
:103D700002475760906090F0909002475750A060C3
:103D800090F0909002475790006090F0909002471A
:103D90005760906090F0909002465670A0A0F0A0FE
:103DA000B0014757609080809060400247574020A4
:103DB000F080E080F00247572040F080E080F00281
:103DC00047576090F080E080F00247579000F08005
:103DD000E080F01237578040E0404040E012375713
:103DE0002040E0404040E012375740A0E0404040D3
:103DF000E0123757A000E0404040E00256567048BD
:103E0000E848487002475750A090D0B090900247C1
:103E100057402060909090600247572040609090FB
:103E200090600247576090609090906002475750B2
:103E3000A0609090906002475790006090909060D2
:103E4000123353A040A002465670B0B0D0D0E0026A
:103E500047574020909090906002475720409090A4
:103E60009090600247576090909090906002475702
:103E7000900090909090600257571020885020201A
:103E80002002465680E09090E0800246566090A066
:103E9000A090A002475740200070909070024757B2
:103EA0002040007090907002475720500070909012
:103EB0007002475750A00070909070024656500014
:103EC00070909070024757609060709090700254AC
:103ED00054F068B0781135556080806040024757D3
:103EE00040200060B0C06002475720400060B0C072
:103EF0006002475760900060B0C0600246565000B4
:103F000060B0C060123757804000C04040E01237B8
:103F100057204000C04040E012375740A000C0404A
:103F200040E0123656A000C04040E0024757A04093
:103F3000A01070906002475750A000E0909090024F
:103F40004757402000609090600247572040006033
:103F500090906002475760900060909060024757D1
:103F600050A0006090906002465690006090906073
:103F70001235554000E0004002445470B0D0E002D9
:103F80004757402000909090700247572040009083
:103F90009090700247576090009090907002465643
:103FA0009000909090700148582040009090709040
:103FB000600147578080E090E08080014757900083
:103FC000909070906001070E00FE0A018A031E2087
:103FD000FFFE0CFE0BFE0E0070321A7A808080808D
:103FE000808080008080293474A0A0A0A0125A7A1A
:103FF000505050F85050F8505050016B7B1078944E
:104000009450381494947810026A7A6494987010DA
:10401000203864A498026A7A30484848306494880A
:10402000986439147480808080204D7D1020404039
:10403000808080808040402010104D7D8040202076
:1040400010101010102020408013577720A87020E7
:1040500070A820135777202020F8202020202474D7
:10406000C0404080165171F821337340E040006D2C
:104070007D04040808101010202040408080026A4F
:104080007A30488484848484844830125A7A206048
:10409000A0202020202020F8026A7A788484040856
:1040A00008102040FC026A7AFC04081038040484DA
:1040B0008478026A7A08182828484888FC08080288
:1040C0006A7AFC8080F8840404848478026A7A38EE
:1040D000408080B8C484848478026A7AFC0408082A
:1040E000101020204040026A7A7884844830488446
:1040F000848478026A7A788484848C7404848870D6
:1041000022387840E040000040E040212878C0C0DC
:104110000000C040408012597908102040804020A3
:104120001008056474FC0000FC12597980402010CE
:104130000810204080026A7A7884840810101000E9
:104140001010026A7A38449CA4A4A4A49C403C02A7
:104150006A7A3048848484FC84848484026A7AF095
:10416000888488F088848488F0026A7A78848480DD
:10417000808080848478026A7AF08884848484844D
:104180008488F0026A7AFC808080F080808080FCE5
:10419000026A7AFC808080F08080808080026A7A67
:1041A00078848480809C84848C74026A7A84848479
:1041B00084FC8484848484125A7AF820202020206D
:1041C000202020F8026A7A1C080808080808888855
:1041D00070026A7A848890A0C0A090888484026A61
:1041E0007A808080808080808080FC026A7A84CCA3
:1041F000CCB4B48484848484026A7A8484C4C4A4DD
:10420000948C8C8484026A7A788484848484848400
:104210008478026A7AF884848484F88080808000BC
:104220006C7C788484848484E4948C780804026AA6
:104230007AF884848484F890888484026A7A788402
:104240008480601804848478027A7AFE101010103A
:104250001010101010026A7A848484848484848408
:104260008478026A7A8484848448484830303012E2
:104270005A7A888888888888A8A8A850026A7A8488
:10428000844848303048488484125A7A8888885054
:10429000502020202020026A7AFC040810102040C0
:1042A0004080FC204D7DF0808080808080808080F8
:1042B0008080F0006D7D808040402020201010081C
:1042C000080404104D7DF010101010101010101084
:1042D0001010F00A6373304884006171FC2A337354
:1042E0008040200267777884047C84847C026A7A28
:1042F000808080B8C4848484C4B80267777884805E
:1043000080808478026A7A040404748C8484848CA7
:1043100074026777788484FC808478026A7A18242F
:104320002020F82020202020006979748888887057
:1043300040B88478026A7A808080B8C48484848497
:1043400084125A7A202000602020202020F8105C5F
:104350007C080800180808080808888870026A7A2B
:104360008080808890A0E0908884125A7A60202013
:10437000202020202020F8125777D0A8A8A8A8A88D
:1043800088026777B8C484848484840267777884D9
:104390008484848478006979B8C4848484C4B880AF
:1043A00080006979748C8484848C74040402677737
:1043B000B8C4848080808002677778844030088425
:1043C00078026A7A202020F8202020202418026712
:1043D0007784848484848C741257778888885050BA
:1043E00020201257778888A8A8A8A8500267778449
:1043F000844830488484006979848484848C74047B
:104400008478026777FC0810202040FC204D7D3026
:10441000404040404080404040404030301D7D8022
:10442000808080808080808080808080104D7DC0F2
:104430002020202020102020202020C0096474404B
:10444000A49408FFFFFFFFFFFFFFFFFFFFFFFFFF39
:10445000FFFFFFFFFFFFFFFFFFFFFFFFFFFFFFFF6C
:10446000FFFFFFFF0E0070321A7A8080008080808C
:10447000808080800169792078A4A0A0A0A4782001
:1044800012597930484040F04040F0480466768444
:104490007848487884125A7A88505020F820F820BA
:1044A0002020321A7A808080800000808080800204
:1044B0006B7B78844030488448300884781B427293
:1044C0009090026B7B7884B4CCC4C4C4CCB48478A0
:1044D00015587870887888986800F80267771428EB
:1044E00050A0502814125474F8080808164171F0AE
:1044F000026B7B7884F4CCCCF4CCCCCC84781B518C
:1045000071F8194474609090601256762020F8205B
:1045100020F8164777609010204080F016477760AB
:104520009010601090602A33732040801058788873
:10453000888888D8A88080105C7C78A8A8A8A868FB
:10454000282828282838371171802023734040807C
:1045500026377740C040404040E016467660909055
:104560006000F0026777A05028142850A0026A7AF1
:1045700040C4484850242C549C84026A7A40C44861
:104580004850283444889C026A7AC4244830D02495
:104590004C549C04006B7B20200020202020408471
:1045A0008478026C7C20100030488484FC848484ED
:1045B00084026C7C10200030488484FC84848484D1
:1045C000026C7C30480030488484FC8484848402FB
:1045D0006C7C64980030488484FC84848484026BFE
:1045E0007B480030488484FC84848484026B7B3064
:1045F0004830488484FC84848484026A7A3C5090E5
:1046000090FC909090909C006C7C7884848080805A
:10461000808484781020026C7C201000FC808080D4
:10462000F8808080FC026C7C102000FC808080F888
:10463000808080FC026C7C304800FC808080F880A8
:104640008080FC026B7B4800FC808080F88080804A
:10465000FC125C7C402000F820202020202020F844
:10466000125C7C102000F820202020202020F8124E
:104670005C7C205000F820202020202020F8125BB5
:104680007B5000F820202020202020F8027A7A7821
:10469000444242F24242424478026C7C649800C434
:1046A000C4A4A49494948C8C026C7C201000788414
:1046B00084848484848478026C7C102000788484D0
:1046C000848484848478026C7C3048007884848478
:1046D0008484848478026C7C6498007884848484E4
:1046E00084848478026B7B48007884848484848406
:1046F000847802777782442810284482006E7E04F2
:1047000004788C949494A4A4A4C4788080026C7CD3
:10471000201000848484848484848478026C7C10D7
:104720002000848484848484848478026C7C30486F
:1047300000848484848484848478026B7B4800842D
:104740008484848484848478125C7C10200088882B
:1047500050502020202020026A7A8080F8848484AF
:1047600084F88080026A7A3048484870484444445B
:10477000F8026A7A2010007884047C84847C026ABF
:104780007A0810007884047C84847C026A7A304839
:10479000007884047C84847C026A7A64980078843B
:1047A000047C84847C02697948007884047C848455
:1047B0007C026B7B304830007884047C84847C02EB
:1047C00077777C92325E90927C00697978848080E1
:1047D0008084781020026A7A201000788484FC801B
:1047E0008478026A7A102000788484FC80847802BD
:1047F0006A7A304800788484FC8084780269794839
:1048000000788484FC808478125A7A4020006020EA
:1048100020202020F8125A7A10200060202020202A
:1048200020F8125A7A609000602020202020F81290
:1048300059795000602020202020F8125B7B502006
:10484000500878888888888870026A7A649800B8E6
:10485000C48484848484026A7A20100078848484E6
:10486000848478026A7A102000788484848484782E
:10487000026A7A30480078848484848478026A7A70
:104880006498007884848484847802697948007804
:104890008484848484780265753000FC0030006B69
:1048A0007B0408789494A4A4C4788080026A7A2057
:1048B000100084848484848C74026A7A10200084BA
:1048C000848484848C74026A7A304800848484846A
:1048D000848C74026979480084848484848C740094
:1048E0006C7C102000848444482838109060006C50
:1048F0007C808080B8C4848484C4B88080006B7B52
:104900004800848444482838109060000021002426
:104910000027002A002D00300033000101000004B0
:104920000107010A0100002200250028002B002EAB
:10493000003100340002010000050108010B0100F4
:104940000020002300260029002C002F0032000048
:104950000100000301060109010505050507050819
:10496000080808020202020A0A08080404040401F2
:104970000101010101010103030303030303030414
:104980000707070C0C0C0C0C0C0C0C0202020206A4
:10499000060606060606060B0B0B0B0B0B0B0B078E
:1049A000070A0A0A0A0A0A0505050401021020205E
:1049B0000808102040102040800201020108040273
:1049C00001010204081020408080402010080402E9
:1049D0000180040201804020100804020108040242
:1049E0000101020408102040800102040810204048
:1049F0008010080408801020400440801000000946
:104A00000A02080B0C0D0706030401000000000059
:104A10000000000000000000000000000000000096
:104A200000000000000000000011100F0000000056
:104A30000000000000000000000000000000000076
:104A400000000002494E46494E4954594E414ECD50
:104A5000CCCC3D0AD7233C17B7D13877CC2B329535
:104A600095E6241FB14F0A000020410000C8420013
:104A7000401C4620BCBE4CCA1B0E5AAEC59D7400DD
:104A80000D9425250D94271D0D94011D0D946F1D6A
:104A90000D9423200D94F81C0D943F1D0D940524B6
:104AA0000D9458280D94281D0D94161D0D94CE1CA0
:104AB000C0602997BACB5225B5CB11241FBECFEFCA
:104AC000D1E2DEBFCDBF00E00CBF15E0A0E0B2E058
:104AD000ECE6F3E602E00BBF02C007900D92AC3BA0
:104AE000B107D9F71BBE16E1ACEBB5E001C01D92D2
:104AF000A33CB107E1F71AE4C8EBDAE404C022975B
:104B0000FE010F945C31C03BD107C9F70F94A82870
:104B10000D94AA310C940000CF93DF93BC01823036
:104B2000910510F462E070E0A091BF16B091C0163C
:104B3000ED0140E050E0E0E0F0E021C088819981A3
:104B40008617970769F48A819B81309719F09383C0
:104B5000828304C09093C0168093BF16FE0134C0B8
:104B60006817790738F44115510519F0841795072E
:104B700008F4AC01FE018A819B819C01E901209728
:104B8000E9F641155105A9F1CA01861B970B049757
:104B900008F4BA01E0E0F0E02AC08D919C911197F1
:104BA00084179507F9F46417750781F412968D91AF
:104BB0009C911397309719F09383828304C090934C
:104BC000C0168093BF16FD0132964CC0CA01861BE9
:104BD000970BFD01E80FF91F6193719302978D9375
:104BE0009C9340C0FD01828193819C01D901109763
:104BF000A1F68091BD169091BE16892B41F480914B
:104C0000390490913A049093BE168093BD1640915A
:104C10003B0450913C044115510541F44DB75EB73A
:104C20008091370490913804481B590B2091BD1690
:104C30003091BE16CA01821B930B8617970780F02E
:104C4000AB014E5F5F4F8417950750F0420F531F23
:104C50005093BE164093BD16F9016193719302C043
:104C6000E0E0F0E0CF01DF91CF910895CF93DF93A3
:104C7000009709F450C0EC0122971B821A82A09180
:104C8000BF16B091C016109709F140E050E0AC1784
:104C9000BD0708F1BB83AA83FE0121913191E20F88
:104CA000F31FAE17BF0779F48D919C911197280FD0
:104CB000391F2E5F3F4F3983288312968D919C9127
:104CC00013979B838A834115510571F4D093C016C5
:104CD000C093BF1620C012968D919C911397AD0181
:104CE000009711F0DC01D3CFFA01D383C283219165
:104CF0003191E20FF31FCE17DF0769F488819981A4
:104D0000280F391F2E5F3F4FFA01318320838A819C
:104D10009B8193838283DF91CF910895A0E0B0E0DF
:104D2000E4E9F6E20D947931EC015B01611571055E
:104D300019F0FB0191838083F9908F2D90E00F94FF
:104D40006031892BC9F7FDE2FF1621F4F990EE24BA
:104D5000E39405C02BE2F21609F4F990EE248E01DB
:104D600001501040C80164E47AE443E050E072D29C
:104D7000892BF9F48E010E5F1F4FC80167E47AE4B6
:104D800045E050E067D2892B19F48E01095F1F4F6F
:104D9000A114B10419F0F50111830083E0FC04C0F3
:104DA00070E090E080E813C070E090E080E86FEF82
:104DB00007C1C8016CE47AE443E050E04BD2892B90
:104DC00069F4A114B10429F470E090E080EC6FE77D
:104DD000F7C02296F501D183C083F6CF88249924A9
:104DE00040E050E060E070E0EF2DE053EA30A0F5E5
:104DF000F2E0EF2A8E2D90E09C0128703070E2FEE8
:104E000006C0232B79F50894811C911C2BC0232B01
:104E100019F0089481089108DB01CA0112E0880F9B
:104E2000991FAA1FBB1F1A95D1F7480F591F6A1F58
:104E30007B1F440F551F661F771F4E0F511D611DAD
:104E4000711D483929E9520729E9620729E17207EA
:104E500048F084E0E82A06C0EE3F31F4E3FC39C0B4
:104E600098E0E92AF990C0CFE53311F0E53189F5F2
:104E700029912D3219F4E0E1EE2A05C02B3219F008
:104E800081E090E003C0299182E090E0E22FE053BE
:104E9000EA3018F0C81BD90B1CC020E030E0FCE061
:104EA00020383F075CF4C901880F991F880F991FAC
:104EB000280F391F220F331F2E0F311DE991E053A8
:104EC000EA3068F3E4FE03C0309521953F4F820E2F
:104ED000931ECE2CDD24E1FE07C0A114B10421F005
:104EE0002197F501D183C083CB01BA010F94C52D61
:104EF0007B018C01F3E0CF22DD2423E0C216D10434
:104F000021F417FB109517F9109557016801C80196
:104F1000B70120E030E040E050E00F94252D8823D9
:104F200009F44AC097FE0DC023E6E22E2AE4F22ED1
:104F30009094819491089394C0E2D0E000E010E056
:104F400012C09BE7E92E9AE4F92EF6CFF7012591DE
:104F5000359145915491C601B5010F9405305B011F
:104F60006C018C1A9D0A8C169D0684F7D595C79501
:104F70000F5F1F4F0630110529F08CEF9FEFE80EF1
:104F8000F91EF1CFC501D6017C018D018C2D880F52
:104F90008D2D881F8F3F51F0C601B50120E030E014
:104FA00040E050E00F94252D882331F482E290E018
:104FB0009093C2168093C1167E2D9F2D802F612F56
:104FC000272F392F482F562FB901CA01CDB7DEB789
:104FD000ECE00D9495312F923F925F926F927F9209
:104FE0008F929F92AF92BF92CF92DF92EF92FF92F9
:104FF0000F931F93CF93DF938C011B01EA0161157F
:10500000710519F0FB0191838083209749F0CE014F
:105010000297839728F020E030E040E050E0F6C0AF
:10502000F801A1908F018A2D90E00F946031892BB7
:10503000B9F7FDE2AF1631F4F801A1908F015524C4
:10504000539407C0FBE2AF1619F4F801A1908F0149
:105050005524209719F0C031D105C1F4F0E3AF1603
:1050600079F4F8018081883711F0883549F4F80126
:10507000A1800E5F1F4FF2E05F2AC0E1D0E006C0C2
:10508000209721F480E3A816E9F427C0C830D105A1
:1050900031F1C930D10524F4C230D10531F50CC04D
:1050A000CA30D10589F0C031D105F9F4C12CD12C19
:1050B000E12CB8E0FB2E28C0C12CD12CE12CA0E4BF
:1050C000FA2E22C0CAE0D0E0FCECCF2EFCECDF2EA2
:1050D000FCECEF2EFCE0FF2E17C0C8E0D0E0C12CA6
:1050E000D12CE12CE0E1FE2E0FC09E01442737FDBC
:1050F0004095542F60E070E080E090E80F941D31FF
:10510000C901DA016C017D0120E030E040E050E0AF
:1051100060E03E01882477FC8094982C70EDB72ED7
:10512000BA0CE9E0EB1570F48A2D81548A3118F439
:1051300099ECB92E06C08A2D81568A3150F589EA3C
:10514000B82EBA0C8B2D90E08C179D0714F56F3F8D
:10515000E1F0C216D306E406F506B0F0CA01B901C3
:10516000A40193010F94D7309B01AC012B0D311D8D
:10517000411D511D2130F0E03F07F0E04F07F0E8FE
:105180005F0710F461E001C06FEFF801A1908F019B
:10519000C5CF2114310481F0662331F00150104055
:1051A000F1011183008308C051FE1AC00250104063
:1051B000F1011183008314C067FF12C050FC05C0C9
:1051C0002FEF3FEF4FEF5FE704C020E030E040E01B
:1051D00050E882E290E09093C2168093C11616C008
:1051E00050FE08C050954095309521953F4F4F4F48
:1051F0005F4F0CC057FF0AC082E290E09093C21646
:105200008093C1162FEF3FEF4FEF5FE7B901CA015F
:10521000DF91CF911F910F91FF90EF90DF90CF9092
:10522000BF90AF909F908F907F906F905F903F90D6
:105230002F900895FB01DC0105900D920020E1F70D
:105240000895FC0105900020E9F7809590958E0F58
:105250009F1F0895FB01DC014150504088F08D9163
:1052600081341CF08B350CF4805E659161341CF048
:105270006B350CF4605E861B611171F3990B089518
:10528000881BFCCFFB01DC014150504048F00590E9
:105290000D920020C9F701C01D9241505040E0F727
:1052A0000895FB0155915523A9F0BF01DC014D91F3
:1052B00045174111E1F759F4CD010590002049F05F
:1052C0004D9140154111C9F3FB014111EFCF81E030
:1052D00090E001970895FB01DC0104C08D910190DD
:1052E000801921F441505040C8F7881B990B08954C
:1052F000FB01DC0102C001900D9241505040D8F7F3
:105300000895FB01DC018D9181341CF08B350CF488
:10531000805E619161341CF06B350CF4605E861B1D
:10532000611189F3990B0895FB01DC010D900020B8
:10533000E9F7119701900D920020E1F70895FC0123
:105340008191861721F08823D9F7992708953197FD
:10535000CF010895FB01DC018D91019080190110AE
:10536000D9F3990B0895FB01DC0101900D92002007
:10537000E1F70895FB01DC014150504030F08D9180
:105380000190801919F40020B9F7881B990B089532
:10539000FB01DC014150504048F001900D9200208B
:1053A000C9F701C01D9241505040E0F70895FB013C
:1053B00051915523A9F0BF01DC014D9145174111D1
:1053C000E1F759F4CD010190002049F04D914015CD
:1053D0004111C9F3FB014111EFCF81E090E001974A
:1053E0000895AEE0B0E0E7EFF9E20D9481310E8967
:1053F0001F898EE08C831A8309838FEF9FE79E833A
:105400008D839E01265E3F4FCE010196688D798D7A
:10541000A9010AD02F813885020F131FF8011082CD
:105420002E96E4E00D949D31ABE0B0E0EAE1FAE2C3
:105430000D9473313C012B015A01FC011782168235
:10544000838181FD03C06FEF7FEFB9C19AE0892EA0
:105450001E010894211C311CF3012381F20123FD5C
:10546000859123FF81912F01882309F4A5C18532FD
:1054700039F423FD859123FF81912F01853221F499
:1054800090E0B301B7D1E8CF982FFF24EE24992400
:10549000FFE1FF15D0F09B3269F09C3228F4903286
:1054A00059F0933291F40EC09D3249F0903369F473
:1054B00041E024C052E0F52A84E0F82A28C098E0B0
:1054C000F92A25C0E0E1FE2A22C0F7FC29C0892F75
:1054D00080538A3070F4F6FE05C0989C902C1124FD
:1054E000980E15C0E89CE02C1124E80EF0E2FF2A8B
:1054F0000EC09E3229F4F6FC5FC140E4F42A07C0D6
:105500009C3619F450E8F52A02C0983649F4F201A5
:1055100023FD959123FF91912F01992309F0B8CF95
:10552000892F8554833018F08052833038F444E05A
:1055300050E0A40EB51E5FE359830FC0933631F0DF
:10554000933779F0933509F052C01FC0F50180817F
:10555000898342E050E0A40EB51E610101E010E035
:1055600011C0F501C080D180F6FC03C06FEF7FEF62
:1055700002C0692D70E042E050E0A40EB51EC601E5
:105580002ED18C015FE7F52213C0F501C080D180D8
:10559000F6FC03C06FEF7FEF02C0692D70E042E0C0
:1055A00050E0A40EB51EC6010FD18C0150E8F52ABB
:1055B000F3FE06C018C080E290E0B3011BD1EA946C
:1055C0008E2D90E008171907B0F30DC0F601F7FC17
:1055D0008591F7FE81916F0190E0B3010BD1E1104D
:1055E000EA94015010400115110581F7E2C094368C
:1055F00011F0993661F5F7FE08C0F501208131817F
:105600004281538184E090E00AC0F501808191815C
:105610009C01442737FD4095542F82E090E0A80E6E
:10562000B91E9FE6F92257FF09C050954095309565
:1056300021953F4F4F4F5F4FE0E8FE2ACA01B90165
:10564000A1012AE030E002D1D82ED2183FC0953710
:1056500029F41F2D1F7E2AE030E01DC01F2D197F69
:105660009F3661F0903720F4983509F0A5C00FC03F
:10567000903739F0983709F09FC004C028E030E037
:105680000AC0106114FD146020E130E004C014FD74
:10569000166020E132E017FF08C0F50160817181DA
:1056A0008281938144E050E008C0F50180819181BE
:1056B000BC0180E090E042E050E0A40EB51EA101E4
:1056C000C5D0D82ED2188FE7F82EF122F6FE0BC0E7
:1056D0005EEFF522D91438F4F4FE07C0F2FC05C0E1
:1056E0008FEEF82202C01D2D01C0192DF4FE0DC051
:1056F000FE01ED0DF11D8081803319F499EEF92240
:1057000008C01F5FF2FE05C003C08F2D867809F028
:105710001F5F0F2DF3FC13C0F0FE0EC01E1510F01E
:105720009D2C0AC09D2C9E0C911A1E2D05C080E256
:1057300090E0B3015FD01F5F1E15C8F304C01E15B3
:1057400010F4E11A01C0EE2404FF0EC080E390E0E3
:10575000B30150D002FF1BC001FD03C088E790E0F9
:105760000EC088E590E00BC0802F867881F001FFA5
:1057700002C08BE201C080E2F7FC8DE290E0B30151
:1057800039D005C080E390E0B30134D09A94D914A5
:10579000C8F3DA94F101ED0DF11D808190E0B301C1
:1057A00029D0DD20B1F705C080E290E0B30122D01E
:1057B000EA94EE20C9F750CEF30166817781CB01E0
:1057C0002B96E2E10D948F31FC0105906150704001
:1057D0000110D8F7809590958E0F9F1F0895FC01BA
:1057E0006150704001900110D8F7809590958E0F10
:1057F0009F1F08950F931F93CF93DF938C01EB01AD
:105800008B8181FF1BC082FF0DC02E813F818C8167
:105810009D812817390764F4E881F9810193F983A0
:10582000E88306C0E885F985802F1995892B31F426
:105830008E819F8101969F838E8302C00FEF1FEFA1
:10584000C801DF91CF911F910F910895FA01AA2706
:10585000283051F1203181F1E8946F936E7F6E5FB3
:105860007F4F8F4F9F4FAF4FB1E03ED0B4E03CD061
:10587000670F781F891F9A1FA11D680F791F8A1F44
:10588000911DA11D6A0F711D811D911DA11D20D0AB
:1058900009F468943F912AE0269F11243019305D65
:1058A0003193DEF6CF010895462F4770405D419356
:1058B000B3E00FD0C9F7F6CF462F4F70405D4A33A3
:1058C00018F0495D31FD4052419302D0A9F7EACF6B
:1058D000B4E0A6959795879577956795BA95C9F79A
:1058E00000976105710508959B01AC010A2E06948D
:1058F0005795479537952795BA95C9F7620F731F46
:10590000841F951FA01D08958091C207882399F1D7
:105910004091BC055091BD056091BE057091BF05D9
:105920008091C0079091C10720EC35E00E94C69994
:10593000882319F14091C3075091C4076091C507AE
:105940007091C607411551056105710591F080916F
:10595000C0079091C10720EC35E00E94C6998823CA
:1059600061F01092C3071092C4071092C5071092FD
:10597000C6071092C20781E0089580E00895DF9283
:10598000EF92FF920F931F937B018C01D42E809195
:10599000BC059091BD05A091BE05B091BF058E15C7
:1059A0009F05A007B107B9F0AFDF8823E1F0809130
:1059B000C0079091C107B801A70120EC35E00E9413
:1059C000A29A882381F0E092BC05F092BD05009375
:1059D000BE051093BF05DD2011F481E005C081E014
:1059E0008093C20701C080E01F910F91FF90EF905C
:1059F000DF9008958F929F92AF92BF92CF92DF92E5
:105A0000EF92FF920F931F93CF93DF936C01142FAC
:105A10007093C1076093C007FC01178A82E090E091
:105A2000A0E0B0E080839183A283B3831092C20789
:105A30001092C3071092C4071092C5071092C607B0
:105A40008FEF9FEFAFEFBFEF8093BC059093BD0545
:105A5000A093BE05B093BF05442321F48824992464
:105A600054013FC0453008F01CC160E070E080E0A8
:105A700090E040E084DF882309F413C1C12FD0E017
:105A80002197FE0174E0EE0FFF1F7A95E1F7E054D5
:105A9000FA4FE254FE4F8081EE5BF14090E08F7749
:105AA0009070892B09F0FDC0E653FE4F80819181F3
:105AB000A281B38184369105A105B10508F4F1C036
:105AC00064E0CC0FDD1F6A95E1F7CA57D84F888094
:105AD0009980AA80BB8081149104A104B10409F4C7
